{
  "abi": [
    {
      "inputs": [
        {
          "internalType": "address",
          "name": "_protocolFeeDestination",
          "type": "address"
        },
        {
          "internalType": "uint256",
          "name": "_protocolFeePercent",
          "type": "uint256"
        }
      ],
      "stateMutability": "nonpayable",
      "type": "constructor"
    },
    {
      "anonymous": false,
      "inputs": [
        {
          "indexed": true,
          "internalType": "address",
          "name": "owner",
          "type": "address"
        },
        {
          "indexed": true,
          "internalType": "address",
          "name": "spender",
          "type": "address"
        },
        {
          "indexed": false,
          "internalType": "uint256",
          "name": "value",
          "type": "uint256"
        }
      ],
      "name": "Approval",
      "type": "event"
    },
    {
      "anonymous": false,
      "inputs": [
        {
          "indexed": true,
          "internalType": "address",
          "name": "previousOwner",
          "type": "address"
        },
        {
          "indexed": true,
          "internalType": "address",
          "name": "newOwner",
          "type": "address"
        }
      ],
      "name": "OwnershipTransferred",
      "type": "event"
    },
    {
      "anonymous": false,
      "inputs": [
        {
          "indexed": true,
          "internalType": "address",
          "name": "owner",
          "type": "address"
        },
        {
          "indexed": true,
          "internalType": "uint256",
          "name": "id",
          "type": "uint256"
        }
      ],
      "name": "ShareCreated",
      "type": "event"
    },
    {
      "anonymous": false,
      "inputs": [
        {
          "indexed": false,
          "internalType": "uint256",
          "name": "id",
          "type": "uint256"
        },
        {
          "indexed": false,
          "internalType": "uint256",
          "name": "side",
          "type": "uint256"
        },
        {
          "indexed": false,
          "internalType": "address",
          "name": "trader",
          "type": "address"
        },
        {
          "indexed": false,
          "internalType": "address",
          "name": "owner",
          "type": "address"
        },
        {
          "indexed": false,
          "internalType": "uint256",
          "name": "amount",
          "type": "uint256"
        },
        {
          "indexed": false,
          "internalType": "uint256",
          "name": "price",
          "type": "uint256"
        },
        {
          "indexed": false,
          "internalType": "uint256",
          "name": "supply",
          "type": "uint256"
        }
      ],
      "name": "Trade",
      "type": "event"
    },
    {
      "anonymous": false,
      "inputs": [
        {
          "indexed": true,
          "internalType": "address",
          "name": "from",
          "type": "address"
        },
        {
          "indexed": true,
          "internalType": "address",
          "name": "to",
          "type": "address"
        },
        {
          "indexed": false,
          "internalType": "uint256",
          "name": "value",
          "type": "uint256"
        }
      ],
      "name": "Transfer",
      "type": "event"
    },
    {
      "inputs": [
        {
          "internalType": "address",
          "name": "owner",
          "type": "address"
        },
        {
          "internalType": "address",
          "name": "spender",
          "type": "address"
        }
      ],
      "name": "allowance",
      "outputs": [
        {
          "internalType": "uint256",
          "name": "",
          "type": "uint256"
        }
      ],
      "stateMutability": "view",
      "type": "function"
    },
    {
      "inputs": [
        {
          "internalType": "address",
          "name": "spender",
          "type": "address"
        },
        {
          "internalType": "uint256",
          "name": "amount",
          "type": "uint256"
        }
      ],
      "name": "approve",
      "outputs": [
        {
          "internalType": "bool",
          "name": "",
          "type": "bool"
        }
      ],
      "stateMutability": "nonpayable",
      "type": "function"
    },
    {
      "inputs": [
        {
          "internalType": "address",
          "name": "account",
          "type": "address"
        }
      ],
      "name": "balanceOf",
      "outputs": [
        {
          "internalType": "uint256",
          "name": "",
          "type": "uint256"
        }
      ],
      "stateMutability": "view",
      "type": "function"
    },
    {
      "inputs": [
        {
          "internalType": "uint256",
          "name": "id",
          "type": "uint256"
        },
        {
          "internalType": "uint256",
          "name": "amount",
          "type": "uint256"
        }
      ],
      "name": "buyShare",
      "outputs": [],
      "stateMutability": "payable",
      "type": "function"
    },
    {
      "inputs": [
        {
          "internalType": "string",
          "name": "_uri",
          "type": "string"
        }
      ],
      "name": "createShare",
      "outputs": [],
      "stateMutability": "nonpayable",
      "type": "function"
    },
    {
      "inputs": [],
      "name": "currentId",
      "outputs": [
        {
          "internalType": "uint256",
          "name": "",
          "type": "uint256"
        }
      ],
      "stateMutability": "view",
      "type": "function"
    },
    {
      "inputs": [],
      "name": "decimals",
      "outputs": [
        {
          "internalType": "uint8",
          "name": "",
          "type": "uint8"
        }
      ],
      "stateMutability": "view",
      "type": "function"
    },
    {
      "inputs": [
        {
          "internalType": "address",
          "name": "spender",
          "type": "address"
        },
        {
          "internalType": "uint256",
          "name": "subtractedValue",
          "type": "uint256"
        }
      ],
      "name": "decreaseAllowance",
      "outputs": [
        {
          "internalType": "bool",
          "name": "",
          "type": "bool"
        }
      ],
      "stateMutability": "nonpayable",
      "type": "function"
    },
    {
      "inputs": [
        {
          "internalType": "address",
          "name": "_account",
          "type": "address"
        }
      ],
      "name": "earned",
      "outputs": [
        {
          "internalType": "uint256",
          "name": "",
          "type": "uint256"
        }
      ],
      "stateMutability": "view",
      "type": "function"
    },
    {
      "inputs": [
        {
          "internalType": "uint256",
          "name": "id",
          "type": "uint256"
        },
        {
          "internalType": "string",
          "name": "_uri",
          "type": "string"
        }
      ],
      "name": "editUri",
      "outputs": [],
      "stateMutability": "nonpayable",
      "type": "function"
    },
    {
      "inputs": [
        {
          "internalType": "uint256",
          "name": "",
          "type": "uint256"
        }
      ],
      "name": "epoch",
      "outputs": [
        {
          "internalType": "uint256",
          "name": "",
          "type": "uint256"
        }
      ],
      "stateMutability": "view",
      "type": "function"
    },
    {
      "inputs": [],
      "name": "finishAt",
      "outputs": [
        {
          "internalType": "uint256",
          "name": "",
          "type": "uint256"
        }
      ],
      "stateMutability": "view",
      "type": "function"
    },
    {
      "inputs": [
        {
          "internalType": "uint256",
          "name": "id",
          "type": "uint256"
        },
        {
          "internalType": "uint256",
          "name": "amount",
          "type": "uint256"
        }
      ],
      "name": "getBuyPrice",
      "outputs": [
        {
          "internalType": "uint256",
          "name": "",
          "type": "uint256"
        }
      ],
      "stateMutability": "view",
      "type": "function"
    },
    {
      "inputs": [
        {
          "internalType": "uint256",
          "name": "id",
          "type": "uint256"
        },
        {
          "internalType": "uint256",
          "name": "amount",
          "type": "uint256"
        }
      ],
      "name": "getBuyPriceAfterFee",
      "outputs": [
        {
          "internalType": "uint256",
          "name": "",
          "type": "uint256"
        }
      ],
      "stateMutability": "view",
      "type": "function"
    },
    {
      "inputs": [
        {
          "internalType": "uint256",
          "name": "supply",
          "type": "uint256"
        },
        {
          "internalType": "uint256",
          "name": "amount",
          "type": "uint256"
        }
      ],
      "name": "getPrice",
      "outputs": [
        {
          "internalType": "uint256",
          "name": "",
          "type": "uint256"
        }
      ],
      "stateMutability": "pure",
      "type": "function"
    },
    {
      "inputs": [
        {
          "internalType": "uint256",
          "name": "currentTime",
          "type": "uint256"
        }
      ],
      "name": "getRate",
      "outputs": [
        {
          "internalType": "uint256",
          "name": "",
          "type": "uint256"
        }
      ],
      "stateMutability": "view",
      "type": "function"
    },
    {
      "inputs": [],
      "name": "getReward",
      "outputs": [],
      "stateMutability": "nonpayable",
      "type": "function"
    },
    {
      "inputs": [
        {
          "internalType": "uint256",
          "name": "id",
          "type": "uint256"
        },
        {
          "internalType": "uint256",
          "name": "amount",
          "type": "uint256"
        }
      ],
      "name": "getSellPrice",
      "outputs": [
        {
          "internalType": "uint256",
          "name": "",
          "type": "uint256"
        }
      ],
      "stateMutability": "view",
      "type": "function"
    },
    {
      "inputs": [
        {
          "internalType": "uint256",
          "name": "id",
          "type": "uint256"
        },
        {
          "internalType": "uint256",
          "name": "amount",
          "type": "uint256"
        }
      ],
      "name": "getSellPriceAfterFee",
      "outputs": [
        {
          "internalType": "uint256",
          "name": "",
          "type": "uint256"
        }
      ],
      "stateMutability": "view",
      "type": "function"
    },
    {
      "inputs": [
        {
          "internalType": "uint256",
          "name": "id",
          "type": "uint256"
        },
        {
          "internalType": "address",
          "name": "user",
          "type": "address"
        }
      ],
      "name": "getShareBalance",
      "outputs": [
        {
          "internalType": "uint256",
          "name": "",
          "type": "uint256"
        }
      ],
      "stateMutability": "view",
      "type": "function"
    },
    {
      "inputs": [
        {
          "internalType": "uint256",
          "name": "id",
          "type": "uint256"
        }
      ],
      "name": "getShareInfo",
      "outputs": [
        {
          "internalType": "address",
          "name": "_owner",
          "type": "address"
        },
        {
          "internalType": "uint256",
          "name": "_totalSupply",
          "type": "uint256"
        },
        {
          "internalType": "string",
          "name": "_uri",
          "type": "string"
        }
      ],
      "stateMutability": "view",
      "type": "function"
    },
    {
      "inputs": [
        {
          "internalType": "address",
          "name": "spender",
          "type": "address"
        },
        {
          "internalType": "uint256",
          "name": "addedValue",
          "type": "uint256"
        }
      ],
      "name": "increaseAllowance",
      "outputs": [
        {
          "internalType": "bool",
          "name": "",
          "type": "bool"
        }
      ],
      "stateMutability": "nonpayable",
      "type": "function"
    },
    {
      "inputs": [],
      "name": "lastTimeRewardApplicable",
      "outputs": [
        {
          "internalType": "uint256",
          "name": "",
          "type": "uint256"
        }
      ],
      "stateMutability": "view",
      "type": "function"
    },
    {
      "inputs": [],
      "name": "maxSupply",
      "outputs": [
        {
          "internalType": "uint256",
          "name": "",
          "type": "uint256"
        }
      ],
      "stateMutability": "view",
      "type": "function"
    },
    {
      "inputs": [],
      "name": "name",
      "outputs": [
        {
          "internalType": "string",
          "name": "",
          "type": "string"
        }
      ],
      "stateMutability": "view",
      "type": "function"
    },
    {
      "inputs": [],
      "name": "openInterest",
      "outputs": [
        {
          "internalType": "uint256",
          "name": "",
          "type": "uint256"
        }
      ],
      "stateMutability": "view",
      "type": "function"
    },
    {
      "inputs": [],
      "name": "owner",
      "outputs": [
        {
          "internalType": "address",
          "name": "",
          "type": "address"
        }
      ],
      "stateMutability": "view",
      "type": "function"
    },
    {
      "inputs": [],
      "name": "protocolFeeDestination",
      "outputs": [
        {
          "internalType": "address",
          "name": "",
          "type": "address"
        }
      ],
      "stateMutability": "view",
      "type": "function"
    },
    {
      "inputs": [],
      "name": "protocolFeePercent",
      "outputs": [
        {
          "internalType": "uint256",
          "name": "",
          "type": "uint256"
        }
      ],
      "stateMutability": "view",
      "type": "function"
    },
    {
      "inputs": [],
      "name": "renounceOwnership",
      "outputs": [],
      "stateMutability": "nonpayable",
      "type": "function"
    },
    {
      "inputs": [],
      "name": "rewardPerEthStored",
      "outputs": [
        {
          "internalType": "uint256",
          "name": "",
          "type": "uint256"
        }
      ],
      "stateMutability": "view",
      "type": "function"
    },
    {
      "inputs": [],
      "name": "rewardPerToken",
      "outputs": [
        {
          "internalType": "uint256",
          "name": "",
          "type": "uint256"
        }
      ],
      "stateMutability": "view",
      "type": "function"
    },
    {
      "inputs": [
        {
          "internalType": "address",
          "name": "",
          "type": "address"
        }
      ],
      "name": "rewards",
      "outputs": [
        {
          "internalType": "uint256",
          "name": "",
          "type": "uint256"
        }
      ],
      "stateMutability": "view",
      "type": "function"
    },
    {
      "inputs": [],
      "name": "rewardsToken",
      "outputs": [
        {
          "internalType": "contract IERC20",
          "name": "",
          "type": "address"
        }
      ],
      "stateMutability": "view",
      "type": "function"
    },
    {
      "inputs": [
        {
          "internalType": "uint256",
          "name": "id",
          "type": "uint256"
        },
        {
          "internalType": "uint256",
          "name": "amount",
          "type": "uint256"
        }
      ],
      "name": "sellShare",
      "outputs": [],
      "stateMutability": "nonpayable",
      "type": "function"
    },
    {
      "inputs": [
        {
          "internalType": "address",
          "name": "_protocolFeeDestination",
          "type": "address"
        }
      ],
      "name": "setProtocolFeeDestination",
      "outputs": [],
      "stateMutability": "nonpayable",
      "type": "function"
    },
    {
      "inputs": [
        {
          "internalType": "uint256",
          "name": "_protocolFeePercent",
          "type": "uint256"
        }
      ],
      "name": "setProtocolFeePercent",
      "outputs": [],
      "stateMutability": "nonpayable",
      "type": "function"
    },
    {
      "inputs": [
        {
          "internalType": "uint256",
          "name": "",
          "type": "uint256"
        }
      ],
      "name": "shareInfo",
      "outputs": [
        {
          "internalType": "address",
          "name": "owner",
          "type": "address"
        },
        {
          "internalType": "uint256",
          "name": "totalSupply",
          "type": "uint256"
        },
        {
          "internalType": "string",
          "name": "uri",
          "type": "string"
        }
      ],
      "stateMutability": "view",
      "type": "function"
    },
    {
      "inputs": [],
      "name": "startTime",
      "outputs": [
        {
          "internalType": "uint256",
          "name": "",
          "type": "uint256"
        }
      ],
      "stateMutability": "view",
      "type": "function"
    },
    {
      "inputs": [],
      "name": "symbol",
      "outputs": [
        {
          "internalType": "string",
          "name": "",
          "type": "string"
        }
      ],
      "stateMutability": "view",
      "type": "function"
    },
    {
      "inputs": [],
      "name": "totalSupply",
      "outputs": [
        {
          "internalType": "uint256",
          "name": "",
          "type": "uint256"
        }
      ],
      "stateMutability": "view",
      "type": "function"
    },
    {
      "inputs": [
        {
          "internalType": "address",
          "name": "to",
          "type": "address"
        },
        {
          "internalType": "uint256",
          "name": "amount",
          "type": "uint256"
        }
      ],
      "name": "transfer",
      "outputs": [
        {
          "internalType": "bool",
          "name": "",
          "type": "bool"
        }
      ],
      "stateMutability": "nonpayable",
      "type": "function"
    },
    {
      "inputs": [
        {
          "internalType": "address",
          "name": "from",
          "type": "address"
        },
        {
          "internalType": "address",
          "name": "to",
          "type": "address"
        },
        {
          "internalType": "uint256",
          "name": "amount",
          "type": "uint256"
        }
      ],
      "name": "transferFrom",
      "outputs": [
        {
          "internalType": "bool",
          "name": "",
          "type": "bool"
        }
      ],
      "stateMutability": "nonpayable",
      "type": "function"
    },
    {
      "inputs": [
        {
          "internalType": "address",
          "name": "newOwner",
          "type": "address"
        }
      ],
      "name": "transferOwnership",
      "outputs": [],
      "stateMutability": "nonpayable",
      "type": "function"
    },
    {
      "inputs": [],
      "name": "updatedAt",
      "outputs": [
        {
          "internalType": "uint256",
          "name": "",
          "type": "uint256"
        }
      ],
      "stateMutability": "view",
      "type": "function"
    },
    {
      "inputs": [
        {
          "internalType": "uint256",
          "name": "id",
          "type": "uint256"
        }
      ],
      "name": "uri",
      "outputs": [
        {
          "internalType": "string",
          "name": "",
          "type": "string"
        }
      ],
      "stateMutability": "view",
      "type": "function"
    },
    {
      "inputs": [
        {
          "internalType": "address",
          "name": "",
          "type": "address"
        }
      ],
      "name": "userEthContributed",
      "outputs": [
        {
          "internalType": "uint256",
          "name": "",
          "type": "uint256"
        }
      ],
      "stateMutability": "view",
      "type": "function"
    },
    {
      "inputs": [
        {
          "internalType": "address",
          "name": "",
          "type": "address"
        }
      ],
      "name": "userRewardPerEthPaid",
      "outputs": [
        {
          "internalType": "uint256",
          "name": "",
          "type": "uint256"
        }
      ],
      "stateMutability": "view",
      "type": "function"
    }
  ],
  "bytecode": {
    "object": "0x60a06040526000600855630b488680600a556b204fce5e3e250261100000006012553480156200002e57600080fd5b506040516200273c3803806200273c833981016040819052620000519162000245565b6040518060400160405280600681526020016510dd5c9d995960d21b8152506040518060400160405280600681526020016510d55495915160d21b815250620000a9620000a36200012460201b60201c565b62000128565b6004620000b7838262000325565b506005620000c6828262000325565b5050600680546001600160a01b0319166001600160a01b038516179055506007819055426009819055600a54620000fd91620003f1565b600b55306080526200011c336b06765c793fa10079d000000062000178565b505062000419565b3390565b600080546001600160a01b038381166001600160a01b0319831681178455604051919092169283917f8be0079c531659141344cd1fd0a4f28419497f9722a3daafe3b4186f6b6457e09190a35050565b6001600160a01b038216620001d35760405162461bcd60e51b815260206004820152601f60248201527f45524332303a206d696e7420746f20746865207a65726f206164647265737300604482015260640160405180910390fd5b8060036000828254620001e79190620003f1565b90915550506001600160a01b0382166000818152600160209081526040808320805486019055518481527fddf252ad1be2c89b69c2b068fc378daa952ba7f163c4a11628f55a4df523b3ef910160405180910390a35050565b505050565b600080604083850312156200025957600080fd5b82516001600160a01b03811681146200027157600080fd5b6020939093015192949293505050565b634e487b7160e01b600052604160045260246000fd5b600181811c90821680620002ac57607f821691505b602082108103620002cd57634e487b7160e01b600052602260045260246000fd5b50919050565b601f8211156200024057600081815260208120601f850160051c81016020861015620002fc5750805b601f850160051c820191505b818110156200031d5782815560010162000308565b505050505050565b81516001600160401b0381111562000341576200034162000281565b620003598162000352845462000297565b84620002d3565b602080601f831160018114620003915760008415620003785750858301515b600019600386901b1c1916600185901b1785556200031d565b600085815260208120601f198616915b82811015620003c257888601518255948401946001909101908401620003a1565b5085821015620003e15787850151600019600388901b60f8161c191681555b5050505050600190811b01905550565b808201808211156200041357634e487b7160e01b600052601160045260246000fd5b92915050565b6080516123076200043560003960006107e701526123076000f3fe6080604052600436106102ad5760003560e01c80637519ab5011610175578063adacd487116100dc578063d4d83ec411610095578063dd62ed3e1161006f578063dd62ed3e1461084b578063e00dd1611461086b578063f2fde38b14610881578063fa5a2e62146108a157600080fd5b8063d4d83ec414610809578063d5abeb011461081f578063d6e6eb9f1461083557600080fd5b8063adacd4871461074b578063c157253d1461076b578063c8b081251461078b578063cd3daf9d146107a0578063cd9c7121146107b5578063d1af0c7d146107d557600080fd5b8063964115381161012e578063964115381461068b578063a10786b0146106b8578063a457c2d7146106d8578063a4983421146106f8578063a9059cbb14610718578063aca75a521461073857600080fd5b80637519ab50146105f757806378e979251461060d57806380faa57d146106235780638da5cb5b146106385780639477d85d1461065657806395d89b411461067657600080fd5b806323b872dd116102195780634ce7957c116101d25780634ce7957c1461051e57806357764094146105565780635cf4ee911461057657806367d3b4881461059657806370a08231146105ac578063715018a6146105e257600080fd5b806323b872dd1461046d5780632e3de7a51461048d578063313ce567146104ad57806339509351146104c95780633d18b912146104e95780634bcc7d7d146104fe57600080fd5b80630700037d1161026b5780630700037d14610396578063095ea7b3146103c35780630e89341c146103f35780630fb5a6b41461041357806318160ddd146104295780631d92d3b91461043e57600080fd5b80628cc262146102b25780630391f64c146102e55780630519e97514610305578063061cd06914610327578063063a741f1461035457806306fdde0314610374575b600080fd5b3480156102be57600080fd5b506102d26102cd366004611e15565b6108b7565b6040519081526020015b60405180910390f35b3480156102f157600080fd5b506102d2610300366004611e30565b610934565b34801561031157600080fd5b50610325610320366004611e5c565b61098d565b005b34801561033357600080fd5b506102d2610342366004611e15565b60116020526000908152604090205481565b34801561036057600080fd5b506102d261036f366004611e5c565b610c6f565b34801561038057600080fd5b50610389610cd8565b6040516102dc9190611ec4565b3480156103a257600080fd5b506102d26103b1366004611e15565b600f6020526000908152604090205481565b3480156103cf57600080fd5b506103e36103de366004611ed7565b610d6a565b60405190151581526020016102dc565b3480156103ff57600080fd5b5061038961040e366004611f01565b610d82565b34801561041f57600080fd5b506102d2600a5481565b34801561043557600080fd5b506003546102d2565b34801561044a57600080fd5b5061045e610459366004611f01565b610e46565b6040516102dc93929190611f1a565b34801561047957600080fd5b506103e3610488366004611f41565b610f2c565b34801561049957600080fd5b506103256104a8366004611fc6565b610f50565b3480156104b957600080fd5b50604051601281526020016102dc565b3480156104d557600080fd5b506103e36104e4366004611ed7565b611008565b3480156104f557600080fd5b5061032561102a565b34801561050a57600080fd5b50610325610519366004612008565b6110b9565b34801561052a57600080fd5b5060065461053e906001600160a01b031681565b6040516001600160a01b0390911681526020016102dc565b34801561056257600080fd5b506102d2610571366004611f01565b611162565b34801561058257600080fd5b506102d2610591366004611e5c565b61123d565b3480156105a257600080fd5b506102d2600b5481565b3480156105b857600080fd5b506102d26105c7366004611e15565b6001600160a01b031660009081526001602052604090205490565b3480156105ee57600080fd5b5061032561135e565b34801561060357600080fd5b506102d2600c5481565b34801561061957600080fd5b506102d260095481565b34801561062f57600080fd5b506102d2611372565b34801561064457600080fd5b506000546001600160a01b031661053e565b34801561066257600080fd5b506102d2610671366004611e5c565b611385565b34801561068257600080fd5b506103896113d6565b34801561069757600080fd5b506102d26106a6366004611e15565b600e6020526000908152604090205481565b3480156106c457600080fd5b506103256106d3366004611e15565b6113e5565b3480156106e457600080fd5b506103e36106f3366004611ed7565b61140f565b34801561070457600080fd5b50610325610713366004611f01565b61148a565b34801561072457600080fd5b506103e3610733366004611ed7565b611497565b610325610746366004611e5c565b6114a5565b34801561075757600080fd5b5061045e610766366004611f01565b6116bc565b34801561077757600080fd5b506102d2610786366004611e5c565b611771565b34801561079757600080fd5b506102d26117b0565b3480156107ac57600080fd5b506102d26117c8565b3480156107c157600080fd5b506102d26107d0366004611e5c565b61182b565b3480156107e157600080fd5b5061053e7f000000000000000000000000000000000000000000000000000000000000000081565b34801561081557600080fd5b506102d2600d5481565b34801561082b57600080fd5b506102d260125481565b34801561084157600080fd5b506102d260075481565b34801561085757600080fd5b506102d2610866366004612054565b61188b565b34801561087757600080fd5b506102d260085481565b34801561088d57600080fd5b5061032561089c366004611e15565b6118b6565b3480156108ad57600080fd5b506102d260105481565b6001600160a01b0381166000908152600f6020908152604080832054600e909252822054670de0b6b3a7640000906108ed6117c8565b6108f79190612094565b6001600160a01b03851660009081526011602052604090205461091a91906120a7565b61092491906120be565b61092e91906120e0565b92915050565b600060085483106109605760405162461bcd60e51b8152600401610957906120f3565b60405180910390fd5b5060008281526013602090815260408083206001600160a01b038516845260010190915290205492915050565b60085482106109ae5760405162461bcd60e51b8152600401610957906120f3565b6000828152601360209081526040808320600281015433855260018201909352922054831115610a205760405162461bcd60e51b815260206004820152601a60248201527f496e73756666696369656e742073686172652062616c616e63650000000000006044820152606401610957565b6000838360020154610a329190612094565b11610a975760405162461bcd60e51b815260206004820152602f60248201527f43616e6e6f742073656c6c20616c6c207368617265732c206d757374206c656160448201526e7665206174206c65617374206f6e6560881b6064820152608401610957565b6000610aac610aa68584612094565b8561123d565b336000908152601160205260409020549091508110610ada5733600090815260116020526040812055610b06565b33600090815260116020526040902054610af5908290612094565b336000908152601160205260409020555b80601054610b149190612094565b601055600754600090670de0b6b3a764000090610b3190846120a7565b610b3b91906120be565b336000908152600186016020526040902054909150610b5b908690612094565b336000908152600186016020526040902055610b778584612094565b600285015583546040517f09a786993c2becc8264c2a90ccc09ca6a571883f97635cc26ed418876b3bdb0a91610bc391899160019133916001600160a01b0316908b9089908b9061211d565b60405180910390a1600033610bd88385612094565b6040515b60006040518083038185875af1925050503d8060008114610c19576040519150601f19603f3d011682016040523d82523d6000602084013e610c1e565b606091505b5050905080610c665760405162461bcd60e51b8152602060048201526014602482015273556e61626c6520746f2073656e642066756e647360601b6044820152606401610957565b50505050505050565b60006008548310610c925760405162461bcd60e51b8152600401610957906120f3565b6000610c9e8484611771565b90506000670de0b6b3a764000060075483610cb991906120a7565b610cc391906120be565b9050610ccf81836120e0565b95945050505050565b606060048054610ce790612159565b80601f0160208091040260200160405190810160405280929190818152602001828054610d1390612159565b8015610d605780601f10610d3557610100808354040283529160200191610d60565b820191906000526020600020905b815481529060010190602001808311610d4357829003601f168201915b5050505050905090565b600033610d7881858561192f565b5060019392505050565b60606008548210610da55760405162461bcd60e51b8152600401610957906120f3565b60008281526013602052604090206003018054610dc190612159565b80601f0160208091040260200160405190810160405280929190818152602001828054610ded90612159565b8015610e3a5780601f10610e0f57610100808354040283529160200191610e3a565b820191906000526020600020905b815481529060010190602001808311610e1d57829003601f168201915b50505050509050919050565b60008060606008548410610e6c5760405162461bcd60e51b8152600401610957906120f3565b6000848152601360205260409020805460028201546003830180546001600160a01b03909316928190610e9e90612159565b80601f0160208091040260200160405190810160405280929190818152602001828054610eca90612159565b8015610f175780601f10610eec57610100808354040283529160200191610f17565b820191906000526020600020905b815481529060010190602001808311610efa57829003601f168201915b50505050509050935093509350509193909250565b600033610f3a858285611a53565b610f45858585611ac7565b506001949350505050565b60088054600090815260136020818152604080842080546001600160a01b0319163390811790915585548552818520908552600190810183528185208190558554855292909152808320600201919091559154815220600301610fb48284836121f7565b5060088054906000610fc5836122b8565b91905055506001600854610fd99190612094565b60405133907f335b5487495f05d92d4db67accd7283d32ffa24a7eb1d604889b384e4888376290600090a35050565b600033610d7881858561101b838361188b565b61102591906120e0565b61192f565b336110336117c8565b600d5561103e611372565b600c556001600160a01b0381161561108557611059816108b7565b6001600160a01b0382166000908152600f6020908152604080832093909355600d54600e909152919020555b336000908152600f602052604090205480156110b557336000818152600f60205260408120556110b59082611c72565b5050565b60085483106110da5760405162461bcd60e51b8152600401610957906120f3565b6000838152601360205260409020546001600160a01b031633146111405760405162461bcd60e51b815260206004820152601760248201527f4f6e6c7920746865206f776e65722063616e20656469740000000000000000006044820152606401610957565b600083815260136020526040902060030161115c8284836121f7565b50505050565b600080600954836111739190612094565b905060006111856301dfe200836120be565b90506000816000036111a457506b0cecb8f27f4200f3a000000061122f565b816001036111bf57506b052b7d2dcc80cd2e4000000061122f565b816002036111da57506b033b2e3c9fd0803ce800000061122f565b816003036111f557506b01f04ef12cb04cf15800000061122f565b8160040361121057506b015b6a759f4835dc2400000061122f565b8160050361122b57506b013a542146f830bafc00000061122f565b5060005b610ccf6301dfe200826120be565b6000808315611298576006611253600186612094565b61125e9060026120a7565b6112699060016120e0565b85611275600182612094565b61127f91906120a7565b61128991906120a7565b61129391906120be565b61129b565b60005b90506000841580156112ad5750836001145b611322576006846112bf600188612094565b6112c991906120e0565b6112d49060026120a7565b6112df9060016120e0565b6112e986886120e0565b866112f560018a612094565b6112ff91906120e0565b61130991906120a7565b61131391906120a7565b61131d91906120be565b611325565b60005b905060006113338383612094565b9050610fa061134a82670de0b6b3a76400006120a7565b61135491906120be565b9695505050505050565b611366611d33565b6113706000611d8d565b565b6000611380600b5442611ddd565b905090565b600060085483106113a85760405162461bcd60e51b8152600401610957906120f3565b6000838152601360205260409020600201546113cf906113c9908490612094565b8361123d565b9392505050565b606060058054610ce790612159565b6113ed611d33565b600680546001600160a01b0319166001600160a01b0392909216919091179055565b6000338161141d828661188b565b90508381101561147d5760405162461bcd60e51b815260206004820152602560248201527f45524332303a2064656372656173656420616c6c6f77616e63652062656c6f77604482015264207a65726f60d81b6064820152608401610957565b610f45828686840361192f565b611492611d33565b600755565b600033610d78818585611ac7565b60085482106114c65760405162461bcd60e51b8152600401610957906120f3565b60008281526013602052604090206002810154801515806114f0575081546001600160a01b031633145b6115545760405162461bcd60e51b815260206004820152602f60248201527f4f6e6c792074686520736861726573207375626a6563742063616e206275792060448201526e74686520666972737420736861726560881b6064820152608401610957565b6000611560828561123d565b3360009081526011602052604090205490915061157e9082906120e0565b3360009081526011602052604090205560105461159c9082906120e0565b601055600754600090670de0b6b3a7640000906115b990846120a7565b6115c391906120be565b90506115cf81836120e0565b3410156116155760405162461bcd60e51b8152602060048201526014602482015273125b9cdd59999a58da595b9d081c185e5b595b9d60621b6044820152606401610957565b3360009081526001850160205260409020546116329086906120e0565b33600090815260018601602052604090205561164e85846120e0565b600285015583546040517f09a786993c2becc8264c2a90ccc09ca6a571883f97635cc26ed418876b3bdb0a9161169a91899160009133916001600160a01b0316908b9089908b9061211d565b60405180910390a16006546040516000916001600160a01b0316908390610bdc565b6013602052600090815260409020805460028201546003830180546001600160a01b039093169391926116ee90612159565b80601f016020809104026020016040519081016040528092919081815260200182805461171a90612159565b80156117675780601f1061173c57610100808354040283529160200191611767565b820191906000526020600020905b81548152906001019060200180831161174a57829003601f168201915b5050505050905083565b600060085483106117945760405162461bcd60e51b8152600401610957906120f3565b6000838152601360205260409020600201546113cf908361123d565b60006117bb60035490565b6012546113809190612094565b6000476000036117d95750600d5490565b47600c546117e5611372565b6117ef9190612094565b6117f842611162565b61180291906120a7565b61181490670de0b6b3a76400006120a7565b61181e91906120be565b600d5461138091906120e0565b6000600854831061184e5760405162461bcd60e51b8152600401610957906120f3565b600061185a8484611385565b90506000670de0b6b3a76400006007548361187591906120a7565b61187f91906120be565b9050610ccf8183612094565b6001600160a01b03918216600090815260026020908152604080832093909416825291909152205490565b6118be611d33565b6001600160a01b0381166119235760405162461bcd60e51b815260206004820152602660248201527f4f776e61626c653a206e6577206f776e657220697320746865207a65726f206160448201526564647265737360d01b6064820152608401610957565b61192c81611d8d565b50565b6001600160a01b0383166119915760405162461bcd60e51b8152602060048201526024808201527f45524332303a20617070726f76652066726f6d20746865207a65726f206164646044820152637265737360e01b6064820152608401610957565b6001600160a01b0382166119f25760405162461bcd60e51b815260206004820152602260248201527f45524332303a20617070726f766520746f20746865207a65726f206164647265604482015261737360f01b6064820152608401610957565b6001600160a01b0383811660008181526002602090815260408083209487168084529482529182902085905590518481527f8c5be1e5ebec7d5bd14f71427d1e84f3dd0314c0f7b2291e5b200ac8c7c3b925910160405180910390a3505050565b6000611a5f848461188b565b9050600019811461115c5781811015611aba5760405162461bcd60e51b815260206004820152601d60248201527f45524332303a20696e73756666696369656e7420616c6c6f77616e63650000006044820152606401610957565b61115c848484840361192f565b6001600160a01b038316611b2b5760405162461bcd60e51b815260206004820152602560248201527f45524332303a207472616e736665722066726f6d20746865207a65726f206164604482015264647265737360d81b6064820152608401610957565b6001600160a01b038216611b8d5760405162461bcd60e51b815260206004820152602360248201527f45524332303a207472616e7366657220746f20746865207a65726f206164647260448201526265737360e81b6064820152608401610957565b6001600160a01b03831660009081526001602052604090205481811015611c055760405162461bcd60e51b815260206004820152602660248201527f45524332303a207472616e7366657220616d6f756e7420657863656564732062604482015265616c616e636560d01b6064820152608401610957565b6001600160a01b0380851660008181526001602052604080822086860390559286168082529083902080548601905591517fddf252ad1be2c89b69c2b068fc378daa952ba7f163c4a11628f55a4df523b3ef90611c659086815260200190565b60405180910390a361115c565b6001600160a01b038216611cc85760405162461bcd60e51b815260206004820152601f60248201527f45524332303a206d696e7420746f20746865207a65726f2061646472657373006044820152606401610957565b8060036000828254611cda91906120e0565b90915550506001600160a01b0382166000818152600160209081526040808320805486019055518481527fddf252ad1be2c89b69c2b068fc378daa952ba7f163c4a11628f55a4df523b3ef910160405180910390a35050565b6000546001600160a01b031633146113705760405162461bcd60e51b815260206004820181905260248201527f4f776e61626c653a2063616c6c6572206973206e6f7420746865206f776e65726044820152606401610957565b600080546001600160a01b038381166001600160a01b0319831681178455604051919092169283917f8be0079c531659141344cd1fd0a4f28419497f9722a3daafe3b4186f6b6457e09190a35050565b600081831115611ded57816113cf565b5090919050565b505050565b80356001600160a01b0381168114611e1057600080fd5b919050565b600060208284031215611e2757600080fd5b6113cf82611df9565b60008060408385031215611e4357600080fd5b82359150611e5360208401611df9565b90509250929050565b60008060408385031215611e6f57600080fd5b50508035926020909101359150565b6000815180845260005b81811015611ea457602081850181015186830182015201611e88565b506000602082860101526020601f19601f83011685010191505092915050565b6020815260006113cf6020830184611e7e565b60008060408385031215611eea57600080fd5b611ef383611df9565b946020939093013593505050565b600060208284031215611f1357600080fd5b5035919050565b60018060a01b0384168152826020820152606060408201526000610ccf6060830184611e7e565b600080600060608486031215611f5657600080fd5b611f5f84611df9565b9250611f6d60208501611df9565b9150604084013590509250925092565b60008083601f840112611f8f57600080fd5b50813567ffffffffffffffff811115611fa757600080fd5b602083019150836020828501011115611fbf57600080fd5b9250929050565b60008060208385031215611fd957600080fd5b823567ffffffffffffffff811115611ff057600080fd5b611ffc85828601611f7d565b90969095509350505050565b60008060006040848603121561201d57600080fd5b83359250602084013567ffffffffffffffff81111561203b57600080fd5b61204786828701611f7d565b9497909650939450505050565b6000806040838503121561206757600080fd5b61207083611df9565b9150611e5360208401611df9565b634e487b7160e01b600052601160045260246000fd5b8181038181111561092e5761092e61207e565b808202811582820484141761092e5761092e61207e565b6000826120db57634e487b7160e01b600052601260045260246000fd5b500490565b8082018082111561092e5761092e61207e565b60208082526010908201526f125b9d985b1a59081cda185c99481a5960821b604082015260600190565b96875260208701959095526001600160a01b039384166040870152919092166060850152608084019190915260a083015260c082015260e00190565b600181811c9082168061216d57607f821691505b60208210810361218d57634e487b7160e01b600052602260045260246000fd5b50919050565b634e487b7160e01b600052604160045260246000fd5b601f821115611df457600081815260208120601f850160051c810160208610156121d05750805b601f850160051c820191505b818110156121ef578281556001016121dc565b505050505050565b67ffffffffffffffff83111561220f5761220f612193565b6122238361221d8354612159565b836121a9565b6000601f841160018114612257576000851561223f5750838201355b600019600387901b1c1916600186901b1783556122b1565b600083815260209020601f19861690835b828110156122885786850135825560209485019460019092019101612268565b50868210156122a55760001960f88860031b161c19848701351681555b505060018560011b0183555b5050505050565b6000600182016122ca576122ca61207e565b506001019056fea264697066735822122044e3df9126737003f6ca63d82c437950b0b9b6b8513a31d6abe1f4b9b4125b3d64736f6c63430008150033",
    "linkReferences": {}
  },
  "methodIdentifiers": {
    "allowance(address,address)": "dd62ed3e",
    "approve(address,uint256)": "095ea7b3",
    "balanceOf(address)": "70a08231",
    "buyShare(uint256,uint256)": "aca75a52",
    "createShare(string)": "2e3de7a5",
    "currentId()": "e00dd161",
    "decimals()": "313ce567",
    "decreaseAllowance(address,uint256)": "a457c2d7",
    "duration()": "0fb5a6b4",
    "earned(address)": "008cc262",
    "editUri(uint256,string)": "4bcc7d7d",
    "finishAt()": "67d3b488",
    "getBuyPrice(uint256,uint256)": "c157253d",
    "getBuyPriceAfterFee(uint256,uint256)": "063a741f",
    "getPrice(uint256,uint256)": "5cf4ee91",
    "getRate(uint256)": "57764094",
    "getReward()": "3d18b912",
    "getSellPrice(uint256,uint256)": "9477d85d",
    "getSellPriceAfterFee(uint256,uint256)": "cd9c7121",
    "getShareBalance(uint256,address)": "0391f64c",
    "getShareInfo(uint256)": "1d92d3b9",
    "increaseAllowance(address,uint256)": "39509351",
    "lastTimeRewardApplicable()": "80faa57d",
    "maxSupply()": "d5abeb01",
    "name()": "06fdde03",
    "openInterest()": "fa5a2e62",
    "owner()": "8da5cb5b",
    "protocolFeeDestination()": "4ce7957c",
    "protocolFeePercent()": "d6e6eb9f",
    "renounceOwnership()": "715018a6",
    "rewardPerEthStored()": "d4d83ec4",
    "rewardPerToken()": "cd3daf9d",
    "rewards(address)": "0700037d",
    "rewardsToken()": "d1af0c7d",
    "sellShare(uint256,uint256)": "0519e975",
    "setProtocolFeeDestination(address)": "a10786b0",
    "setProtocolFeePercent(uint256)": "a4983421",
    "shareInfo(uint256)": "adacd487",
    "startTime()": "78e97925",
    "symbol()": "95d89b41",
    "tokensRemaining()": "c8b08125",
    "totalSupply()": "18160ddd",
    "transfer(address,uint256)": "a9059cbb",
    "transferFrom(address,address,uint256)": "23b872dd",
    "transferOwnership(address)": "f2fde38b",
    "updatedAt()": "7519ab50",
    "uri(uint256)": "0e89341c",
    "userEthContributed(address)": "061cd069",
    "userRewardPerEthPaid(address)": "96411538"
  },
  "id": 23
}