{
  "abi": [
    {
      "inputs": [
        {
          "internalType": "address",
          "name": "_protocolFeeDestination",
          "type": "address"
        },
        {
          "internalType": "uint256",
          "name": "_protocolFeePercent",
          "type": "uint256"
        }
      ],
      "stateMutability": "nonpayable",
      "type": "constructor"
    },
    {
      "anonymous": false,
      "inputs": [
        {
          "indexed": true,
          "internalType": "address",
          "name": "owner",
          "type": "address"
        },
        {
          "indexed": true,
          "internalType": "address",
          "name": "spender",
          "type": "address"
        },
        {
          "indexed": false,
          "internalType": "uint256",
          "name": "value",
          "type": "uint256"
        }
      ],
      "name": "Approval",
      "type": "event"
    },
    {
      "anonymous": false,
      "inputs": [
        {
          "indexed": true,
          "internalType": "address",
          "name": "previousOwner",
          "type": "address"
        },
        {
          "indexed": true,
          "internalType": "address",
          "name": "newOwner",
          "type": "address"
        }
      ],
      "name": "OwnershipTransferred",
      "type": "event"
    },
    {
      "anonymous": false,
      "inputs": [
        {
          "indexed": true,
          "internalType": "address",
          "name": "owner",
          "type": "address"
        },
        {
          "indexed": true,
          "internalType": "uint256",
          "name": "id",
          "type": "uint256"
        }
      ],
      "name": "ShareCreated",
      "type": "event"
    },
    {
      "anonymous": false,
      "inputs": [
        {
          "indexed": false,
          "internalType": "uint256",
          "name": "id",
          "type": "uint256"
        },
        {
          "indexed": false,
          "internalType": "uint256",
          "name": "side",
          "type": "uint256"
        },
        {
          "indexed": false,
          "internalType": "address",
          "name": "trader",
          "type": "address"
        },
        {
          "indexed": false,
          "internalType": "address",
          "name": "owner",
          "type": "address"
        },
        {
          "indexed": false,
          "internalType": "uint256",
          "name": "amount",
          "type": "uint256"
        },
        {
          "indexed": false,
          "internalType": "uint256",
          "name": "price",
          "type": "uint256"
        },
        {
          "indexed": false,
          "internalType": "uint256",
          "name": "supply",
          "type": "uint256"
        }
      ],
      "name": "Trade",
      "type": "event"
    },
    {
      "anonymous": false,
      "inputs": [
        {
          "indexed": true,
          "internalType": "address",
          "name": "from",
          "type": "address"
        },
        {
          "indexed": true,
          "internalType": "address",
          "name": "to",
          "type": "address"
        },
        {
          "indexed": false,
          "internalType": "uint256",
          "name": "value",
          "type": "uint256"
        }
      ],
      "name": "Transfer",
      "type": "event"
    },
    {
      "inputs": [
        {
          "internalType": "address",
          "name": "owner",
          "type": "address"
        },
        {
          "internalType": "address",
          "name": "spender",
          "type": "address"
        }
      ],
      "name": "allowance",
      "outputs": [
        {
          "internalType": "uint256",
          "name": "",
          "type": "uint256"
        }
      ],
      "stateMutability": "view",
      "type": "function"
    },
    {
      "inputs": [
        {
          "internalType": "address",
          "name": "spender",
          "type": "address"
        },
        {
          "internalType": "uint256",
          "name": "amount",
          "type": "uint256"
        }
      ],
      "name": "approve",
      "outputs": [
        {
          "internalType": "bool",
          "name": "",
          "type": "bool"
        }
      ],
      "stateMutability": "nonpayable",
      "type": "function"
    },
    {
      "inputs": [
        {
          "internalType": "address",
          "name": "account",
          "type": "address"
        }
      ],
      "name": "balanceOf",
      "outputs": [
        {
          "internalType": "uint256",
          "name": "",
          "type": "uint256"
        }
      ],
      "stateMutability": "view",
      "type": "function"
    },
    {
      "inputs": [
        {
          "internalType": "uint256",
          "name": "id",
          "type": "uint256"
        },
        {
          "internalType": "uint256",
          "name": "amount",
          "type": "uint256"
        }
      ],
      "name": "buyShare",
      "outputs": [],
      "stateMutability": "payable",
      "type": "function"
    },
    {
      "inputs": [
        {
          "internalType": "string",
          "name": "_uri",
          "type": "string"
        }
      ],
      "name": "createShare",
      "outputs": [],
      "stateMutability": "nonpayable",
      "type": "function"
    },
    {
      "inputs": [],
      "name": "currentId",
      "outputs": [
        {
          "internalType": "uint256",
          "name": "",
          "type": "uint256"
        }
      ],
      "stateMutability": "view",
      "type": "function"
    },
    {
      "inputs": [],
      "name": "decimals",
      "outputs": [
        {
          "internalType": "uint8",
          "name": "",
          "type": "uint8"
        }
      ],
      "stateMutability": "view",
      "type": "function"
    },
    {
      "inputs": [
        {
          "internalType": "address",
          "name": "spender",
          "type": "address"
        },
        {
          "internalType": "uint256",
          "name": "subtractedValue",
          "type": "uint256"
        }
      ],
      "name": "decreaseAllowance",
      "outputs": [
        {
          "internalType": "bool",
          "name": "",
          "type": "bool"
        }
      ],
      "stateMutability": "nonpayable",
      "type": "function"
    },
    {
      "inputs": [
        {
          "internalType": "address",
          "name": "_account",
          "type": "address"
        }
      ],
      "name": "earned",
      "outputs": [
        {
          "internalType": "uint256",
          "name": "",
          "type": "uint256"
        }
      ],
      "stateMutability": "view",
      "type": "function"
    },
    {
      "inputs": [
        {
          "internalType": "uint256",
          "name": "id",
          "type": "uint256"
        },
        {
          "internalType": "string",
          "name": "_uri",
          "type": "string"
        }
      ],
      "name": "editUri",
      "outputs": [],
      "stateMutability": "nonpayable",
      "type": "function"
    },
    {
      "inputs": [
        {
          "internalType": "uint256",
          "name": "",
          "type": "uint256"
        }
      ],
      "name": "epoch",
      "outputs": [
        {
          "internalType": "uint256",
          "name": "",
          "type": "uint256"
        }
      ],
      "stateMutability": "view",
      "type": "function"
    },
    {
      "inputs": [],
      "name": "finishAt",
      "outputs": [
        {
          "internalType": "uint256",
          "name": "",
          "type": "uint256"
        }
      ],
      "stateMutability": "view",
      "type": "function"
    },
    {
      "inputs": [
        {
          "internalType": "uint256",
          "name": "id",
          "type": "uint256"
        },
        {
          "internalType": "uint256",
          "name": "amount",
          "type": "uint256"
        }
      ],
      "name": "getBuyPrice",
      "outputs": [
        {
          "internalType": "uint256",
          "name": "",
          "type": "uint256"
        }
      ],
      "stateMutability": "view",
      "type": "function"
    },
    {
      "inputs": [
        {
          "internalType": "uint256",
          "name": "id",
          "type": "uint256"
        },
        {
          "internalType": "uint256",
          "name": "amount",
          "type": "uint256"
        }
      ],
      "name": "getBuyPriceAfterFee",
      "outputs": [
        {
          "internalType": "uint256",
          "name": "",
          "type": "uint256"
        }
      ],
      "stateMutability": "view",
      "type": "function"
    },
    {
      "inputs": [
        {
          "internalType": "uint256",
          "name": "supply",
          "type": "uint256"
        },
        {
          "internalType": "uint256",
          "name": "amount",
          "type": "uint256"
        }
      ],
      "name": "getPrice",
      "outputs": [
        {
          "internalType": "uint256",
          "name": "",
          "type": "uint256"
        }
      ],
      "stateMutability": "pure",
      "type": "function"
    },
    {
      "inputs": [
        {
          "internalType": "uint256",
          "name": "currentTime",
          "type": "uint256"
        }
      ],
      "name": "getRate",
      "outputs": [
        {
          "internalType": "uint256",
          "name": "",
          "type": "uint256"
        }
      ],
      "stateMutability": "view",
      "type": "function"
    },
    {
      "inputs": [],
      "name": "getReward",
      "outputs": [],
      "stateMutability": "nonpayable",
      "type": "function"
    },
    {
      "inputs": [
        {
          "internalType": "uint256",
          "name": "id",
          "type": "uint256"
        },
        {
          "internalType": "uint256",
          "name": "amount",
          "type": "uint256"
        }
      ],
      "name": "getSellPrice",
      "outputs": [
        {
          "internalType": "uint256",
          "name": "",
          "type": "uint256"
        }
      ],
      "stateMutability": "view",
      "type": "function"
    },
    {
      "inputs": [
        {
          "internalType": "uint256",
          "name": "id",
          "type": "uint256"
        },
        {
          "internalType": "uint256",
          "name": "amount",
          "type": "uint256"
        }
      ],
      "name": "getSellPriceAfterFee",
      "outputs": [
        {
          "internalType": "uint256",
          "name": "",
          "type": "uint256"
        }
      ],
      "stateMutability": "view",
      "type": "function"
    },
    {
      "inputs": [
        {
          "internalType": "uint256",
          "name": "id",
          "type": "uint256"
        },
        {
          "internalType": "address",
          "name": "user",
          "type": "address"
        }
      ],
      "name": "getShareBalance",
      "outputs": [
        {
          "internalType": "uint256",
          "name": "",
          "type": "uint256"
        }
      ],
      "stateMutability": "view",
      "type": "function"
    },
    {
      "inputs": [
        {
          "internalType": "uint256",
          "name": "id",
          "type": "uint256"
        }
      ],
      "name": "getShareInfo",
      "outputs": [
        {
          "internalType": "address",
          "name": "_owner",
          "type": "address"
        },
        {
          "internalType": "uint256",
          "name": "_totalSupply",
          "type": "uint256"
        },
        {
          "internalType": "string",
          "name": "_uri",
          "type": "string"
        }
      ],
      "stateMutability": "view",
      "type": "function"
    },
    {
      "inputs": [
        {
          "internalType": "address",
          "name": "spender",
          "type": "address"
        },
        {
          "internalType": "uint256",
          "name": "addedValue",
          "type": "uint256"
        }
      ],
      "name": "increaseAllowance",
      "outputs": [
        {
          "internalType": "bool",
          "name": "",
          "type": "bool"
        }
      ],
      "stateMutability": "nonpayable",
      "type": "function"
    },
    {
      "inputs": [],
      "name": "lastTimeRewardApplicable",
      "outputs": [
        {
          "internalType": "uint256",
          "name": "",
          "type": "uint256"
        }
      ],
      "stateMutability": "view",
      "type": "function"
    },
    {
      "inputs": [],
      "name": "maxSupply",
      "outputs": [
        {
          "internalType": "uint256",
          "name": "",
          "type": "uint256"
        }
      ],
      "stateMutability": "view",
      "type": "function"
    },
    {
      "inputs": [],
      "name": "name",
      "outputs": [
        {
          "internalType": "string",
          "name": "",
          "type": "string"
        }
      ],
      "stateMutability": "view",
      "type": "function"
    },
    {
      "inputs": [],
      "name": "openInterest",
      "outputs": [
        {
          "internalType": "uint256",
          "name": "",
          "type": "uint256"
        }
      ],
      "stateMutability": "view",
      "type": "function"
    },
    {
      "inputs": [],
      "name": "owner",
      "outputs": [
        {
          "internalType": "address",
          "name": "",
          "type": "address"
        }
      ],
      "stateMutability": "view",
      "type": "function"
    },
    {
      "inputs": [],
      "name": "protocolFeeDestination",
      "outputs": [
        {
          "internalType": "address",
          "name": "",
          "type": "address"
        }
      ],
      "stateMutability": "view",
      "type": "function"
    },
    {
      "inputs": [],
      "name": "protocolFeePercent",
      "outputs": [
        {
          "internalType": "uint256",
          "name": "",
          "type": "uint256"
        }
      ],
      "stateMutability": "view",
      "type": "function"
    },
    {
      "inputs": [],
      "name": "renounceOwnership",
      "outputs": [],
      "stateMutability": "nonpayable",
      "type": "function"
    },
    {
      "inputs": [],
      "name": "rewardPerEthStored",
      "outputs": [
        {
          "internalType": "uint256",
          "name": "",
          "type": "uint256"
        }
      ],
      "stateMutability": "view",
      "type": "function"
    },
    {
      "inputs": [],
      "name": "rewardPerToken",
      "outputs": [
        {
          "internalType": "uint256",
          "name": "",
          "type": "uint256"
        }
      ],
      "stateMutability": "view",
      "type": "function"
    },
    {
      "inputs": [
        {
          "internalType": "address",
          "name": "",
          "type": "address"
        }
      ],
      "name": "rewards",
      "outputs": [
        {
          "internalType": "uint256",
          "name": "",
          "type": "uint256"
        }
      ],
      "stateMutability": "view",
      "type": "function"
    },
    {
      "inputs": [],
      "name": "rewardsToken",
      "outputs": [
        {
          "internalType": "contract IERC20",
          "name": "",
          "type": "address"
        }
      ],
      "stateMutability": "view",
      "type": "function"
    },
    {
      "inputs": [
        {
          "internalType": "uint256",
          "name": "id",
          "type": "uint256"
        },
        {
          "internalType": "uint256",
          "name": "amount",
          "type": "uint256"
        }
      ],
      "name": "sellShare",
      "outputs": [],
      "stateMutability": "nonpayable",
      "type": "function"
    },
    {
      "inputs": [
        {
          "internalType": "address",
          "name": "_protocolFeeDestination",
          "type": "address"
        }
      ],
      "name": "setProtocolFeeDestination",
      "outputs": [],
      "stateMutability": "nonpayable",
      "type": "function"
    },
    {
      "inputs": [
        {
          "internalType": "uint256",
          "name": "_protocolFeePercent",
          "type": "uint256"
        }
      ],
      "name": "setProtocolFeePercent",
      "outputs": [],
      "stateMutability": "nonpayable",
      "type": "function"
    },
    {
      "inputs": [
        {
          "internalType": "uint256",
          "name": "",
          "type": "uint256"
        }
      ],
      "name": "shareInfo",
      "outputs": [
        {
          "internalType": "address",
          "name": "owner",
          "type": "address"
        },
        {
          "internalType": "uint256",
          "name": "totalSupply",
          "type": "uint256"
        },
        {
          "internalType": "string",
          "name": "uri",
          "type": "string"
        }
      ],
      "stateMutability": "view",
      "type": "function"
    },
    {
      "inputs": [],
      "name": "startTime",
      "outputs": [
        {
          "internalType": "uint256",
          "name": "",
          "type": "uint256"
        }
      ],
      "stateMutability": "view",
      "type": "function"
    },
    {
      "inputs": [],
      "name": "symbol",
      "outputs": [
        {
          "internalType": "string",
          "name": "",
          "type": "string"
        }
      ],
      "stateMutability": "view",
      "type": "function"
    },
    {
      "inputs": [],
      "name": "totalSupply",
      "outputs": [
        {
          "internalType": "uint256",
          "name": "",
          "type": "uint256"
        }
      ],
      "stateMutability": "view",
      "type": "function"
    },
    {
      "inputs": [
        {
          "internalType": "address",
          "name": "to",
          "type": "address"
        },
        {
          "internalType": "uint256",
          "name": "amount",
          "type": "uint256"
        }
      ],
      "name": "transfer",
      "outputs": [
        {
          "internalType": "bool",
          "name": "",
          "type": "bool"
        }
      ],
      "stateMutability": "nonpayable",
      "type": "function"
    },
    {
      "inputs": [
        {
          "internalType": "address",
          "name": "from",
          "type": "address"
        },
        {
          "internalType": "address",
          "name": "to",
          "type": "address"
        },
        {
          "internalType": "uint256",
          "name": "amount",
          "type": "uint256"
        }
      ],
      "name": "transferFrom",
      "outputs": [
        {
          "internalType": "bool",
          "name": "",
          "type": "bool"
        }
      ],
      "stateMutability": "nonpayable",
      "type": "function"
    },
    {
      "inputs": [
        {
          "internalType": "address",
          "name": "newOwner",
          "type": "address"
        }
      ],
      "name": "transferOwnership",
      "outputs": [],
      "stateMutability": "nonpayable",
      "type": "function"
    },
    {
      "inputs": [],
      "name": "updatedAt",
      "outputs": [
        {
          "internalType": "uint256",
          "name": "",
          "type": "uint256"
        }
      ],
      "stateMutability": "view",
      "type": "function"
    },
    {
      "inputs": [
        {
          "internalType": "uint256",
          "name": "id",
          "type": "uint256"
        }
      ],
      "name": "uri",
      "outputs": [
        {
          "internalType": "string",
          "name": "",
          "type": "string"
        }
      ],
      "stateMutability": "view",
      "type": "function"
    },
    {
      "inputs": [
        {
          "internalType": "address",
          "name": "",
          "type": "address"
        }
      ],
      "name": "userEthContributed",
      "outputs": [
        {
          "internalType": "uint256",
          "name": "",
          "type": "uint256"
        }
      ],
      "stateMutability": "view",
      "type": "function"
    },
    {
      "inputs": [
        {
          "internalType": "address",
          "name": "",
          "type": "address"
        }
      ],
      "name": "userRewardPerEthPaid",
      "outputs": [
        {
          "internalType": "uint256",
          "name": "",
          "type": "uint256"
        }
      ],
      "stateMutability": "view",
      "type": "function"
    }
  ],
  "bytecode": {
    "object": "0x60006008556b204fce5e3e250261100000006011556101606040526b0cecb8f27f4200f3a000000060a09081526b052b7d2dcc80cd2e4000000060c0526b033b2e3c9fd0803ce800000060e0526b01f04ef12cb04cf158000000610100526b015b6a759f4835dc24000000610120526b013a542146f830bafc000000610140526200008f906013906006620002bb565b503480156200009d57600080fd5b50604051620028ac380380620028ac833981016040819052620000c0916200032d565b6040518060400160405280600681526020016510dd5c9d995960d21b8152506040518060400160405280600681526020016510d55495915160d21b81525062000118620001126200019a60201b60201c565b6200019e565b60046200012683826200040d565b5060056200013582826200040d565b5050600680546001600160a01b0319166001600160a01b038516179055506007819055426009819055600b8190556200017390630b488680620004d9565b600a553060805262000192336b06765c793fa10079d0000000620001ee565b505062000501565b3390565b600080546001600160a01b038381166001600160a01b0319831681178455604051919092169283917f8be0079c531659141344cd1fd0a4f28419497f9722a3daafe3b4186f6b6457e09190a35050565b6001600160a01b038216620002495760405162461bcd60e51b815260206004820152601f60248201527f45524332303a206d696e7420746f20746865207a65726f206164647265737300604482015260640160405180910390fd5b80600360008282546200025d9190620004d9565b90915550506001600160a01b0382166000818152600160209081526040808320805486019055518481527fddf252ad1be2c89b69c2b068fc378daa952ba7f163c4a11628f55a4df523b3ef910160405180910390a35050565b505050565b82805482825590600052602060002090810192821562000304579160200282015b828111156200030457825182906001600160601b0316905591602001919060010190620002dc565b506200031292915062000316565b5090565b5b8082111562000312576000815560010162000317565b600080604083850312156200034157600080fd5b82516001600160a01b03811681146200035957600080fd5b6020939093015192949293505050565b634e487b7160e01b600052604160045260246000fd5b600181811c908216806200039457607f821691505b602082108103620003b557634e487b7160e01b600052602260045260246000fd5b50919050565b601f821115620002b657600081815260208120601f850160051c81016020861015620003e45750805b601f850160051c820191505b818110156200040557828155600101620003f0565b505050505050565b81516001600160401b0381111562000429576200042962000369565b62000441816200043a84546200037f565b84620003bb565b602080601f831160018114620004795760008415620004605750858301515b600019600386901b1c1916600185901b17855562000405565b600085815260208120601f198616915b82811015620004aa5788860151825594840194600190910190840162000489565b5085821015620004c95787850151600019600388901b60f8161c191681555b5050505050600190811b01905550565b80820180821115620004fb57634e487b7160e01b600052601160045260246000fd5b92915050565b60805161238f6200051d60003960006107c1015261238f6000f3fe6080604052600436106102925760003560e01c80637519ab501161015a578063adacd487116100c1578063d5abeb011161007a578063d5abeb01146107f9578063d6e6eb9f1461080f578063dd62ed3e14610825578063e00dd16114610845578063f2fde38b1461085b578063fa5a2e621461087b57600080fd5b8063adacd4871461073a578063c157253d1461075a578063cd3daf9d1461077a578063cd9c71211461078f578063d1af0c7d146107af578063d4d83ec4146107e357600080fd5b80639641153811610113578063964115381461067a578063a10786b0146106a7578063a457c2d7146106c7578063a4983421146106e7578063a9059cbb14610707578063aca75a521461072757600080fd5b80637519ab50146105e657806378e97925146105fc57806380faa57d146106125780638da5cb5b146106275780639477d85d1461064557806395d89b411461066557600080fd5b80632e3de7a5116101fe5780635487c577116101b75780635487c5771461052557806357764094146105455780635cf4ee911461056557806367d3b4881461058557806370a082311461059b578063715018a6146105d157600080fd5b80632e3de7a51461045c578063313ce5671461047c57806339509351146104985780633d18b912146104b85780634bcc7d7d146104cd5780634ce7957c146104ed57600080fd5b80630700037d116102505780630700037d1461037b578063095ea7b3146103a85780630e89341c146103d857806318160ddd146103f85780631d92d3b91461040d57806323b872dd1461043c57600080fd5b80628cc262146102975780630391f64c146102ca5780630519e975146102ea578063061cd0691461030c578063063a741f1461033957806306fdde0314610359575b600080fd5b3480156102a357600080fd5b506102b76102b2366004611e87565b610891565b6040519081526020015b60405180910390f35b3480156102d657600080fd5b506102b76102e5366004611ea2565b61090e565b3480156102f657600080fd5b5061030a610305366004611ece565b610967565b005b34801561031857600080fd5b506102b7610327366004611e87565b60106020526000908152604090205481565b34801561034557600080fd5b506102b7610354366004611ece565b610c49565b34801561036557600080fd5b5061036e610cb2565b6040516102c19190611f36565b34801561038757600080fd5b506102b7610396366004611e87565b600e6020526000908152604090205481565b3480156103b457600080fd5b506103c86103c3366004611f49565b610d44565b60405190151581526020016102c1565b3480156103e457600080fd5b5061036e6103f3366004611f73565b610d5c565b34801561040457600080fd5b506003546102b7565b34801561041957600080fd5b5061042d610428366004611f73565b610e20565b6040516102c193929190611f8c565b34801561044857600080fd5b506103c8610457366004611fb3565b610f06565b34801561046857600080fd5b5061030a610477366004612038565b610f2a565b34801561048857600080fd5b50604051601281526020016102c1565b3480156104a457600080fd5b506103c86104b3366004611f49565b610fe2565b3480156104c457600080fd5b5061030a611004565b3480156104d957600080fd5b5061030a6104e836600461207a565b6110e6565b3480156104f957600080fd5b5060065461050d906001600160a01b031681565b6040516001600160a01b0390911681526020016102c1565b34801561053157600080fd5b506102b7610540366004611f73565b61118f565b34801561055157600080fd5b506102b7610560366004611f73565b6111b0565b34801561057157600080fd5b506102b7610580366004611ece565b6112ca565b34801561059157600080fd5b506102b7600a5481565b3480156105a757600080fd5b506102b76105b6366004611e87565b6001600160a01b031660009081526001602052604090205490565b3480156105dd57600080fd5b5061030a6113eb565b3480156105f257600080fd5b506102b7600b5481565b34801561060857600080fd5b506102b760095481565b34801561061e57600080fd5b506102b76113ff565b34801561063357600080fd5b506000546001600160a01b031661050d565b34801561065157600080fd5b506102b7610660366004611ece565b611412565b34801561067157600080fd5b5061036e61145c565b34801561068657600080fd5b506102b7610695366004611e87565b600d6020526000908152604090205481565b3480156106b357600080fd5b5061030a6106c2366004611e87565b61146b565b3480156106d357600080fd5b506103c86106e2366004611f49565b611495565b3480156106f357600080fd5b5061030a610702366004611f73565b611510565b34801561071357600080fd5b506103c8610722366004611f49565b61151d565b61030a610735366004611ece565b61152b565b34801561074657600080fd5b5061042d610755366004611f73565b611742565b34801561076657600080fd5b506102b7610775366004611ece565b6117f7565b34801561078657600080fd5b506102b7611836565b34801561079b57600080fd5b506102b76107aa366004611ece565b61189d565b3480156107bb57600080fd5b5061050d7f000000000000000000000000000000000000000000000000000000000000000081565b3480156107ef57600080fd5b506102b7600c5481565b34801561080557600080fd5b506102b760115481565b34801561081b57600080fd5b506102b760075481565b34801561083157600080fd5b506102b76108403660046120c6565b6118fd565b34801561085157600080fd5b506102b760085481565b34801561086757600080fd5b5061030a610876366004611e87565b611928565b34801561088757600080fd5b506102b7600f5481565b6001600160a01b0381166000908152600e6020908152604080832054600d909252822054670de0b6b3a7640000906108c7611836565b6108d19190612106565b6001600160a01b0385166000908152601060205260409020546108f49190612119565b6108fe9190612130565b6109089190612152565b92915050565b6000600854831061093a5760405162461bcd60e51b815260040161093190612165565b60405180910390fd5b5060008281526012602090815260408083206001600160a01b038516845260010190915290205492915050565b60085482106109885760405162461bcd60e51b815260040161093190612165565b60008281526012602090815260408083206002810154338552600182019093529220548311156109fa5760405162461bcd60e51b815260206004820152601a60248201527f496e73756666696369656e742073686172652062616c616e63650000000000006044820152606401610931565b6000838360020154610a0c9190612106565b11610a715760405162461bcd60e51b815260206004820152602f60248201527f43616e6e6f742073656c6c20616c6c207368617265732c206d757374206c656160448201526e7665206174206c65617374206f6e6560881b6064820152608401610931565b6000610a86610a808584612106565b856112ca565b336000908152601060205260409020549091508110610ab45733600090815260106020526040812055610ae0565b33600090815260106020526040902054610acf908290612106565b336000908152601060205260409020555b80600f54610aee9190612106565b600f55600754600090670de0b6b3a764000090610b0b9084612119565b610b159190612130565b336000908152600186016020526040902054909150610b35908690612106565b336000908152600186016020526040902055610b518584612106565b600285015583546040517f09a786993c2becc8264c2a90ccc09ca6a571883f97635cc26ed418876b3bdb0a91610b9d91899160019133916001600160a01b0316908b9089908b9061218f565b60405180910390a1600033610bb28385612106565b6040515b60006040518083038185875af1925050503d8060008114610bf3576040519150601f19603f3d011682016040523d82523d6000602084013e610bf8565b606091505b5050905080610c405760405162461bcd60e51b8152602060048201526014602482015273556e61626c6520746f2073656e642066756e647360601b6044820152606401610931565b50505050505050565b60006008548310610c6c5760405162461bcd60e51b815260040161093190612165565b6000610c7884846117f7565b90506000670de0b6b3a764000060075483610c939190612119565b610c9d9190612130565b9050610ca98183612152565b95945050505050565b606060048054610cc1906121cb565b80601f0160208091040260200160405190810160405280929190818152602001828054610ced906121cb565b8015610d3a5780601f10610d0f57610100808354040283529160200191610d3a565b820191906000526020600020905b815481529060010190602001808311610d1d57829003601f168201915b5050505050905090565b600033610d528185856119a1565b5060019392505050565b60606008548210610d7f5760405162461bcd60e51b815260040161093190612165565b60008281526012602052604090206003018054610d9b906121cb565b80601f0160208091040260200160405190810160405280929190818152602001828054610dc7906121cb565b8015610e145780601f10610de957610100808354040283529160200191610e14565b820191906000526020600020905b815481529060010190602001808311610df757829003601f168201915b50505050509050919050565b60008060606008548410610e465760405162461bcd60e51b815260040161093190612165565b6000848152601260205260409020805460028201546003830180546001600160a01b03909316928190610e78906121cb565b80601f0160208091040260200160405190810160405280929190818152602001828054610ea4906121cb565b8015610ef15780601f10610ec657610100808354040283529160200191610ef1565b820191906000526020600020905b815481529060010190602001808311610ed457829003601f168201915b50505050509050935093509350509193909250565b600033610f14858285611ac5565b610f1f858585611b39565b506001949350505050565b60088054600090815260126020818152604080842080546001600160a01b0319163390811790915585548552818520908552600190810183528185208190558554855292909152808320600201919091559154815220600301610f8e828483612269565b5060088054906000610f9f8361232a565b91905055506001600854610fb39190612106565b60405133907f335b5487495f05d92d4db67accd7283d32ffa24a7eb1d604889b384e4888376290600090a35050565b600033610d52818585610ff583836118fd565b610fff9190612152565b6119a1565b3361100d611836565b600c556110186113ff565b600b556001600160a01b0381161561105f5761103381610891565b6001600160a01b0382166000908152600e6020908152604080832093909355600c54600d909152919020555b336000908152600e602052604090205460115460035461107f9083612152565b11156110c25760405162461bcd60e51b815260206004820152601260248201527113585e081cdd5c1c1b1e481c995858da195960721b6044820152606401610931565b80156110e257336000818152600e60205260408120556110e29082611ce4565b5050565b60085483106111075760405162461bcd60e51b815260040161093190612165565b6000838152601260205260409020546001600160a01b0316331461116d5760405162461bcd60e51b815260206004820152601760248201527f4f6e6c7920746865206f776e65722063616e20656469740000000000000000006044820152606401610931565b6000838152601260205260409020600301611189828483612269565b50505050565b6013818154811061119f57600080fd5b600091825260209091200154905081565b600080600954836111c19190612106565b905060006301dfe200821015611206576301dfe20060136000815481106111ea576111ea612343565b90600052602060002001546111ff9190612130565b90506112c3565b6303bfc40082101561122b576301dfe20060136001815481106111ea576111ea612343565b63059fa600821015611250576301dfe20060136002815481106111ea576111ea612343565b63077f8800821015611275576301dfe20060136003815481106111ea576111ea612343565b63095f6a0082101561129a576301dfe20060136004815481106111ea576111ea612343565b630b3f4c008210156112bf576301dfe20060136005815481106111ea576111ea612343565b5060005b9392505050565b60008083156113255760066112e0600186612106565b6112eb906002612119565b6112f6906001612152565b85611302600182612106565b61130c9190612119565b6113169190612119565b6113209190612130565b611328565b60005b905060008415801561133a5750836001145b6113af5760068461134c600188612106565b6113569190612152565b611361906002612119565b61136c906001612152565b6113768688612152565b8661138260018a612106565b61138c9190612152565b6113969190612119565b6113a09190612119565b6113aa9190612130565b6113b2565b60005b905060006113c08383612106565b9050610fa06113d782670de0b6b3a7640000612119565b6113e19190612130565b9695505050505050565b6113f3611da5565b6113fd6000611dff565b565b600061140d600a5442611e4f565b905090565b600060085483106114355760405162461bcd60e51b815260040161093190612165565b6000838152601260205260409020600201546112c390611456908490612106565b836112ca565b606060058054610cc1906121cb565b611473611da5565b600680546001600160a01b0319166001600160a01b0392909216919091179055565b600033816114a382866118fd565b9050838110156115035760405162461bcd60e51b815260206004820152602560248201527f45524332303a2064656372656173656420616c6c6f77616e63652062656c6f77604482015264207a65726f60d81b6064820152608401610931565b610f1f82868684036119a1565b611518611da5565b600755565b600033610d52818585611b39565b600854821061154c5760405162461bcd60e51b815260040161093190612165565b6000828152601260205260409020600281015480151580611576575081546001600160a01b031633145b6115da5760405162461bcd60e51b815260206004820152602f60248201527f4f6e6c792074686520736861726573207375626a6563742063616e206275792060448201526e74686520666972737420736861726560881b6064820152608401610931565b60006115e682856112ca565b33600090815260106020526040902054909150611604908290612152565b33600090815260106020526040902055600f54611622908290612152565b600f55600754600090670de0b6b3a76400009061163f9084612119565b6116499190612130565b90506116558183612152565b34101561169b5760405162461bcd60e51b8152602060048201526014602482015273125b9cdd59999a58da595b9d081c185e5b595b9d60621b6044820152606401610931565b3360009081526001850160205260409020546116b8908690612152565b3360009081526001860160205260409020556116d48584612152565b600285015583546040517f09a786993c2becc8264c2a90ccc09ca6a571883f97635cc26ed418876b3bdb0a9161172091899160009133916001600160a01b0316908b9089908b9061218f565b60405180910390a16006546040516000916001600160a01b0316908390610bb6565b6012602052600090815260409020805460028201546003830180546001600160a01b03909316939192611774906121cb565b80601f01602080910402602001604051908101604052809291908181526020018280546117a0906121cb565b80156117ed5780601f106117c2576101008083540402835291602001916117ed565b820191906000526020600020905b8154815290600101906020018083116117d057829003601f168201915b5050505050905083565b6000600854831061181a5760405162461bcd60e51b815260040161093190612165565b6000838152601260205260409020600201546112c390836112ca565b6000600f546000036118495750600c5490565b600f54600b546118576113ff565b6118619190612106565b61186a426111b0565b6118749190612119565b61188690670de0b6b3a7640000612119565b6118909190612130565b600c5461140d9190612152565b600060085483106118c05760405162461bcd60e51b815260040161093190612165565b60006118cc8484611412565b90506000670de0b6b3a7640000600754836118e79190612119565b6118f19190612130565b9050610ca98183612106565b6001600160a01b03918216600090815260026020908152604080832093909416825291909152205490565b611930611da5565b6001600160a01b0381166119955760405162461bcd60e51b815260206004820152602660248201527f4f776e61626c653a206e6577206f776e657220697320746865207a65726f206160448201526564647265737360d01b6064820152608401610931565b61199e81611dff565b50565b6001600160a01b038316611a035760405162461bcd60e51b8152602060048201526024808201527f45524332303a20617070726f76652066726f6d20746865207a65726f206164646044820152637265737360e01b6064820152608401610931565b6001600160a01b038216611a645760405162461bcd60e51b815260206004820152602260248201527f45524332303a20617070726f766520746f20746865207a65726f206164647265604482015261737360f01b6064820152608401610931565b6001600160a01b0383811660008181526002602090815260408083209487168084529482529182902085905590518481527f8c5be1e5ebec7d5bd14f71427d1e84f3dd0314c0f7b2291e5b200ac8c7c3b925910160405180910390a3505050565b6000611ad184846118fd565b905060001981146111895781811015611b2c5760405162461bcd60e51b815260206004820152601d60248201527f45524332303a20696e73756666696369656e7420616c6c6f77616e63650000006044820152606401610931565b61118984848484036119a1565b6001600160a01b038316611b9d5760405162461bcd60e51b815260206004820152602560248201527f45524332303a207472616e736665722066726f6d20746865207a65726f206164604482015264647265737360d81b6064820152608401610931565b6001600160a01b038216611bff5760405162461bcd60e51b815260206004820152602360248201527f45524332303a207472616e7366657220746f20746865207a65726f206164647260448201526265737360e81b6064820152608401610931565b6001600160a01b03831660009081526001602052604090205481811015611c775760405162461bcd60e51b815260206004820152602660248201527f45524332303a207472616e7366657220616d6f756e7420657863656564732062604482015265616c616e636560d01b6064820152608401610931565b6001600160a01b0380851660008181526001602052604080822086860390559286168082529083902080548601905591517fddf252ad1be2c89b69c2b068fc378daa952ba7f163c4a11628f55a4df523b3ef90611cd79086815260200190565b60405180910390a3611189565b6001600160a01b038216611d3a5760405162461bcd60e51b815260206004820152601f60248201527f45524332303a206d696e7420746f20746865207a65726f2061646472657373006044820152606401610931565b8060036000828254611d4c9190612152565b90915550506001600160a01b0382166000818152600160209081526040808320805486019055518481527fddf252ad1be2c89b69c2b068fc378daa952ba7f163c4a11628f55a4df523b3ef910160405180910390a35050565b6000546001600160a01b031633146113fd5760405162461bcd60e51b815260206004820181905260248201527f4f776e61626c653a2063616c6c6572206973206e6f7420746865206f776e65726044820152606401610931565b600080546001600160a01b038381166001600160a01b0319831681178455604051919092169283917f8be0079c531659141344cd1fd0a4f28419497f9722a3daafe3b4186f6b6457e09190a35050565b600081831115611e5f57816112c3565b5090919050565b505050565b80356001600160a01b0381168114611e8257600080fd5b919050565b600060208284031215611e9957600080fd5b6112c382611e6b565b60008060408385031215611eb557600080fd5b82359150611ec560208401611e6b565b90509250929050565b60008060408385031215611ee157600080fd5b50508035926020909101359150565b6000815180845260005b81811015611f1657602081850181015186830182015201611efa565b506000602082860101526020601f19601f83011685010191505092915050565b6020815260006112c36020830184611ef0565b60008060408385031215611f5c57600080fd5b611f6583611e6b565b946020939093013593505050565b600060208284031215611f8557600080fd5b5035919050565b60018060a01b0384168152826020820152606060408201526000610ca96060830184611ef0565b600080600060608486031215611fc857600080fd5b611fd184611e6b565b9250611fdf60208501611e6b565b9150604084013590509250925092565b60008083601f84011261200157600080fd5b50813567ffffffffffffffff81111561201957600080fd5b60208301915083602082850101111561203157600080fd5b9250929050565b6000806020838503121561204b57600080fd5b823567ffffffffffffffff81111561206257600080fd5b61206e85828601611fef565b90969095509350505050565b60008060006040848603121561208f57600080fd5b83359250602084013567ffffffffffffffff8111156120ad57600080fd5b6120b986828701611fef565b9497909650939450505050565b600080604083850312156120d957600080fd5b6120e283611e6b565b9150611ec560208401611e6b565b634e487b7160e01b600052601160045260246000fd5b81810381811115610908576109086120f0565b8082028115828204841417610908576109086120f0565b60008261214d57634e487b7160e01b600052601260045260246000fd5b500490565b80820180821115610908576109086120f0565b60208082526010908201526f125b9d985b1a59081cda185c99481a5960821b604082015260600190565b96875260208701959095526001600160a01b039384166040870152919092166060850152608084019190915260a083015260c082015260e00190565b600181811c908216806121df57607f821691505b6020821081036121ff57634e487b7160e01b600052602260045260246000fd5b50919050565b634e487b7160e01b600052604160045260246000fd5b601f821115611e6657600081815260208120601f850160051c810160208610156122425750805b601f850160051c820191505b818110156122615782815560010161224e565b505050505050565b67ffffffffffffffff83111561228157612281612205565b6122958361228f83546121cb565b8361221b565b6000601f8411600181146122c957600085156122b15750838201355b600019600387901b1c1916600186901b178355612323565b600083815260209020601f19861690835b828110156122fa57868501358255602094850194600190920191016122da565b50868210156123175760001960f88860031b161c19848701351681555b505060018560011b0183555b5050505050565b60006001820161233c5761233c6120f0565b5060010190565b634e487b7160e01b600052603260045260246000fdfea2646970667358221220f9ee8a033d13443f534631411f5c7d7940c0e837d0fee1d382d0016af5d97fb564736f6c63430008150033",
    "linkReferences": {}
  },
  "methodIdentifiers": {
    "allowance(address,address)": "dd62ed3e",
    "approve(address,uint256)": "095ea7b3",
    "balanceOf(address)": "70a08231",
    "buyShare(uint256,uint256)": "aca75a52",
    "createShare(string)": "2e3de7a5",
    "currentId()": "e00dd161",
    "decimals()": "313ce567",
    "decreaseAllowance(address,uint256)": "a457c2d7",
    "earned(address)": "008cc262",
    "editUri(uint256,string)": "4bcc7d7d",
    "epoch(uint256)": "5487c577",
    "finishAt()": "67d3b488",
    "getBuyPrice(uint256,uint256)": "c157253d",
    "getBuyPriceAfterFee(uint256,uint256)": "063a741f",
    "getPrice(uint256,uint256)": "5cf4ee91",
    "getRate(uint256)": "57764094",
    "getReward()": "3d18b912",
    "getSellPrice(uint256,uint256)": "9477d85d",
    "getSellPriceAfterFee(uint256,uint256)": "cd9c7121",
    "getShareBalance(uint256,address)": "0391f64c",
    "getShareInfo(uint256)": "1d92d3b9",
    "increaseAllowance(address,uint256)": "39509351",
    "lastTimeRewardApplicable()": "80faa57d",
    "maxSupply()": "d5abeb01",
    "name()": "06fdde03",
    "openInterest()": "fa5a2e62",
    "owner()": "8da5cb5b",
    "protocolFeeDestination()": "4ce7957c",
    "protocolFeePercent()": "d6e6eb9f",
    "renounceOwnership()": "715018a6",
    "rewardPerEthStored()": "d4d83ec4",
    "rewardPerToken()": "cd3daf9d",
    "rewards(address)": "0700037d",
    "rewardsToken()": "d1af0c7d",
    "sellShare(uint256,uint256)": "0519e975",
    "setProtocolFeeDestination(address)": "a10786b0",
    "setProtocolFeePercent(uint256)": "a4983421",
    "shareInfo(uint256)": "adacd487",
    "startTime()": "78e97925",
    "symbol()": "95d89b41",
    "totalSupply()": "18160ddd",
    "transfer(address,uint256)": "a9059cbb",
    "transferFrom(address,address,uint256)": "23b872dd",
    "transferOwnership(address)": "f2fde38b",
    "updatedAt()": "7519ab50",
    "uri(uint256)": "0e89341c",
    "userEthContributed(address)": "061cd069",
    "userRewardPerEthPaid(address)": "96411538"
  },
  "id": 23
}