{
  "abi": [
    {
      "inputs": [
        {
          "internalType": "address",
          "name": "_protocolFeeDestination",
          "type": "address"
        },
        {
          "internalType": "uint256",
          "name": "_protocolFeePercent",
          "type": "uint256"
        }
      ],
      "stateMutability": "nonpayable",
      "type": "constructor"
    },
    {
      "anonymous": false,
      "inputs": [
        {
          "indexed": true,
          "internalType": "address",
          "name": "previousOwner",
          "type": "address"
        },
        {
          "indexed": true,
          "internalType": "address",
          "name": "newOwner",
          "type": "address"
        }
      ],
      "name": "OwnershipTransferred",
      "type": "event"
    },
    {
      "anonymous": false,
      "inputs": [
        {
          "indexed": true,
          "internalType": "address",
          "name": "owner",
          "type": "address"
        },
        {
          "indexed": true,
          "internalType": "uint256",
          "name": "id",
          "type": "uint256"
        }
      ],
      "name": "ShareCreated",
      "type": "event"
    },
    {
      "anonymous": false,
      "inputs": [
        {
          "indexed": false,
          "internalType": "uint256",
          "name": "id",
          "type": "uint256"
        },
        {
          "indexed": false,
          "internalType": "uint256",
          "name": "side",
          "type": "uint256"
        },
        {
          "indexed": false,
          "internalType": "address",
          "name": "trader",
          "type": "address"
        },
        {
          "indexed": false,
          "internalType": "address",
          "name": "owner",
          "type": "address"
        },
        {
          "indexed": false,
          "internalType": "uint256",
          "name": "amount",
          "type": "uint256"
        },
        {
          "indexed": false,
          "internalType": "uint256",
          "name": "price",
          "type": "uint256"
        },
        {
          "indexed": false,
          "internalType": "uint256",
          "name": "supply",
          "type": "uint256"
        }
      ],
      "name": "Trade",
      "type": "event"
    },
    {
      "inputs": [
        {
          "internalType": "uint256",
          "name": "id",
          "type": "uint256"
        },
        {
          "internalType": "uint256",
          "name": "amount",
          "type": "uint256"
        }
      ],
      "name": "buyShare",
      "outputs": [],
      "stateMutability": "payable",
      "type": "function"
    },
    {
      "inputs": [
        {
          "internalType": "string",
          "name": "_uri",
          "type": "string"
        },
        {
          "internalType": "uint256",
          "name": "crv",
          "type": "uint256"
        }
      ],
      "name": "createShare",
      "outputs": [],
      "stateMutability": "nonpayable",
      "type": "function"
    },
    {
      "inputs": [],
      "name": "currentId",
      "outputs": [
        {
          "internalType": "uint256",
          "name": "",
          "type": "uint256"
        }
      ],
      "stateMutability": "view",
      "type": "function"
    },
    {
      "inputs": [
        {
          "internalType": "uint256",
          "name": "id",
          "type": "uint256"
        },
        {
          "internalType": "string",
          "name": "_uri",
          "type": "string"
        }
      ],
      "name": "editUri",
      "outputs": [],
      "stateMutability": "nonpayable",
      "type": "function"
    },
    {
      "inputs": [
        {
          "internalType": "uint256",
          "name": "id",
          "type": "uint256"
        },
        {
          "internalType": "uint256",
          "name": "amount",
          "type": "uint256"
        }
      ],
      "name": "getBuyPrice",
      "outputs": [
        {
          "internalType": "uint256",
          "name": "",
          "type": "uint256"
        }
      ],
      "stateMutability": "view",
      "type": "function"
    },
    {
      "inputs": [
        {
          "internalType": "uint256",
          "name": "id",
          "type": "uint256"
        },
        {
          "internalType": "uint256",
          "name": "amount",
          "type": "uint256"
        }
      ],
      "name": "getBuyPriceAfterFee",
      "outputs": [
        {
          "internalType": "uint256",
          "name": "",
          "type": "uint256"
        }
      ],
      "stateMutability": "view",
      "type": "function"
    },
    {
      "inputs": [
        {
          "internalType": "uint256",
          "name": "supply",
          "type": "uint256"
        },
        {
          "internalType": "uint256",
          "name": "amount",
          "type": "uint256"
        },
        {
          "internalType": "uint256",
          "name": "curve",
          "type": "uint256"
        }
      ],
      "name": "getPrice",
      "outputs": [
        {
          "internalType": "uint256",
          "name": "",
          "type": "uint256"
        }
      ],
      "stateMutability": "view",
      "type": "function"
    },
    {
      "inputs": [
        {
          "internalType": "uint256",
          "name": "id",
          "type": "uint256"
        },
        {
          "internalType": "uint256",
          "name": "amount",
          "type": "uint256"
        }
      ],
      "name": "getSellPrice",
      "outputs": [
        {
          "internalType": "uint256",
          "name": "",
          "type": "uint256"
        }
      ],
      "stateMutability": "view",
      "type": "function"
    },
    {
      "inputs": [
        {
          "internalType": "uint256",
          "name": "id",
          "type": "uint256"
        },
        {
          "internalType": "uint256",
          "name": "amount",
          "type": "uint256"
        }
      ],
      "name": "getSellPriceAfterFee",
      "outputs": [
        {
          "internalType": "uint256",
          "name": "",
          "type": "uint256"
        }
      ],
      "stateMutability": "view",
      "type": "function"
    },
    {
      "inputs": [
        {
          "internalType": "uint256",
          "name": "id",
          "type": "uint256"
        },
        {
          "internalType": "address",
          "name": "user",
          "type": "address"
        }
      ],
      "name": "getShareBalance",
      "outputs": [
        {
          "internalType": "uint256",
          "name": "",
          "type": "uint256"
        }
      ],
      "stateMutability": "view",
      "type": "function"
    },
    {
      "inputs": [
        {
          "internalType": "uint256",
          "name": "id",
          "type": "uint256"
        }
      ],
      "name": "getShareInfo",
      "outputs": [
        {
          "internalType": "address",
          "name": "_owner",
          "type": "address"
        },
        {
          "internalType": "uint256",
          "name": "_totalSupply",
          "type": "uint256"
        },
        {
          "internalType": "string",
          "name": "_uri",
          "type": "string"
        }
      ],
      "stateMutability": "view",
      "type": "function"
    },
    {
      "inputs": [
        {
          "internalType": "address",
          "name": "user",
          "type": "address"
        }
      ],
      "name": "getUserOwnedShares",
      "outputs": [
        {
          "internalType": "uint256[]",
          "name": "",
          "type": "uint256[]"
        }
      ],
      "stateMutability": "view",
      "type": "function"
    },
    {
      "inputs": [],
      "name": "owner",
      "outputs": [
        {
          "internalType": "address",
          "name": "",
          "type": "address"
        }
      ],
      "stateMutability": "view",
      "type": "function"
    },
    {
      "inputs": [],
      "name": "protocolFeeDestination",
      "outputs": [
        {
          "internalType": "address",
          "name": "",
          "type": "address"
        }
      ],
      "stateMutability": "view",
      "type": "function"
    },
    {
      "inputs": [],
      "name": "protocolFeePercent",
      "outputs": [
        {
          "internalType": "uint256",
          "name": "",
          "type": "uint256"
        }
      ],
      "stateMutability": "view",
      "type": "function"
    },
    {
      "inputs": [],
      "name": "renounceOwnership",
      "outputs": [],
      "stateMutability": "nonpayable",
      "type": "function"
    },
    {
      "inputs": [
        {
          "internalType": "uint256",
          "name": "id",
          "type": "uint256"
        },
        {
          "internalType": "uint256",
          "name": "amount",
          "type": "uint256"
        }
      ],
      "name": "sellShare",
      "outputs": [],
      "stateMutability": "nonpayable",
      "type": "function"
    },
    {
      "inputs": [
        {
          "internalType": "address",
          "name": "_protocolFeeDestination",
          "type": "address"
        }
      ],
      "name": "setProtocolFeeDestination",
      "outputs": [],
      "stateMutability": "nonpayable",
      "type": "function"
    },
    {
      "inputs": [
        {
          "internalType": "uint256",
          "name": "_protocolFeePercent",
          "type": "uint256"
        }
      ],
      "name": "setProtocolFeePercent",
      "outputs": [],
      "stateMutability": "nonpayable",
      "type": "function"
    },
    {
      "inputs": [
        {
          "internalType": "uint256",
          "name": "",
          "type": "uint256"
        }
      ],
      "name": "shareInfo",
      "outputs": [
        {
          "internalType": "address",
          "name": "owner",
          "type": "address"
        },
        {
          "internalType": "uint256",
          "name": "totalSupply",
          "type": "uint256"
        },
        {
          "internalType": "string",
          "name": "uri",
          "type": "string"
        },
        {
          "internalType": "uint256",
          "name": "crv",
          "type": "uint256"
        }
      ],
      "stateMutability": "view",
      "type": "function"
    },
    {
      "inputs": [
        {
          "internalType": "address",
          "name": "newOwner",
          "type": "address"
        }
      ],
      "name": "transferOwnership",
      "outputs": [],
      "stateMutability": "nonpayable",
      "type": "function"
    },
    {
      "inputs": [
        {
          "internalType": "uint256",
          "name": "id",
          "type": "uint256"
        }
      ],
      "name": "uri",
      "outputs": [
        {
          "internalType": "string",
          "name": "",
          "type": "string"
        }
      ],
      "stateMutability": "view",
      "type": "function"
    },
    {
      "inputs": [
        {
          "internalType": "address",
          "name": "",
          "type": "address"
        },
        {
          "internalType": "uint256",
          "name": "",
          "type": "uint256"
        }
      ],
      "name": "userOwnedShares",
      "outputs": [
        {
          "internalType": "uint256",
          "name": "",
          "type": "uint256"
        }
      ],
      "stateMutability": "view",
      "type": "function"
    }
  ],
  "bytecode": {
    "object": "0x6080604052600060035534801561001557600080fd5b50604051611854380380611854833981016040819052610034916100b6565b61003d33610066565b600180546001600160a01b0319166001600160a01b0393909316929092179091556002556100f0565b600080546001600160a01b038381166001600160a01b0319831681178455604051919092169283917f8be0079c531659141344cd1fd0a4f28419497f9722a3daafe3b4186f6b6457e09190a35050565b600080604083850312156100c957600080fd5b82516001600160a01b03811681146100e057600080fd5b6020939093015192949293505050565b611755806100ff6000396000f3fe6080604052600436106101405760003560e01c8063715018a6116100b6578063adacd4871161006f578063adacd487146103a1578063c157253d146103d1578063cd9c7121146103f1578063d6e6eb9f14610411578063e00dd16114610427578063f2fde38b1461043d57600080fd5b8063715018a6146102fb5780638da5cb5b146103105780639477d85d1461032e578063a10786b01461034e578063a49834211461036e578063aca75a521461038e57600080fd5b8063246b716f11610108578063246b716f146102165780633cc4ecab14610236578063486afd45146102565780634bcc7d7d146102765780634ce7957c14610296578063547d6a9b146102ce57600080fd5b80630391f64c146101455780630519e97514610178578063063a741f1461019a5780630e89341c146101ba5780631d92d3b9146101e7575b600080fd5b34801561015157600080fd5b50610165610160366004611216565b61045d565b6040519081526020015b60405180910390f35b34801561018457600080fd5b50610198610193366004611242565b6104b7565b005b3480156101a657600080fd5b506101656101b5366004611242565b610734565b3480156101c657600080fd5b506101da6101d5366004611264565b61079d565b60405161016f91906112c3565b3480156101f357600080fd5b50610207610202366004611264565b610861565b60405161016f939291906112d6565b34801561022257600080fd5b50610198610231366004611346565b610947565b34801561024257600080fd5b50610165610251366004611392565b610a82565b34801561026257600080fd5b506101656102713660046113be565b610ba2565b34801561028257600080fd5b506101986102913660046113e8565b610bd3565b3480156102a257600080fd5b506001546102b6906001600160a01b031681565b6040516001600160a01b03909116815260200161016f565b3480156102da57600080fd5b506102ee6102e9366004611434565b610c7c565b60405161016f919061144f565b34801561030757600080fd5b50610198610ce7565b34801561031c57600080fd5b506000546001600160a01b03166102b6565b34801561033a57600080fd5b50610165610349366004611242565b610cfb565b34801561035a57600080fd5b50610198610369366004611434565b610d5f565b34801561037a57600080fd5b50610198610389366004611264565b610d89565b61019861039c366004611242565b610d96565b3480156103ad57600080fd5b506103c16103bc366004611264565b610f74565b60405161016f9493929190611493565b3480156103dd57600080fd5b506101656103ec366004611242565b61102f565b3480156103fd57600080fd5b5061016561040c366004611242565b611077565b34801561041d57600080fd5b5061016560025481565b34801561043357600080fd5b5061016560035481565b34801561044957600080fd5b50610198610458366004611434565b6110d7565b600060035483106104895760405162461bcd60e51b8152600401610480906114cb565b60405180910390fd5b5060008281526005602090815260408083206001600160a01b03851684526001019091529020545b92915050565b60035482106104d85760405162461bcd60e51b8152600401610480906114cb565b600082815260056020908152604080832060028101543385526001820190935292205483111561054a5760405162461bcd60e51b815260206004820152601a60248201527f496e73756666696369656e742073686172652062616c616e63650000000000006044820152606401610480565b600083836002015461055c919061150b565b116105c15760405162461bcd60e51b815260206004820152602f60248201527f43616e6e6f742073656c6c20616c6c207368617265732c206d757374206c656160448201526e7665206174206c65617374206f6e6560881b6064820152608401610480565b60006105db6105d0858461150b565b858560040154610a82565b90506000670de0b6b3a7640000600254836105f6919061151e565b6106009190611535565b33600090815260018601602052604090205490915061062090869061150b565b33600090815260018601602052604090205561063c858461150b565b600285015583546040517f09a786993c2becc8264c2a90ccc09ca6a571883f97635cc26ed418876b3bdb0a9161068891899160019133916001600160a01b0316908b9089908b90611557565b60405180910390a160003361069d838561150b565b6040515b60006040518083038185875af1925050503d80600081146106de576040519150601f19603f3d011682016040523d82523d6000602084013e6106e3565b606091505b505090508061072b5760405162461bcd60e51b8152602060048201526014602482015273556e61626c6520746f2073656e642066756e647360601b6044820152606401610480565b50505050505050565b600060035483106107575760405162461bcd60e51b8152600401610480906114cb565b6000610763848461102f565b90506000670de0b6b3a76400006002548361077e919061151e565b6107889190611535565b90506107948183611593565b95945050505050565b606060035482106107c05760405162461bcd60e51b8152600401610480906114cb565b600082815260056020526040902060030180546107dc906115a6565b80601f0160208091040260200160405190810160405280929190818152602001828054610808906115a6565b80156108555780601f1061082a57610100808354040283529160200191610855565b820191906000526020600020905b81548152906001019060200180831161083857829003601f168201915b50505050509050919050565b600080606060035484106108875760405162461bcd60e51b8152600401610480906114cb565b6000848152600560205260409020805460028201546003830180546001600160a01b039093169281906108b9906115a6565b80601f01602080910402602001604051908101604052809291908181526020018280546108e5906115a6565b80156109325780601f1061090757610100808354040283529160200191610932565b820191906000526020600020905b81548152906001019060200180831161091557829003601f168201915b50505050509050935093509350509193909250565b610fa0811015801561095b5750617d008111155b6109975760405162461bcd60e51b815260206004820152600d60248201526c18dc9d881d1bdbc81dd95a5c99609a1b6044820152606401610480565b60038054600090815260056020818152604080842080546001600160a01b031916339081179091558554855281852090855260019081018352818520819055855485529290915280832060020191909155825482529020016109fa838583611645565b5060038054600090815260056020908152604080832060049081018690553384528252822083548154600181018355918452918320015581549190610a3e83611706565b91905055506001600354610a52919061150b565b60405133907f335b5487495f05d92d4db67accd7283d32ffa24a7eb1d604889b384e4888376290600090a3505050565b6000808415610add576006610a9860018761150b565b610aa390600261151e565b610aae906001611593565b86610aba60018261150b565b610ac4919061151e565b610ace919061151e565b610ad89190611535565b610ae0565b60005b9050600085158015610af25750846001145b610b6757600685610b0460018961150b565b610b0e9190611593565b610b1990600261151e565b610b24906001611593565b610b2e8789611593565b87610b3a60018b61150b565b610b449190611593565b610b4e919061151e565b610b58919061151e565b610b629190611535565b610b6a565b60005b90506000610b78838361150b565b905084610b8d82670de0b6b3a764000061151e565b610b979190611535565b979650505050505050565b60046020528160005260406000208181548110610bbe57600080fd5b90600052602060002001600091509150505481565b6003548310610bf45760405162461bcd60e51b8152600401610480906114cb565b6000838152600560205260409020546001600160a01b03163314610c5a5760405162461bcd60e51b815260206004820152601760248201527f4f6e6c7920746865206f776e65722063616e20656469740000000000000000006044820152606401610480565b6000838152600560205260409020600301610c76828483611645565b50505050565b6001600160a01b03811660009081526004602090815260409182902080548351818402810184019094528084526060939283018282801561085557602002820191906000526020600020905b815481526020019060010190808311610cc85750505050509050919050565b610cef611150565b610cf960006111aa565b565b60006003548310610d1e5760405162461bcd60e51b8152600401610480906114cb565b600083815260056020526040902060020154610d5890610d3f90849061150b565b6000858152600560205260409020600401548490610a82565b9392505050565b610d67611150565b600180546001600160a01b0319166001600160a01b0392909216919091179055565b610d91611150565b600255565b6003548210610db75760405162461bcd60e51b8152600401610480906114cb565b6000828152600560205260409020600281015480151580610de1575081546001600160a01b031633145b610e455760405162461bcd60e51b815260206004820152602f60248201527f4f6e6c792074686520736861726573207375626a6563742063616e206275792060448201526e74686520666972737420736861726560881b6064820152608401610480565b6000610e5682858560040154610a82565b90506000670de0b6b3a764000060025483610e71919061151e565b610e7b9190611535565b9050610e878183611593565b341015610ecd5760405162461bcd60e51b8152602060048201526014602482015273125b9cdd59999a58da595b9d081c185e5b595b9d60621b6044820152606401610480565b336000908152600185016020526040902054610eea908690611593565b336000908152600186016020526040902055610f068584611593565b600285015583546040517f09a786993c2becc8264c2a90ccc09ca6a571883f97635cc26ed418876b3bdb0a91610f5291899160009133916001600160a01b0316908b9089908b90611557565b60405180910390a16001546040516000916001600160a01b03169083906106a1565b6005602052600090815260409020805460028201546003830180546001600160a01b03909316939192610fa6906115a6565b80601f0160208091040260200160405190810160405280929190818152602001828054610fd2906115a6565b801561101f5780601f10610ff45761010080835404028352916020019161101f565b820191906000526020600020905b81548152906001019060200180831161100257829003601f168201915b5050505050908060040154905084565b600060035483106110525760405162461bcd60e51b8152600401610480906114cb565b60008381526005602052604090206002810154600490910154610d5891908490610a82565b6000600354831061109a5760405162461bcd60e51b8152600401610480906114cb565b60006110a68484610cfb565b90506000670de0b6b3a7640000600254836110c1919061151e565b6110cb9190611535565b9050610794818361150b565b6110df611150565b6001600160a01b0381166111445760405162461bcd60e51b815260206004820152602660248201527f4f776e61626c653a206e6577206f776e657220697320746865207a65726f206160448201526564647265737360d01b6064820152608401610480565b61114d816111aa565b50565b6000546001600160a01b03163314610cf95760405162461bcd60e51b815260206004820181905260248201527f4f776e61626c653a2063616c6c6572206973206e6f7420746865206f776e65726044820152606401610480565b600080546001600160a01b038381166001600160a01b0319831681178455604051919092169283917f8be0079c531659141344cd1fd0a4f28419497f9722a3daafe3b4186f6b6457e09190a35050565b80356001600160a01b038116811461121157600080fd5b919050565b6000806040838503121561122957600080fd5b82359150611239602084016111fa565b90509250929050565b6000806040838503121561125557600080fd5b50508035926020909101359150565b60006020828403121561127657600080fd5b5035919050565b6000815180845260005b818110156112a357602081850181015186830182015201611287565b506000602082860101526020601f19601f83011685010191505092915050565b602081526000610d58602083018461127d565b60018060a01b0384168152826020820152606060408201526000610794606083018461127d565b60008083601f84011261130f57600080fd5b50813567ffffffffffffffff81111561132757600080fd5b60208301915083602082850101111561133f57600080fd5b9250929050565b60008060006040848603121561135b57600080fd5b833567ffffffffffffffff81111561137257600080fd5b61137e868287016112fd565b909790965060209590950135949350505050565b6000806000606084860312156113a757600080fd5b505081359360208301359350604090920135919050565b600080604083850312156113d157600080fd5b6113da836111fa565b946020939093013593505050565b6000806000604084860312156113fd57600080fd5b83359250602084013567ffffffffffffffff81111561141b57600080fd5b611427868287016112fd565b9497909650939450505050565b60006020828403121561144657600080fd5b610d58826111fa565b6020808252825182820181905260009190848201906040850190845b818110156114875783518352928401929184019160010161146b565b50909695505050505050565b60018060a01b03851681528360208201526080604082015260006114ba608083018561127d565b905082606083015295945050505050565b60208082526010908201526f125b9d985b1a59081cda185c99481a5960821b604082015260600190565b634e487b7160e01b600052601160045260246000fd5b818103818111156104b1576104b16114f5565b80820281158282048414176104b1576104b16114f5565b60008261155257634e487b7160e01b600052601260045260246000fd5b500490565b96875260208701959095526001600160a01b039384166040870152919092166060850152608084019190915260a083015260c082015260e00190565b808201808211156104b1576104b16114f5565b600181811c908216806115ba57607f821691505b6020821081036115da57634e487b7160e01b600052602260045260246000fd5b50919050565b634e487b7160e01b600052604160045260246000fd5b601f82111561164057600081815260208120601f850160051c8101602086101561161d5750805b601f850160051c820191505b8181101561163c57828155600101611629565b5050505b505050565b67ffffffffffffffff83111561165d5761165d6115e0565b6116718361166b83546115a6565b836115f6565b6000601f8411600181146116a5576000851561168d5750838201355b600019600387901b1c1916600186901b1783556116ff565b600083815260209020601f19861690835b828110156116d657868501358255602094850194600190920191016116b6565b50868210156116f35760001960f88860031b161c19848701351681555b505060018560011b0183555b5050505050565b600060018201611718576117186114f5565b506001019056fea2646970667358221220e191379f8ba5a9355e5187ed2da87a7226754964477333c3c38ae7ee6929720a64736f6c63430008150033",
    "linkReferences": {}
  },
  "methodIdentifiers": {
    "buyShare(uint256,uint256)": "aca75a52",
    "createShare(string,uint256)": "246b716f",
    "currentId()": "e00dd161",
    "editUri(uint256,string)": "4bcc7d7d",
    "getBuyPrice(uint256,uint256)": "c157253d",
    "getBuyPriceAfterFee(uint256,uint256)": "063a741f",
    "getPrice(uint256,uint256,uint256)": "3cc4ecab",
    "getSellPrice(uint256,uint256)": "9477d85d",
    "getSellPriceAfterFee(uint256,uint256)": "cd9c7121",
    "getShareBalance(uint256,address)": "0391f64c",
    "getShareInfo(uint256)": "1d92d3b9",
    "getUserOwnedShares(address)": "547d6a9b",
    "owner()": "8da5cb5b",
    "protocolFeeDestination()": "4ce7957c",
    "protocolFeePercent()": "d6e6eb9f",
    "renounceOwnership()": "715018a6",
    "sellShare(uint256,uint256)": "0519e975",
    "setProtocolFeeDestination(address)": "a10786b0",
    "setProtocolFeePercent(uint256)": "a4983421",
    "shareInfo(uint256)": "adacd487",
    "transferOwnership(address)": "f2fde38b",
    "uri(uint256)": "0e89341c",
    "userOwnedShares(address,uint256)": "486afd45"
  },
  "id": 21
}