{
  "abi": [
    {
      "inputs": [],
      "stateMutability": "nonpayable",
      "type": "constructor"
    },
    {
      "anonymous": false,
      "inputs": [
        {
          "indexed": true,
          "internalType": "address",
          "name": "owner",
          "type": "address"
        },
        {
          "indexed": true,
          "internalType": "address",
          "name": "spender",
          "type": "address"
        },
        {
          "indexed": false,
          "internalType": "uint256",
          "name": "value",
          "type": "uint256"
        }
      ],
      "name": "Approval",
      "type": "event"
    },
    {
      "anonymous": false,
      "inputs": [
        {
          "indexed": true,
          "internalType": "address",
          "name": "previousOwner",
          "type": "address"
        },
        {
          "indexed": true,
          "internalType": "address",
          "name": "newOwner",
          "type": "address"
        }
      ],
      "name": "OwnershipTransferred",
      "type": "event"
    },
    {
      "anonymous": false,
      "inputs": [
        {
          "indexed": true,
          "internalType": "address",
          "name": "owner",
          "type": "address"
        },
        {
          "indexed": true,
          "internalType": "uint256",
          "name": "id",
          "type": "uint256"
        }
      ],
      "name": "ShareCreated",
      "type": "event"
    },
    {
      "anonymous": false,
      "inputs": [
        {
          "indexed": false,
          "internalType": "uint256",
          "name": "id",
          "type": "uint256"
        },
        {
          "indexed": false,
          "internalType": "uint256",
          "name": "side",
          "type": "uint256"
        },
        {
          "indexed": false,
          "internalType": "address",
          "name": "trader",
          "type": "address"
        },
        {
          "indexed": false,
          "internalType": "address",
          "name": "owner",
          "type": "address"
        },
        {
          "indexed": false,
          "internalType": "uint256",
          "name": "amount",
          "type": "uint256"
        },
        {
          "indexed": false,
          "internalType": "uint256",
          "name": "price",
          "type": "uint256"
        },
        {
          "indexed": false,
          "internalType": "uint256",
          "name": "supply",
          "type": "uint256"
        }
      ],
      "name": "Trade",
      "type": "event"
    },
    {
      "anonymous": false,
      "inputs": [
        {
          "indexed": true,
          "internalType": "address",
          "name": "from",
          "type": "address"
        },
        {
          "indexed": true,
          "internalType": "address",
          "name": "to",
          "type": "address"
        },
        {
          "indexed": false,
          "internalType": "uint256",
          "name": "value",
          "type": "uint256"
        }
      ],
      "name": "Transfer",
      "type": "event"
    },
    {
      "inputs": [
        {
          "internalType": "address",
          "name": "owner",
          "type": "address"
        },
        {
          "internalType": "address",
          "name": "spender",
          "type": "address"
        }
      ],
      "name": "allowance",
      "outputs": [
        {
          "internalType": "uint256",
          "name": "",
          "type": "uint256"
        }
      ],
      "stateMutability": "view",
      "type": "function"
    },
    {
      "inputs": [
        {
          "internalType": "address",
          "name": "spender",
          "type": "address"
        },
        {
          "internalType": "uint256",
          "name": "amount",
          "type": "uint256"
        }
      ],
      "name": "approve",
      "outputs": [
        {
          "internalType": "bool",
          "name": "",
          "type": "bool"
        }
      ],
      "stateMutability": "nonpayable",
      "type": "function"
    },
    {
      "inputs": [
        {
          "internalType": "address",
          "name": "account",
          "type": "address"
        }
      ],
      "name": "balanceOf",
      "outputs": [
        {
          "internalType": "uint256",
          "name": "",
          "type": "uint256"
        }
      ],
      "stateMutability": "view",
      "type": "function"
    },
    {
      "inputs": [
        {
          "internalType": "uint256",
          "name": "id",
          "type": "uint256"
        },
        {
          "internalType": "uint256",
          "name": "amount",
          "type": "uint256"
        }
      ],
      "name": "buyShare",
      "outputs": [],
      "stateMutability": "payable",
      "type": "function"
    },
    {
      "inputs": [
        {
          "internalType": "string",
          "name": "_uri",
          "type": "string"
        }
      ],
      "name": "createShare",
      "outputs": [],
      "stateMutability": "nonpayable",
      "type": "function"
    },
    {
      "inputs": [],
      "name": "currentId",
      "outputs": [
        {
          "internalType": "uint256",
          "name": "",
          "type": "uint256"
        }
      ],
      "stateMutability": "view",
      "type": "function"
    },
    {
      "inputs": [],
      "name": "decimals",
      "outputs": [
        {
          "internalType": "uint8",
          "name": "",
          "type": "uint8"
        }
      ],
      "stateMutability": "view",
      "type": "function"
    },
    {
      "inputs": [
        {
          "internalType": "address",
          "name": "spender",
          "type": "address"
        },
        {
          "internalType": "uint256",
          "name": "subtractedValue",
          "type": "uint256"
        }
      ],
      "name": "decreaseAllowance",
      "outputs": [
        {
          "internalType": "bool",
          "name": "",
          "type": "bool"
        }
      ],
      "stateMutability": "nonpayable",
      "type": "function"
    },
    {
      "inputs": [
        {
          "internalType": "address",
          "name": "_account",
          "type": "address"
        }
      ],
      "name": "earned",
      "outputs": [
        {
          "internalType": "uint256",
          "name": "",
          "type": "uint256"
        }
      ],
      "stateMutability": "view",
      "type": "function"
    },
    {
      "inputs": [
        {
          "internalType": "uint256",
          "name": "id",
          "type": "uint256"
        },
        {
          "internalType": "string",
          "name": "_uri",
          "type": "string"
        }
      ],
      "name": "editUri",
      "outputs": [],
      "stateMutability": "nonpayable",
      "type": "function"
    },
    {
      "inputs": [
        {
          "internalType": "uint256",
          "name": "",
          "type": "uint256"
        }
      ],
      "name": "epoch",
      "outputs": [
        {
          "internalType": "uint256",
          "name": "",
          "type": "uint256"
        }
      ],
      "stateMutability": "view",
      "type": "function"
    },
    {
      "inputs": [],
      "name": "finishAt",
      "outputs": [
        {
          "internalType": "uint256",
          "name": "",
          "type": "uint256"
        }
      ],
      "stateMutability": "view",
      "type": "function"
    },
    {
      "inputs": [
        {
          "internalType": "uint256",
          "name": "id",
          "type": "uint256"
        },
        {
          "internalType": "uint256",
          "name": "amount",
          "type": "uint256"
        }
      ],
      "name": "getBuyPrice",
      "outputs": [
        {
          "internalType": "uint256",
          "name": "",
          "type": "uint256"
        }
      ],
      "stateMutability": "view",
      "type": "function"
    },
    {
      "inputs": [
        {
          "internalType": "uint256",
          "name": "id",
          "type": "uint256"
        },
        {
          "internalType": "uint256",
          "name": "amount",
          "type": "uint256"
        }
      ],
      "name": "getBuyPriceAfterFee",
      "outputs": [
        {
          "internalType": "uint256",
          "name": "",
          "type": "uint256"
        }
      ],
      "stateMutability": "view",
      "type": "function"
    },
    {
      "inputs": [
        {
          "internalType": "uint256",
          "name": "supply",
          "type": "uint256"
        },
        {
          "internalType": "uint256",
          "name": "amount",
          "type": "uint256"
        }
      ],
      "name": "getPrice",
      "outputs": [
        {
          "internalType": "uint256",
          "name": "",
          "type": "uint256"
        }
      ],
      "stateMutability": "pure",
      "type": "function"
    },
    {
      "inputs": [
        {
          "internalType": "uint256",
          "name": "currentTime",
          "type": "uint256"
        }
      ],
      "name": "getRate",
      "outputs": [
        {
          "internalType": "uint256",
          "name": "",
          "type": "uint256"
        }
      ],
      "stateMutability": "view",
      "type": "function"
    },
    {
      "inputs": [],
      "name": "getReward",
      "outputs": [],
      "stateMutability": "nonpayable",
      "type": "function"
    },
    {
      "inputs": [
        {
          "internalType": "uint256",
          "name": "id",
          "type": "uint256"
        },
        {
          "internalType": "uint256",
          "name": "amount",
          "type": "uint256"
        }
      ],
      "name": "getSellPrice",
      "outputs": [
        {
          "internalType": "uint256",
          "name": "",
          "type": "uint256"
        }
      ],
      "stateMutability": "view",
      "type": "function"
    },
    {
      "inputs": [
        {
          "internalType": "uint256",
          "name": "id",
          "type": "uint256"
        },
        {
          "internalType": "uint256",
          "name": "amount",
          "type": "uint256"
        }
      ],
      "name": "getSellPriceAfterFee",
      "outputs": [
        {
          "internalType": "uint256",
          "name": "",
          "type": "uint256"
        }
      ],
      "stateMutability": "view",
      "type": "function"
    },
    {
      "inputs": [
        {
          "internalType": "uint256",
          "name": "id",
          "type": "uint256"
        },
        {
          "internalType": "address",
          "name": "user",
          "type": "address"
        }
      ],
      "name": "getShareBalance",
      "outputs": [
        {
          "internalType": "uint256",
          "name": "",
          "type": "uint256"
        }
      ],
      "stateMutability": "view",
      "type": "function"
    },
    {
      "inputs": [
        {
          "internalType": "uint256",
          "name": "id",
          "type": "uint256"
        }
      ],
      "name": "getShareInfo",
      "outputs": [
        {
          "internalType": "address",
          "name": "_owner",
          "type": "address"
        },
        {
          "internalType": "uint256",
          "name": "_totalSupply",
          "type": "uint256"
        },
        {
          "internalType": "string",
          "name": "_uri",
          "type": "string"
        }
      ],
      "stateMutability": "view",
      "type": "function"
    },
    {
      "inputs": [
        {
          "internalType": "address",
          "name": "spender",
          "type": "address"
        },
        {
          "internalType": "uint256",
          "name": "addedValue",
          "type": "uint256"
        }
      ],
      "name": "increaseAllowance",
      "outputs": [
        {
          "internalType": "bool",
          "name": "",
          "type": "bool"
        }
      ],
      "stateMutability": "nonpayable",
      "type": "function"
    },
    {
      "inputs": [],
      "name": "lastTimeRewardApplicable",
      "outputs": [
        {
          "internalType": "uint256",
          "name": "",
          "type": "uint256"
        }
      ],
      "stateMutability": "view",
      "type": "function"
    },
    {
      "inputs": [],
      "name": "maxSupply",
      "outputs": [
        {
          "internalType": "uint256",
          "name": "",
          "type": "uint256"
        }
      ],
      "stateMutability": "view",
      "type": "function"
    },
    {
      "inputs": [],
      "name": "name",
      "outputs": [
        {
          "internalType": "string",
          "name": "",
          "type": "string"
        }
      ],
      "stateMutability": "view",
      "type": "function"
    },
    {
      "inputs": [],
      "name": "openInterest",
      "outputs": [
        {
          "internalType": "uint256",
          "name": "",
          "type": "uint256"
        }
      ],
      "stateMutability": "view",
      "type": "function"
    },
    {
      "inputs": [],
      "name": "owner",
      "outputs": [
        {
          "internalType": "address",
          "name": "",
          "type": "address"
        }
      ],
      "stateMutability": "view",
      "type": "function"
    },
    {
      "inputs": [],
      "name": "protocolFeeDestination",
      "outputs": [
        {
          "internalType": "address",
          "name": "",
          "type": "address"
        }
      ],
      "stateMutability": "view",
      "type": "function"
    },
    {
      "inputs": [],
      "name": "protocolFeePercent",
      "outputs": [
        {
          "internalType": "uint256",
          "name": "",
          "type": "uint256"
        }
      ],
      "stateMutability": "view",
      "type": "function"
    },
    {
      "inputs": [],
      "name": "renounceOwnership",
      "outputs": [],
      "stateMutability": "nonpayable",
      "type": "function"
    },
    {
      "inputs": [],
      "name": "rewardPerEthStored",
      "outputs": [
        {
          "internalType": "uint256",
          "name": "",
          "type": "uint256"
        }
      ],
      "stateMutability": "view",
      "type": "function"
    },
    {
      "inputs": [],
      "name": "rewardPerToken",
      "outputs": [
        {
          "internalType": "uint256",
          "name": "",
          "type": "uint256"
        }
      ],
      "stateMutability": "view",
      "type": "function"
    },
    {
      "inputs": [
        {
          "internalType": "address",
          "name": "",
          "type": "address"
        }
      ],
      "name": "rewards",
      "outputs": [
        {
          "internalType": "uint256",
          "name": "",
          "type": "uint256"
        }
      ],
      "stateMutability": "view",
      "type": "function"
    },
    {
      "inputs": [],
      "name": "rewardsToken",
      "outputs": [
        {
          "internalType": "contract IERC20",
          "name": "",
          "type": "address"
        }
      ],
      "stateMutability": "view",
      "type": "function"
    },
    {
      "inputs": [],
      "name": "royaltyFeePercent",
      "outputs": [
        {
          "internalType": "uint256",
          "name": "",
          "type": "uint256"
        }
      ],
      "stateMutability": "view",
      "type": "function"
    },
    {
      "inputs": [
        {
          "internalType": "uint256",
          "name": "id",
          "type": "uint256"
        },
        {
          "internalType": "uint256",
          "name": "amount",
          "type": "uint256"
        }
      ],
      "name": "sellShare",
      "outputs": [],
      "stateMutability": "nonpayable",
      "type": "function"
    },
    {
      "inputs": [
        {
          "internalType": "address",
          "name": "_protocolFeeDestination",
          "type": "address"
        }
      ],
      "name": "setProtocolFeeDestination",
      "outputs": [],
      "stateMutability": "nonpayable",
      "type": "function"
    },
    {
      "inputs": [
        {
          "internalType": "uint256",
          "name": "_protocolFeePercent",
          "type": "uint256"
        }
      ],
      "name": "setProtocolFeePercent",
      "outputs": [],
      "stateMutability": "nonpayable",
      "type": "function"
    },
    {
      "inputs": [
        {
          "internalType": "uint256",
          "name": "_royaltyFeePercent",
          "type": "uint256"
        }
      ],
      "name": "setRoyaltyFeePercent",
      "outputs": [],
      "stateMutability": "nonpayable",
      "type": "function"
    },
    {
      "inputs": [
        {
          "internalType": "uint256",
          "name": "",
          "type": "uint256"
        }
      ],
      "name": "shareInfo",
      "outputs": [
        {
          "internalType": "address",
          "name": "owner",
          "type": "address"
        },
        {
          "internalType": "uint256",
          "name": "totalSupply",
          "type": "uint256"
        },
        {
          "internalType": "string",
          "name": "uri",
          "type": "string"
        }
      ],
      "stateMutability": "view",
      "type": "function"
    },
    {
      "inputs": [],
      "name": "startTime",
      "outputs": [
        {
          "internalType": "uint256",
          "name": "",
          "type": "uint256"
        }
      ],
      "stateMutability": "view",
      "type": "function"
    },
    {
      "inputs": [],
      "name": "symbol",
      "outputs": [
        {
          "internalType": "string",
          "name": "",
          "type": "string"
        }
      ],
      "stateMutability": "view",
      "type": "function"
    },
    {
      "inputs": [],
      "name": "totalSupply",
      "outputs": [
        {
          "internalType": "uint256",
          "name": "",
          "type": "uint256"
        }
      ],
      "stateMutability": "view",
      "type": "function"
    },
    {
      "inputs": [
        {
          "internalType": "address",
          "name": "to",
          "type": "address"
        },
        {
          "internalType": "uint256",
          "name": "amount",
          "type": "uint256"
        }
      ],
      "name": "transfer",
      "outputs": [
        {
          "internalType": "bool",
          "name": "",
          "type": "bool"
        }
      ],
      "stateMutability": "nonpayable",
      "type": "function"
    },
    {
      "inputs": [
        {
          "internalType": "address",
          "name": "from",
          "type": "address"
        },
        {
          "internalType": "address",
          "name": "to",
          "type": "address"
        },
        {
          "internalType": "uint256",
          "name": "amount",
          "type": "uint256"
        }
      ],
      "name": "transferFrom",
      "outputs": [
        {
          "internalType": "bool",
          "name": "",
          "type": "bool"
        }
      ],
      "stateMutability": "nonpayable",
      "type": "function"
    },
    {
      "inputs": [
        {
          "internalType": "address",
          "name": "newOwner",
          "type": "address"
        }
      ],
      "name": "transferOwnership",
      "outputs": [],
      "stateMutability": "nonpayable",
      "type": "function"
    },
    {
      "inputs": [],
      "name": "updatedAt",
      "outputs": [
        {
          "internalType": "uint256",
          "name": "",
          "type": "uint256"
        }
      ],
      "stateMutability": "view",
      "type": "function"
    },
    {
      "inputs": [
        {
          "internalType": "uint256",
          "name": "id",
          "type": "uint256"
        }
      ],
      "name": "uri",
      "outputs": [
        {
          "internalType": "string",
          "name": "",
          "type": "string"
        }
      ],
      "stateMutability": "view",
      "type": "function"
    },
    {
      "inputs": [
        {
          "internalType": "address",
          "name": "",
          "type": "address"
        }
      ],
      "name": "userNetEthContributed",
      "outputs": [
        {
          "internalType": "int256",
          "name": "",
          "type": "int256"
        }
      ],
      "stateMutability": "view",
      "type": "function"
    },
    {
      "inputs": [
        {
          "internalType": "address",
          "name": "",
          "type": "address"
        }
      ],
      "name": "userRewardPerEthPaid",
      "outputs": [
        {
          "internalType": "uint256",
          "name": "",
          "type": "uint256"
        }
      ],
      "stateMutability": "view",
      "type": "function"
    }
  ],
  "bytecode": {
    "object": "0x60006009556b204fce5e3e250261100000006012556101606040526b0cecb8f27f4200f3a000000060a09081526b052b7d2dcc80cd2e4000000060c0526b033b2e3c9fd0803ce800000060e0526b01f04ef12cb04cf158000000610100526b015b6a759f4835dc24000000610120526b013a542146f830bafc000000610140526200008f90601490600662000299565b503480156200009d57600080fd5b506040518060400160405280600681526020016510dd5c9d995960d21b8152506040518060400160405280600681526020016510d55495915160d21b815250620000f6620000f06200017860201b60201c565b6200017c565b6004620001048382620003af565b506005620001138282620003af565b5050600680546001600160a01b031916331790555066b1a2bc2ec50000600881905560075542600a819055600c8190556200015390630b4886806200047b565b600b553060805262000172336b06765c793fa10079d0000000620001cc565b620004a3565b3390565b600080546001600160a01b038381166001600160a01b0319831681178455604051919092169283917f8be0079c531659141344cd1fd0a4f28419497f9722a3daafe3b4186f6b6457e09190a35050565b6001600160a01b038216620002275760405162461bcd60e51b815260206004820152601f60248201527f45524332303a206d696e7420746f20746865207a65726f206164647265737300604482015260640160405180910390fd5b80600360008282546200023b91906200047b565b90915550506001600160a01b0382166000818152600160209081526040808320805486019055518481527fddf252ad1be2c89b69c2b068fc378daa952ba7f163c4a11628f55a4df523b3ef910160405180910390a35050565b505050565b828054828255906000526020600020908101928215620002e2579160200282015b82811115620002e257825182906001600160601b0316905591602001919060010190620002ba565b50620002f0929150620002f4565b5090565b5b80821115620002f05760008155600101620002f5565b634e487b7160e01b600052604160045260246000fd5b600181811c908216806200033657607f821691505b6020821081036200035757634e487b7160e01b600052602260045260246000fd5b50919050565b601f8211156200029457600081815260208120601f850160051c81016020861015620003865750805b601f850160051c820191505b81811015620003a75782815560010162000392565b505050505050565b81516001600160401b03811115620003cb57620003cb6200030b565b620003e381620003dc845462000321565b846200035d565b602080601f8311600181146200041b5760008415620004025750858301515b600019600386901b1c1916600185901b178555620003a7565b600085815260208120601f198616915b828110156200044c578886015182559484019460019091019084016200042b565b50858210156200046b5787850151600019600388901b60f8161c191681555b5050505050600190811b01905550565b808201808211156200049d57634e487b7160e01b600052601160045260246000fd5b92915050565b6080516127d1620004bf600039600061081701526127d16000f3fe6080604052600436106102c85760003560e01c806378e9792511610175578063bbcb3fb2116100dc578063d5abeb0111610095578063dd62ed3e1161006f578063dd62ed3e14610891578063e00dd161146108b1578063f2fde38b146108c7578063fa5a2e62146108e757600080fd5b8063d5abeb011461084f578063d6e6eb9f14610865578063dca615ed1461087b57600080fd5b8063bbcb3fb214610783578063c157253d146107b0578063cd3daf9d146107d0578063cd9c7121146107e5578063d1af0c7d14610805578063d4d83ec41461083957600080fd5b8063a10786b01161012e578063a10786b0146106d0578063a457c2d7146106f0578063a498342114610710578063a9059cbb14610730578063aca75a5214610750578063adacd4871461076357600080fd5b806378e979251461062557806380faa57d1461063b5780638da5cb5b146106505780639477d85d1461066e57806395d89b411461068e57806396411538146106a357600080fd5b80632e3de7a5116102345780635487c577116101ed57806367d3b488116101c757806367d3b488146105ae57806370a08231146105c4578063715018a6146105fa5780637519ab501461060f57600080fd5b80635487c5771461054e578063577640941461056e5780635cf4ee911461058e57600080fd5b80632e3de7a514610485578063313ce567146104a557806339509351146104c15780633d18b912146104e15780634bcc7d7d146104f65780634ce7957c1461051657600080fd5b8063095ea7b311610286578063095ea7b3146103b15780630e89341c146103e157806318160ddd146104015780631d92d3b91461041657806323b872dd14610445578063298fe8801461046557600080fd5b80628cc262146102cd5780630391f64c146103005780630519e97514610320578063063a741f1461034257806306fdde03146103625780630700037d14610384575b600080fd5b3480156102d957600080fd5b506102ed6102e8366004612271565b6108fd565b6040519081526020015b60405180910390f35b34801561030c57600080fd5b506102ed61031b36600461228c565b6109a3565b34801561032c57600080fd5b5061034061033b3660046122b8565b6109fc565b005b34801561034e57600080fd5b506102ed61035d3660046122b8565b610e57565b34801561036e57600080fd5b50610377610ef1565b6040516102f79190612320565b34801561039057600080fd5b506102ed61039f366004612271565b600f6020526000908152604090205481565b3480156103bd57600080fd5b506103d16103cc366004612333565b610f83565b60405190151581526020016102f7565b3480156103ed57600080fd5b506103776103fc36600461235d565b610f9b565b34801561040d57600080fd5b506003546102ed565b34801561042257600080fd5b5061043661043136600461235d565b61105f565b6040516102f793929190612376565b34801561045157600080fd5b506103d16104603660046123a6565b611145565b34801561047157600080fd5b5061034061048036600461235d565b611169565b34801561049157600080fd5b506103406104a036600461242b565b611176565b3480156104b157600080fd5b50604051601281526020016102f7565b3480156104cd57600080fd5b506103d16104dc366004612333565b61122e565b3480156104ed57600080fd5b50610340611250565b34801561050257600080fd5b5061034061051136600461246d565b611332565b34801561052257600080fd5b50600654610536906001600160a01b031681565b6040516001600160a01b0390911681526020016102f7565b34801561055a57600080fd5b506102ed61056936600461235d565b6113db565b34801561057a57600080fd5b506102ed61058936600461235d565b6113fc565b34801561059a57600080fd5b506102ed6105a93660046122b8565b611516565b3480156105ba57600080fd5b506102ed600b5481565b3480156105d057600080fd5b506102ed6105df366004612271565b6001600160a01b031660009081526001602052604090205490565b34801561060657600080fd5b5061034061162d565b34801561061b57600080fd5b506102ed600c5481565b34801561063157600080fd5b506102ed600a5481565b34801561064757600080fd5b506102ed611641565b34801561065c57600080fd5b506000546001600160a01b0316610536565b34801561067a57600080fd5b506102ed6106893660046122b8565b611654565b34801561069a57600080fd5b5061037761169e565b3480156106af57600080fd5b506102ed6106be366004612271565b600e6020526000908152604090205481565b3480156106dc57600080fd5b506103406106eb366004612271565b6116ad565b3480156106fc57600080fd5b506103d161070b366004612333565b6116d7565b34801561071c57600080fd5b5061034061072b36600461235d565b611752565b34801561073c57600080fd5b506103d161074b366004612333565b61175f565b61034061075e3660046122b8565b61176d565b34801561076f57600080fd5b5061043661077e36600461235d565b611afc565b34801561078f57600080fd5b506102ed61079e366004612271565b60116020526000908152604090205481565b3480156107bc57600080fd5b506102ed6107cb3660046122b8565b611bb1565b3480156107dc57600080fd5b506102ed611bf0565b3480156107f157600080fd5b506102ed6108003660046122b8565b611c57565b34801561081157600080fd5b506105367f000000000000000000000000000000000000000000000000000000000000000081565b34801561084557600080fd5b506102ed600d5481565b34801561085b57600080fd5b506102ed60125481565b34801561087157600080fd5b506102ed60085481565b34801561088757600080fd5b506102ed60075481565b34801561089d57600080fd5b506102ed6108ac3660046124b9565b611ce7565b3480156108bd57600080fd5b506102ed60095481565b3480156108d357600080fd5b506103406108e2366004612271565b611d12565b3480156108f357600080fd5b506102ed60105481565b6001600160a01b03811660009081526011602052604081205481131561092557506000919050565b6001600160a01b0382166000908152600f6020908152604080832054600e90925290912054670de0b6b3a76400009061095c611bf0565b61096691906124f9565b6001600160a01b038516600090815260116020526040902054610989919061250c565b6109939190612523565b61099d9190612545565b92915050565b600060095483106109cf5760405162461bcd60e51b81526004016109c690612558565b60405180910390fd5b5060008281526013602090815260408083206001600160a01b038516845260010190915290205492915050565b33610a05611bf0565b600d55610a10611641565b600c556001600160a01b03811615610a5757610a2b816108fd565b6001600160a01b0382166000908152600f6020908152604080832093909355600d54600e909152919020555b6009548310610a785760405162461bcd60e51b81526004016109c690612558565b6000838152601360209081526040808320600281015433855260018201909352922054841115610aea5760405162461bcd60e51b815260206004820152601a60248201527f496e73756666696369656e742073686172652062616c616e636500000000000060448201526064016109c6565b6000848360020154610afc91906124f9565b11610b615760405162461bcd60e51b815260206004820152602f60248201527f43616e6e6f742073656c6c20616c6c207368617265732c206d757374206c656160448201526e7665206174206c65617374206f6e6560881b60648201526084016109c6565b6000610b76610b7086846124f9565b86611516565b33600090815260116020526040902054909150610b94908290612582565b33600090815260116020526040902055601054610bb29082906124f9565b601055600854600090670de0b6b3a764000090610bcf908461250c565b610bd99190612523565b90506000670de0b6b3a764000060075484610bf4919061250c565b610bfe9190612523565b905080610c0b83856124f9565b610c1591906124f9565b471015610c595760405162461bcd60e51b8152602060048201526012602482015271496e73756666696369656e742066756e647360701b60448201526064016109c6565b336000908152600186016020526040902054610c769088906124f9565b336000908152600187016020526040902055610c9287856124f9565b600286015584546040517f09a786993c2becc8264c2a90ccc09ca6a571883f97635cc26ed418876b3bdb0a91610cde918b9160019133916001600160a01b0316908d908a908c906125a9565b60405180910390a160003382610cf485876124f9565b610cfe91906124f9565b604051600081818185875af1925050503d8060008114610d3a576040519150601f19603f3d011682016040523d82523d6000602084013e610d3f565b606091505b50506006546040519192506000916001600160a01b039091169085908381818185875af1925050503d8060008114610d93576040519150601f19603f3d011682016040523d82523d6000602084013e610d98565b606091505b505087546040519192506000916001600160a01b039091169085908381818185875af1925050503d8060008114610deb576040519150601f19603f3d011682016040523d82523d6000602084013e610df0565b606091505b50509050828015610dfe5750815b8015610e075750805b610e4a5760405162461bcd60e51b8152602060048201526014602482015273556e61626c6520746f2073656e642066756e647360601b60448201526064016109c6565b5050505050505050505050565b60006009548310610e7a5760405162461bcd60e51b81526004016109c690612558565b6000610e868484611bb1565b90506000670de0b6b3a764000060085483610ea1919061250c565b610eab9190612523565b90506000670de0b6b3a764000060075484610ec6919061250c565b610ed09190612523565b905080610edd8385612545565b610ee79190612545565b9695505050505050565b606060048054610f00906125e5565b80601f0160208091040260200160405190810160405280929190818152602001828054610f2c906125e5565b8015610f795780601f10610f4e57610100808354040283529160200191610f79565b820191906000526020600020905b815481529060010190602001808311610f5c57829003601f168201915b5050505050905090565b600033610f91818585611d8b565b5060019392505050565b60606009548210610fbe5760405162461bcd60e51b81526004016109c690612558565b60008281526013602052604090206003018054610fda906125e5565b80601f0160208091040260200160405190810160405280929190818152602001828054611006906125e5565b80156110535780601f1061102857610100808354040283529160200191611053565b820191906000526020600020905b81548152906001019060200180831161103657829003601f168201915b50505050509050919050565b600080606060095484106110855760405162461bcd60e51b81526004016109c690612558565b6000848152601360205260409020805460028201546003830180546001600160a01b039093169281906110b7906125e5565b80601f01602080910402602001604051908101604052809291908181526020018280546110e3906125e5565b80156111305780601f1061110557610100808354040283529160200191611130565b820191906000526020600020905b81548152906001019060200180831161111357829003601f168201915b50505050509050935093509350509193909250565b600033611153858285611eaf565b61115e858585611f23565b506001949350505050565b6111716120ce565b600755565b60098054600090815260136020818152604080842080546001600160a01b03191633908117909155855485528185209085526001908101835281852081905585548552929091528083206002019190915591548152206003016111da828483612683565b50600980549060006111eb83612744565b919050555060016009546111ff91906124f9565b60405133907f335b5487495f05d92d4db67accd7283d32ffa24a7eb1d604889b384e4888376290600090a35050565b600033610f918185856112418383611ce7565b61124b9190612545565b611d8b565b33611259611bf0565b600d55611264611641565b600c556001600160a01b038116156112ab5761127f816108fd565b6001600160a01b0382166000908152600f6020908152604080832093909355600d54600e909152919020555b336000908152600f60205260409020546012546003546112cb9083612545565b111561130e5760405162461bcd60e51b815260206004820152601260248201527113585e081cdd5c1c1b1e481c995858da195960721b60448201526064016109c6565b801561132e57336000818152600f602052604081205561132e9082612128565b5050565b60095483106113535760405162461bcd60e51b81526004016109c690612558565b6000838152601360205260409020546001600160a01b031633146113b95760405162461bcd60e51b815260206004820152601760248201527f4f6e6c7920746865206f776e65722063616e206564697400000000000000000060448201526064016109c6565b60008381526013602052604090206003016113d5828483612683565b50505050565b601481815481106113eb57600080fd5b600091825260209091200154905081565b600080600a548361140d91906124f9565b905060006301dfe200821015611452576301dfe20060146000815481106114365761143661275d565b906000526020600020015461144b9190612523565b905061150f565b6303bfc400821015611477576301dfe20060146001815481106114365761143661275d565b63059fa60082101561149c576301dfe20060146002815481106114365761143661275d565b63077f88008210156114c1576301dfe20060146003815481106114365761143661275d565b63095f6a008210156114e6576301dfe20060146004815481106114365761143661275d565b630b3f4c0082101561150b576301dfe20060146005815481106114365761143661275d565b5060005b9392505050565b600080831561157157600661152c6001866124f9565b61153790600261250c565b611542906001612545565b8561154e6001826124f9565b611558919061250c565b611562919061250c565b61156c9190612523565b611574565b60005b90506000841580156115865750836001145b6115fb576006846115986001886124f9565b6115a29190612545565b6115ad90600261250c565b6115b8906001612545565b6115c28688612545565b866115ce60018a6124f9565b6115d89190612545565b6115e2919061250c565b6115ec919061250c565b6115f69190612523565b6115fe565b60005b9050600061160c83836124f9565b9050610fa061162382670de0b6b3a764000061250c565b610ee79190612523565b6116356120ce565b61163f60006121e9565b565b600061164f600b5442612239565b905090565b600060095483106116775760405162461bcd60e51b81526004016109c690612558565b60008381526013602052604090206002015461150f906116989084906124f9565b83611516565b606060058054610f00906125e5565b6116b56120ce565b600680546001600160a01b0319166001600160a01b0392909216919091179055565b600033816116e58286611ce7565b9050838110156117455760405162461bcd60e51b815260206004820152602560248201527f45524332303a2064656372656173656420616c6c6f77616e63652062656c6f77604482015264207a65726f60d81b60648201526084016109c6565b61115e8286868403611d8b565b61175a6120ce565b600855565b600033610f91818585611f23565b33611776611bf0565b600d55611781611641565b600c556001600160a01b038116156117c85761179c816108fd565b6001600160a01b0382166000908152600f6020908152604080832093909355600d54600e909152919020555b60095483106117e95760405162461bcd60e51b81526004016109c690612558565b6000838152601360205260409020600281015480151580611813575081546001600160a01b031633145b6118775760405162461bcd60e51b815260206004820152602f60248201527f4f6e6c792074686520736861726573207375626a6563742063616e206275792060448201526e74686520666972737420736861726560881b60648201526084016109c6565b60006118838286611516565b336000908152601160205260409020549091506118a1908290612773565b336000908152601160205260409020556010546118bf908290612545565b601055600854600090670de0b6b3a7640000906118dc908461250c565b6118e69190612523565b90506000670de0b6b3a764000060075484611901919061250c565b61190b9190612523565b9050806119188385612545565b6119229190612545565b3410156119685760405162461bcd60e51b8152602060048201526014602482015273125b9cdd59999a58da595b9d081c185e5b595b9d60621b60448201526064016109c6565b336000908152600186016020526040902054611985908890612545565b3360009081526001870160205260409020556119a18785612545565b600286015584546040517f09a786993c2becc8264c2a90ccc09ca6a571883f97635cc26ed418876b3bdb0a916119ed918b9160009133916001600160a01b0316908d908a908c906125a9565b60405180910390a16006546040516000916001600160a01b03169084908381818185875af1925050503d8060008114611a42576040519150601f19603f3d011682016040523d82523d6000602084013e611a47565b606091505b505086546040519192506000916001600160a01b039091169084908381818185875af1925050503d8060008114611a9a576040519150601f19603f3d011682016040523d82523d6000602084013e611a9f565b606091505b50509050818015611aad5750805b611af05760405162461bcd60e51b8152602060048201526014602482015273556e61626c6520746f2073656e642066756e647360601b60448201526064016109c6565b50505050505050505050565b6013602052600090815260409020805460028201546003830180546001600160a01b03909316939192611b2e906125e5565b80601f0160208091040260200160405190810160405280929190818152602001828054611b5a906125e5565b8015611ba75780601f10611b7c57610100808354040283529160200191611ba7565b820191906000526020600020905b815481529060010190602001808311611b8a57829003601f168201915b5050505050905083565b60006009548310611bd45760405162461bcd60e51b81526004016109c690612558565b60008381526013602052604090206002015461150f9083611516565b6000601054600003611c035750600d5490565b601054600c54611c11611641565b611c1b91906124f9565b611c24426113fc565b611c2e919061250c565b611c4090670de0b6b3a764000061250c565b611c4a9190612523565b600d5461164f9190612545565b60006009548310611c7a5760405162461bcd60e51b81526004016109c690612558565b6000611c868484611654565b90506000670de0b6b3a764000060085483611ca1919061250c565b611cab9190612523565b90506000670de0b6b3a764000060075484611cc6919061250c565b611cd09190612523565b905080611cdd83856124f9565b610ee791906124f9565b6001600160a01b03918216600090815260026020908152604080832093909416825291909152205490565b611d1a6120ce565b6001600160a01b038116611d7f5760405162461bcd60e51b815260206004820152602660248201527f4f776e61626c653a206e6577206f776e657220697320746865207a65726f206160448201526564647265737360d01b60648201526084016109c6565b611d88816121e9565b50565b6001600160a01b038316611ded5760405162461bcd60e51b8152602060048201526024808201527f45524332303a20617070726f76652066726f6d20746865207a65726f206164646044820152637265737360e01b60648201526084016109c6565b6001600160a01b038216611e4e5760405162461bcd60e51b815260206004820152602260248201527f45524332303a20617070726f766520746f20746865207a65726f206164647265604482015261737360f01b60648201526084016109c6565b6001600160a01b0383811660008181526002602090815260408083209487168084529482529182902085905590518481527f8c5be1e5ebec7d5bd14f71427d1e84f3dd0314c0f7b2291e5b200ac8c7c3b925910160405180910390a3505050565b6000611ebb8484611ce7565b905060001981146113d55781811015611f165760405162461bcd60e51b815260206004820152601d60248201527f45524332303a20696e73756666696369656e7420616c6c6f77616e636500000060448201526064016109c6565b6113d58484848403611d8b565b6001600160a01b038316611f875760405162461bcd60e51b815260206004820152602560248201527f45524332303a207472616e736665722066726f6d20746865207a65726f206164604482015264647265737360d81b60648201526084016109c6565b6001600160a01b038216611fe95760405162461bcd60e51b815260206004820152602360248201527f45524332303a207472616e7366657220746f20746865207a65726f206164647260448201526265737360e81b60648201526084016109c6565b6001600160a01b038316600090815260016020526040902054818110156120615760405162461bcd60e51b815260206004820152602660248201527f45524332303a207472616e7366657220616d6f756e7420657863656564732062604482015265616c616e636560d01b60648201526084016109c6565b6001600160a01b0380851660008181526001602052604080822086860390559286168082529083902080548601905591517fddf252ad1be2c89b69c2b068fc378daa952ba7f163c4a11628f55a4df523b3ef906120c19086815260200190565b60405180910390a36113d5565b6000546001600160a01b0316331461163f5760405162461bcd60e51b815260206004820181905260248201527f4f776e61626c653a2063616c6c6572206973206e6f7420746865206f776e657260448201526064016109c6565b6001600160a01b03821661217e5760405162461bcd60e51b815260206004820152601f60248201527f45524332303a206d696e7420746f20746865207a65726f20616464726573730060448201526064016109c6565b80600360008282546121909190612545565b90915550506001600160a01b0382166000818152600160209081526040808320805486019055518481527fddf252ad1be2c89b69c2b068fc378daa952ba7f163c4a11628f55a4df523b3ef910160405180910390a35050565b600080546001600160a01b038381166001600160a01b0319831681178455604051919092169283917f8be0079c531659141344cd1fd0a4f28419497f9722a3daafe3b4186f6b6457e09190a35050565b600081831115612249578161150f565b5090919050565b505050565b80356001600160a01b038116811461226c57600080fd5b919050565b60006020828403121561228357600080fd5b61150f82612255565b6000806040838503121561229f57600080fd5b823591506122af60208401612255565b90509250929050565b600080604083850312156122cb57600080fd5b50508035926020909101359150565b6000815180845260005b81811015612300576020818501810151868301820152016122e4565b506000602082860101526020601f19601f83011685010191505092915050565b60208152600061150f60208301846122da565b6000806040838503121561234657600080fd5b61234f83612255565b946020939093013593505050565b60006020828403121561236f57600080fd5b5035919050565b60018060a01b038416815282602082015260606040820152600061239d60608301846122da565b95945050505050565b6000806000606084860312156123bb57600080fd5b6123c484612255565b92506123d260208501612255565b9150604084013590509250925092565b60008083601f8401126123f457600080fd5b50813567ffffffffffffffff81111561240c57600080fd5b60208301915083602082850101111561242457600080fd5b9250929050565b6000806020838503121561243e57600080fd5b823567ffffffffffffffff81111561245557600080fd5b612461858286016123e2565b90969095509350505050565b60008060006040848603121561248257600080fd5b83359250602084013567ffffffffffffffff8111156124a057600080fd5b6124ac868287016123e2565b9497909650939450505050565b600080604083850312156124cc57600080fd5b6124d583612255565b91506122af60208401612255565b634e487b7160e01b600052601160045260246000fd5b8181038181111561099d5761099d6124e3565b808202811582820484141761099d5761099d6124e3565b60008261254057634e487b7160e01b600052601260045260246000fd5b500490565b8082018082111561099d5761099d6124e3565b60208082526010908201526f125b9d985b1a59081cda185c99481a5960821b604082015260600190565b81810360008312801583831316838312821617156125a2576125a26124e3565b5092915050565b96875260208701959095526001600160a01b039384166040870152919092166060850152608084019190915260a083015260c082015260e00190565b600181811c908216806125f957607f821691505b60208210810361261957634e487b7160e01b600052602260045260246000fd5b50919050565b634e487b7160e01b600052604160045260246000fd5b601f82111561225057600081815260208120601f850160051c8101602086101561265c5750805b601f850160051c820191505b8181101561267b57828155600101612668565b505050505050565b67ffffffffffffffff83111561269b5761269b61261f565b6126af836126a983546125e5565b83612635565b6000601f8411600181146126e357600085156126cb5750838201355b600019600387901b1c1916600186901b17835561273d565b600083815260209020601f19861690835b8281101561271457868501358255602094850194600190920191016126f4565b50868210156127315760001960f88860031b161c19848701351681555b505060018560011b0183555b5050505050565b600060018201612756576127566124e3565b5060010190565b634e487b7160e01b600052603260045260246000fd5b8082018281126000831280158216821582161715612793576127936124e3565b50509291505056fea2646970667358221220d532522c8d43dae6b7f481bb01e944c308d7084f0cd2d80008f1ede6dd7615b964736f6c63430008150033",
    "linkReferences": {}
  },
  "methodIdentifiers": {
    "allowance(address,address)": "dd62ed3e",
    "approve(address,uint256)": "095ea7b3",
    "balanceOf(address)": "70a08231",
    "buyShare(uint256,uint256)": "aca75a52",
    "createShare(string)": "2e3de7a5",
    "currentId()": "e00dd161",
    "decimals()": "313ce567",
    "decreaseAllowance(address,uint256)": "a457c2d7",
    "earned(address)": "008cc262",
    "editUri(uint256,string)": "4bcc7d7d",
    "epoch(uint256)": "5487c577",
    "finishAt()": "67d3b488",
    "getBuyPrice(uint256,uint256)": "c157253d",
    "getBuyPriceAfterFee(uint256,uint256)": "063a741f",
    "getPrice(uint256,uint256)": "5cf4ee91",
    "getRate(uint256)": "57764094",
    "getReward()": "3d18b912",
    "getSellPrice(uint256,uint256)": "9477d85d",
    "getSellPriceAfterFee(uint256,uint256)": "cd9c7121",
    "getShareBalance(uint256,address)": "0391f64c",
    "getShareInfo(uint256)": "1d92d3b9",
    "increaseAllowance(address,uint256)": "39509351",
    "lastTimeRewardApplicable()": "80faa57d",
    "maxSupply()": "d5abeb01",
    "name()": "06fdde03",
    "openInterest()": "fa5a2e62",
    "owner()": "8da5cb5b",
    "protocolFeeDestination()": "4ce7957c",
    "protocolFeePercent()": "d6e6eb9f",
    "renounceOwnership()": "715018a6",
    "rewardPerEthStored()": "d4d83ec4",
    "rewardPerToken()": "cd3daf9d",
    "rewards(address)": "0700037d",
    "rewardsToken()": "d1af0c7d",
    "royaltyFeePercent()": "dca615ed",
    "sellShare(uint256,uint256)": "0519e975",
    "setProtocolFeeDestination(address)": "a10786b0",
    "setProtocolFeePercent(uint256)": "a4983421",
    "setRoyaltyFeePercent(uint256)": "298fe880",
    "shareInfo(uint256)": "adacd487",
    "startTime()": "78e97925",
    "symbol()": "95d89b41",
    "totalSupply()": "18160ddd",
    "transfer(address,uint256)": "a9059cbb",
    "transferFrom(address,address,uint256)": "23b872dd",
    "transferOwnership(address)": "f2fde38b",
    "updatedAt()": "7519ab50",
    "uri(uint256)": "0e89341c",
    "userNetEthContributed(address)": "bbcb3fb2",
    "userRewardPerEthPaid(address)": "96411538"
  },
  "id": 23
}