{
  "abi": [
    {
      "inputs": [
        {
          "internalType": "address",
          "name": "_protocolFeeDestination",
          "type": "address"
        },
        {
          "internalType": "uint256",
          "name": "_protocolFeePercent",
          "type": "uint256"
        }
      ],
      "stateMutability": "nonpayable",
      "type": "constructor"
    },
    {
      "anonymous": false,
      "inputs": [
        {
          "indexed": true,
          "internalType": "address",
          "name": "owner",
          "type": "address"
        },
        {
          "indexed": true,
          "internalType": "address",
          "name": "spender",
          "type": "address"
        },
        {
          "indexed": false,
          "internalType": "uint256",
          "name": "value",
          "type": "uint256"
        }
      ],
      "name": "Approval",
      "type": "event"
    },
    {
      "anonymous": false,
      "inputs": [
        {
          "indexed": true,
          "internalType": "address",
          "name": "previousOwner",
          "type": "address"
        },
        {
          "indexed": true,
          "internalType": "address",
          "name": "newOwner",
          "type": "address"
        }
      ],
      "name": "OwnershipTransferred",
      "type": "event"
    },
    {
      "anonymous": false,
      "inputs": [
        {
          "indexed": true,
          "internalType": "address",
          "name": "owner",
          "type": "address"
        },
        {
          "indexed": true,
          "internalType": "uint256",
          "name": "id",
          "type": "uint256"
        }
      ],
      "name": "ShareCreated",
      "type": "event"
    },
    {
      "anonymous": false,
      "inputs": [
        {
          "indexed": false,
          "internalType": "uint256",
          "name": "id",
          "type": "uint256"
        },
        {
          "indexed": false,
          "internalType": "uint256",
          "name": "side",
          "type": "uint256"
        },
        {
          "indexed": false,
          "internalType": "address",
          "name": "trader",
          "type": "address"
        },
        {
          "indexed": false,
          "internalType": "address",
          "name": "owner",
          "type": "address"
        },
        {
          "indexed": false,
          "internalType": "uint256",
          "name": "amount",
          "type": "uint256"
        },
        {
          "indexed": false,
          "internalType": "uint256",
          "name": "price",
          "type": "uint256"
        },
        {
          "indexed": false,
          "internalType": "uint256",
          "name": "supply",
          "type": "uint256"
        }
      ],
      "name": "Trade",
      "type": "event"
    },
    {
      "anonymous": false,
      "inputs": [
        {
          "indexed": true,
          "internalType": "address",
          "name": "from",
          "type": "address"
        },
        {
          "indexed": true,
          "internalType": "address",
          "name": "to",
          "type": "address"
        },
        {
          "indexed": false,
          "internalType": "uint256",
          "name": "value",
          "type": "uint256"
        }
      ],
      "name": "Transfer",
      "type": "event"
    },
    {
      "inputs": [
        {
          "internalType": "address",
          "name": "owner",
          "type": "address"
        },
        {
          "internalType": "address",
          "name": "spender",
          "type": "address"
        }
      ],
      "name": "allowance",
      "outputs": [
        {
          "internalType": "uint256",
          "name": "",
          "type": "uint256"
        }
      ],
      "stateMutability": "view",
      "type": "function"
    },
    {
      "inputs": [
        {
          "internalType": "address",
          "name": "spender",
          "type": "address"
        },
        {
          "internalType": "uint256",
          "name": "amount",
          "type": "uint256"
        }
      ],
      "name": "approve",
      "outputs": [
        {
          "internalType": "bool",
          "name": "",
          "type": "bool"
        }
      ],
      "stateMutability": "nonpayable",
      "type": "function"
    },
    {
      "inputs": [
        {
          "internalType": "address",
          "name": "account",
          "type": "address"
        }
      ],
      "name": "balanceOf",
      "outputs": [
        {
          "internalType": "uint256",
          "name": "",
          "type": "uint256"
        }
      ],
      "stateMutability": "view",
      "type": "function"
    },
    {
      "inputs": [
        {
          "internalType": "uint256",
          "name": "id",
          "type": "uint256"
        },
        {
          "internalType": "uint256",
          "name": "amount",
          "type": "uint256"
        }
      ],
      "name": "buyShare",
      "outputs": [],
      "stateMutability": "payable",
      "type": "function"
    },
    {
      "inputs": [
        {
          "internalType": "string",
          "name": "_uri",
          "type": "string"
        }
      ],
      "name": "createShare",
      "outputs": [],
      "stateMutability": "nonpayable",
      "type": "function"
    },
    {
      "inputs": [],
      "name": "currentId",
      "outputs": [
        {
          "internalType": "uint256",
          "name": "",
          "type": "uint256"
        }
      ],
      "stateMutability": "view",
      "type": "function"
    },
    {
      "inputs": [
        {
          "internalType": "uint256",
          "name": "currentTime",
          "type": "uint256"
        }
      ],
      "name": "currentRewardPool",
      "outputs": [
        {
          "internalType": "uint256",
          "name": "",
          "type": "uint256"
        }
      ],
      "stateMutability": "view",
      "type": "function"
    },
    {
      "inputs": [],
      "name": "decimals",
      "outputs": [
        {
          "internalType": "uint8",
          "name": "",
          "type": "uint8"
        }
      ],
      "stateMutability": "view",
      "type": "function"
    },
    {
      "inputs": [
        {
          "internalType": "address",
          "name": "spender",
          "type": "address"
        },
        {
          "internalType": "uint256",
          "name": "subtractedValue",
          "type": "uint256"
        }
      ],
      "name": "decreaseAllowance",
      "outputs": [
        {
          "internalType": "bool",
          "name": "",
          "type": "bool"
        }
      ],
      "stateMutability": "nonpayable",
      "type": "function"
    },
    {
      "inputs": [],
      "name": "duration",
      "outputs": [
        {
          "internalType": "uint256",
          "name": "",
          "type": "uint256"
        }
      ],
      "stateMutability": "view",
      "type": "function"
    },
    {
      "inputs": [
        {
          "internalType": "address",
          "name": "_account",
          "type": "address"
        }
      ],
      "name": "earned",
      "outputs": [
        {
          "internalType": "uint256",
          "name": "",
          "type": "uint256"
        }
      ],
      "stateMutability": "view",
      "type": "function"
    },
    {
      "inputs": [
        {
          "internalType": "uint256",
          "name": "id",
          "type": "uint256"
        },
        {
          "internalType": "string",
          "name": "_uri",
          "type": "string"
        }
      ],
      "name": "editUri",
      "outputs": [],
      "stateMutability": "nonpayable",
      "type": "function"
    },
    {
      "inputs": [],
      "name": "finishAt",
      "outputs": [
        {
          "internalType": "uint256",
          "name": "",
          "type": "uint256"
        }
      ],
      "stateMutability": "view",
      "type": "function"
    },
    {
      "inputs": [
        {
          "internalType": "uint256",
          "name": "id",
          "type": "uint256"
        },
        {
          "internalType": "uint256",
          "name": "amount",
          "type": "uint256"
        }
      ],
      "name": "getBuyPrice",
      "outputs": [
        {
          "internalType": "uint256",
          "name": "",
          "type": "uint256"
        }
      ],
      "stateMutability": "view",
      "type": "function"
    },
    {
      "inputs": [
        {
          "internalType": "uint256",
          "name": "id",
          "type": "uint256"
        },
        {
          "internalType": "uint256",
          "name": "amount",
          "type": "uint256"
        }
      ],
      "name": "getBuyPriceAfterFee",
      "outputs": [
        {
          "internalType": "uint256",
          "name": "",
          "type": "uint256"
        }
      ],
      "stateMutability": "view",
      "type": "function"
    },
    {
      "inputs": [
        {
          "internalType": "uint256",
          "name": "supply",
          "type": "uint256"
        },
        {
          "internalType": "uint256",
          "name": "amount",
          "type": "uint256"
        }
      ],
      "name": "getPrice",
      "outputs": [
        {
          "internalType": "uint256",
          "name": "",
          "type": "uint256"
        }
      ],
      "stateMutability": "pure",
      "type": "function"
    },
    {
      "inputs": [
        {
          "internalType": "uint256",
          "name": "currentTime",
          "type": "uint256"
        }
      ],
      "name": "getRate",
      "outputs": [
        {
          "internalType": "uint256",
          "name": "",
          "type": "uint256"
        }
      ],
      "stateMutability": "view",
      "type": "function"
    },
    {
      "inputs": [],
      "name": "getReward",
      "outputs": [],
      "stateMutability": "nonpayable",
      "type": "function"
    },
    {
      "inputs": [
        {
          "internalType": "uint256",
          "name": "id",
          "type": "uint256"
        },
        {
          "internalType": "uint256",
          "name": "amount",
          "type": "uint256"
        }
      ],
      "name": "getSellPrice",
      "outputs": [
        {
          "internalType": "uint256",
          "name": "",
          "type": "uint256"
        }
      ],
      "stateMutability": "view",
      "type": "function"
    },
    {
      "inputs": [
        {
          "internalType": "uint256",
          "name": "id",
          "type": "uint256"
        },
        {
          "internalType": "uint256",
          "name": "amount",
          "type": "uint256"
        }
      ],
      "name": "getSellPriceAfterFee",
      "outputs": [
        {
          "internalType": "uint256",
          "name": "",
          "type": "uint256"
        }
      ],
      "stateMutability": "view",
      "type": "function"
    },
    {
      "inputs": [
        {
          "internalType": "uint256",
          "name": "id",
          "type": "uint256"
        },
        {
          "internalType": "address",
          "name": "user",
          "type": "address"
        }
      ],
      "name": "getShareBalance",
      "outputs": [
        {
          "internalType": "uint256",
          "name": "",
          "type": "uint256"
        }
      ],
      "stateMutability": "view",
      "type": "function"
    },
    {
      "inputs": [
        {
          "internalType": "uint256",
          "name": "id",
          "type": "uint256"
        }
      ],
      "name": "getShareInfo",
      "outputs": [
        {
          "internalType": "address",
          "name": "_owner",
          "type": "address"
        },
        {
          "internalType": "uint256",
          "name": "_totalSupply",
          "type": "uint256"
        },
        {
          "internalType": "string",
          "name": "_uri",
          "type": "string"
        }
      ],
      "stateMutability": "view",
      "type": "function"
    },
    {
      "inputs": [
        {
          "internalType": "address",
          "name": "user",
          "type": "address"
        }
      ],
      "name": "getUserOwnedShares",
      "outputs": [
        {
          "internalType": "uint256[]",
          "name": "",
          "type": "uint256[]"
        }
      ],
      "stateMutability": "view",
      "type": "function"
    },
    {
      "inputs": [
        {
          "internalType": "address",
          "name": "spender",
          "type": "address"
        },
        {
          "internalType": "uint256",
          "name": "addedValue",
          "type": "uint256"
        }
      ],
      "name": "increaseAllowance",
      "outputs": [
        {
          "internalType": "bool",
          "name": "",
          "type": "bool"
        }
      ],
      "stateMutability": "nonpayable",
      "type": "function"
    },
    {
      "inputs": [],
      "name": "lastTimeRewardApplicable",
      "outputs": [
        {
          "internalType": "uint256",
          "name": "",
          "type": "uint256"
        }
      ],
      "stateMutability": "view",
      "type": "function"
    },
    {
      "inputs": [],
      "name": "maxSupply",
      "outputs": [
        {
          "internalType": "uint256",
          "name": "",
          "type": "uint256"
        }
      ],
      "stateMutability": "view",
      "type": "function"
    },
    {
      "inputs": [],
      "name": "name",
      "outputs": [
        {
          "internalType": "string",
          "name": "",
          "type": "string"
        }
      ],
      "stateMutability": "view",
      "type": "function"
    },
    {
      "inputs": [],
      "name": "openInterest",
      "outputs": [
        {
          "internalType": "uint256",
          "name": "",
          "type": "uint256"
        }
      ],
      "stateMutability": "view",
      "type": "function"
    },
    {
      "inputs": [],
      "name": "owner",
      "outputs": [
        {
          "internalType": "address",
          "name": "",
          "type": "address"
        }
      ],
      "stateMutability": "view",
      "type": "function"
    },
    {
      "inputs": [],
      "name": "protocolFeeDestination",
      "outputs": [
        {
          "internalType": "address",
          "name": "",
          "type": "address"
        }
      ],
      "stateMutability": "view",
      "type": "function"
    },
    {
      "inputs": [],
      "name": "protocolFeePercent",
      "outputs": [
        {
          "internalType": "uint256",
          "name": "",
          "type": "uint256"
        }
      ],
      "stateMutability": "view",
      "type": "function"
    },
    {
      "inputs": [],
      "name": "renounceOwnership",
      "outputs": [],
      "stateMutability": "nonpayable",
      "type": "function"
    },
    {
      "inputs": [],
      "name": "rewardPerEthStored",
      "outputs": [
        {
          "internalType": "uint256",
          "name": "",
          "type": "uint256"
        }
      ],
      "stateMutability": "view",
      "type": "function"
    },
    {
      "inputs": [],
      "name": "rewardPerToken",
      "outputs": [
        {
          "internalType": "uint256",
          "name": "",
          "type": "uint256"
        }
      ],
      "stateMutability": "view",
      "type": "function"
    },
    {
      "inputs": [
        {
          "internalType": "address",
          "name": "",
          "type": "address"
        }
      ],
      "name": "rewards",
      "outputs": [
        {
          "internalType": "uint256",
          "name": "",
          "type": "uint256"
        }
      ],
      "stateMutability": "view",
      "type": "function"
    },
    {
      "inputs": [],
      "name": "rewardsToken",
      "outputs": [
        {
          "internalType": "contract IERC20",
          "name": "",
          "type": "address"
        }
      ],
      "stateMutability": "view",
      "type": "function"
    },
    {
      "inputs": [
        {
          "internalType": "uint256",
          "name": "id",
          "type": "uint256"
        },
        {
          "internalType": "uint256",
          "name": "amount",
          "type": "uint256"
        }
      ],
      "name": "sellShare",
      "outputs": [],
      "stateMutability": "nonpayable",
      "type": "function"
    },
    {
      "inputs": [
        {
          "internalType": "address",
          "name": "_protocolFeeDestination",
          "type": "address"
        }
      ],
      "name": "setProtocolFeeDestination",
      "outputs": [],
      "stateMutability": "nonpayable",
      "type": "function"
    },
    {
      "inputs": [
        {
          "internalType": "uint256",
          "name": "_protocolFeePercent",
          "type": "uint256"
        }
      ],
      "name": "setProtocolFeePercent",
      "outputs": [],
      "stateMutability": "nonpayable",
      "type": "function"
    },
    {
      "inputs": [
        {
          "internalType": "uint256",
          "name": "",
          "type": "uint256"
        }
      ],
      "name": "shareInfo",
      "outputs": [
        {
          "internalType": "address",
          "name": "owner",
          "type": "address"
        },
        {
          "internalType": "uint256",
          "name": "totalSupply",
          "type": "uint256"
        },
        {
          "internalType": "string",
          "name": "uri",
          "type": "string"
        }
      ],
      "stateMutability": "view",
      "type": "function"
    },
    {
      "inputs": [],
      "name": "startTime",
      "outputs": [
        {
          "internalType": "uint256",
          "name": "",
          "type": "uint256"
        }
      ],
      "stateMutability": "view",
      "type": "function"
    },
    {
      "inputs": [],
      "name": "symbol",
      "outputs": [
        {
          "internalType": "string",
          "name": "",
          "type": "string"
        }
      ],
      "stateMutability": "view",
      "type": "function"
    },
    {
      "inputs": [],
      "name": "tokensRemaining",
      "outputs": [
        {
          "internalType": "uint256",
          "name": "",
          "type": "uint256"
        }
      ],
      "stateMutability": "view",
      "type": "function"
    },
    {
      "inputs": [],
      "name": "totalSupply",
      "outputs": [
        {
          "internalType": "uint256",
          "name": "",
          "type": "uint256"
        }
      ],
      "stateMutability": "view",
      "type": "function"
    },
    {
      "inputs": [
        {
          "internalType": "address",
          "name": "to",
          "type": "address"
        },
        {
          "internalType": "uint256",
          "name": "amount",
          "type": "uint256"
        }
      ],
      "name": "transfer",
      "outputs": [
        {
          "internalType": "bool",
          "name": "",
          "type": "bool"
        }
      ],
      "stateMutability": "nonpayable",
      "type": "function"
    },
    {
      "inputs": [
        {
          "internalType": "address",
          "name": "from",
          "type": "address"
        },
        {
          "internalType": "address",
          "name": "to",
          "type": "address"
        },
        {
          "internalType": "uint256",
          "name": "amount",
          "type": "uint256"
        }
      ],
      "name": "transferFrom",
      "outputs": [
        {
          "internalType": "bool",
          "name": "",
          "type": "bool"
        }
      ],
      "stateMutability": "nonpayable",
      "type": "function"
    },
    {
      "inputs": [
        {
          "internalType": "address",
          "name": "newOwner",
          "type": "address"
        }
      ],
      "name": "transferOwnership",
      "outputs": [],
      "stateMutability": "nonpayable",
      "type": "function"
    },
    {
      "inputs": [],
      "name": "updatedAt",
      "outputs": [
        {
          "internalType": "uint256",
          "name": "",
          "type": "uint256"
        }
      ],
      "stateMutability": "view",
      "type": "function"
    },
    {
      "inputs": [
        {
          "internalType": "uint256",
          "name": "id",
          "type": "uint256"
        }
      ],
      "name": "uri",
      "outputs": [
        {
          "internalType": "string",
          "name": "",
          "type": "string"
        }
      ],
      "stateMutability": "view",
      "type": "function"
    },
    {
      "inputs": [
        {
          "internalType": "address",
          "name": "",
          "type": "address"
        }
      ],
      "name": "userEthContributed",
      "outputs": [
        {
          "internalType": "uint256",
          "name": "",
          "type": "uint256"
        }
      ],
      "stateMutability": "view",
      "type": "function"
    },
    {
      "inputs": [
        {
          "internalType": "address",
          "name": "",
          "type": "address"
        },
        {
          "internalType": "uint256",
          "name": "",
          "type": "uint256"
        }
      ],
      "name": "userOwnedShares",
      "outputs": [
        {
          "internalType": "uint256",
          "name": "",
          "type": "uint256"
        }
      ],
      "stateMutability": "view",
      "type": "function"
    },
    {
      "inputs": [
        {
          "internalType": "address",
          "name": "",
          "type": "address"
        }
      ],
      "name": "userRewardPerEthPaid",
      "outputs": [
        {
          "internalType": "uint256",
          "name": "",
          "type": "uint256"
        }
      ],
      "stateMutability": "view",
      "type": "function"
    }
  ],
  "bytecode": {
    "object": "0x60a06040526000600855630b488680600a556b204fce5e3e250261100000006012553480156200002e57600080fd5b506040516200291a3803806200291a833981016040819052620000519162000245565b6040518060400160405280600681526020016510dd5c9d995960d21b8152506040518060400160405280600681526020016510d55495915160d21b815250620000a9620000a36200012460201b60201c565b62000128565b6004620000b7838262000325565b506005620000c6828262000325565b5050600680546001600160a01b0319166001600160a01b038516179055506007819055426009819055600a54620000fd91620003f1565b600b55306080526200011c336b06765c793fa10079d000000062000178565b505062000419565b3390565b600080546001600160a01b038381166001600160a01b0319831681178455604051919092169283917f8be0079c531659141344cd1fd0a4f28419497f9722a3daafe3b4186f6b6457e09190a35050565b6001600160a01b038216620001d35760405162461bcd60e51b815260206004820152601f60248201527f45524332303a206d696e7420746f20746865207a65726f206164647265737300604482015260640160405180910390fd5b8060036000828254620001e79190620003f1565b90915550506001600160a01b0382166000818152600160209081526040808320805486019055518481527fddf252ad1be2c89b69c2b068fc378daa952ba7f163c4a11628f55a4df523b3ef910160405180910390a35050565b505050565b600080604083850312156200025957600080fd5b82516001600160a01b03811681146200027157600080fd5b6020939093015192949293505050565b634e487b7160e01b600052604160045260246000fd5b600181811c90821680620002ac57607f821691505b602082108103620002cd57634e487b7160e01b600052602260045260246000fd5b50919050565b601f8211156200024057600081815260208120601f850160051c81016020861015620002fc5750805b601f850160051c820191505b818110156200031d5782815560010162000308565b505050505050565b81516001600160401b0381111562000341576200034162000281565b620003598162000352845462000297565b84620002d3565b602080601f831160018114620003915760008415620003785750858301515b600019600386901b1c1916600185901b1785556200031d565b600085815260208120601f198616915b82811015620003c257888601518255948401946001909101908401620003a1565b5085821015620003e15787850151600019600388901b60f8161c191681555b5050505050600190811b01905550565b808201808211156200041357634e487b7160e01b600052601160045260246000fd5b92915050565b6080516124e56200043560003960006108a501526124e56000f3fe6080604052600436106102fe5760003560e01c80637519ab5011610190578063adacd487116100dc578063d4d83ec411610095578063dd62ed3e1161006f578063dd62ed3e14610909578063e00dd16114610929578063f2fde38b1461093f578063fa5a2e621461095f57600080fd5b8063d4d83ec4146108c7578063d5abeb01146108dd578063d6e6eb9f146108f357600080fd5b8063adacd48714610809578063c157253d14610829578063c8b0812514610849578063cd3daf9d1461085e578063cd9c712114610873578063d1af0c7d1461089357600080fd5b80639641153811610149578063a457c2d711610123578063a457c2d714610796578063a4983421146107b6578063a9059cbb146107d6578063aca75a52146107f657600080fd5b80639641153814610729578063a10786b014610756578063a2561ca11461077657600080fd5b80637519ab501461069557806378e97925146106ab57806380faa57d146106c15780638da5cb5b146106d65780639477d85d146106f457806395d89b411461071457600080fd5b80632e3de7a51161024f5780634ce7957c116102085780635cf4ee91116101e25780635cf4ee911461061457806367d3b4881461063457806370a082311461064a578063715018a61461068057600080fd5b80634ce7957c1461058f578063547d6a9b146105c757806357764094146105f457600080fd5b80632e3de7a5146104de578063313ce567146104fe578063395093511461051a5780633d18b9121461053a578063486afd451461054f5780634bcc7d7d1461056f57600080fd5b80630700037d116102bc5780630fb5a6b4116102965780630fb5a6b41461046457806318160ddd1461047a5780631d92d3b91461048f57806323b872dd146104be57600080fd5b80630700037d146103e7578063095ea7b3146104145780630e89341c1461044457600080fd5b80628cc262146103035780630391f64c146103365780630519e97514610356578063061cd06914610378578063063a741f146103a557806306fdde03146103c5575b600080fd5b34801561030f57600080fd5b5061032361031e366004611faf565b610975565b6040519081526020015b60405180910390f35b34801561034257600080fd5b50610323610351366004611fca565b6109f2565b34801561036257600080fd5b50610376610371366004611ff6565b610a4b565b005b34801561038457600080fd5b50610323610393366004611faf565b60116020526000908152604090205481565b3480156103b157600080fd5b506103236103c0366004611ff6565b610d2d565b3480156103d157600080fd5b506103da610d96565b60405161032d919061205e565b3480156103f357600080fd5b50610323610402366004611faf565b600f6020526000908152604090205481565b34801561042057600080fd5b5061043461042f366004612071565b610e28565b604051901515815260200161032d565b34801561045057600080fd5b506103da61045f36600461209b565b610e40565b34801561047057600080fd5b50610323600a5481565b34801561048657600080fd5b50600354610323565b34801561049b57600080fd5b506104af6104aa36600461209b565b610f04565b60405161032d939291906120b4565b3480156104ca57600080fd5b506104346104d93660046120db565b610fea565b3480156104ea57600080fd5b506103766104f9366004612160565b61100e565b34801561050a57600080fd5b506040516012815260200161032d565b34801561052657600080fd5b50610434610535366004612071565b6110ec565b34801561054657600080fd5b5061037661110e565b34801561055b57600080fd5b5061032361056a366004612071565b61119d565b34801561057b57600080fd5b5061037661058a3660046121a2565b6111ce565b34801561059b57600080fd5b506006546105af906001600160a01b031681565b6040516001600160a01b03909116815260200161032d565b3480156105d357600080fd5b506105e76105e2366004611faf565b611277565b60405161032d91906121ee565b34801561060057600080fd5b5061032361060f36600461209b565b6112e2565b34801561062057600080fd5b5061032361062f366004611ff6565b6112fa565b34801561064057600080fd5b50610323600b5481565b34801561065657600080fd5b50610323610665366004611faf565b6001600160a01b031660009081526001602052604090205490565b34801561068c57600080fd5b5061037661141b565b3480156106a157600080fd5b50610323600c5481565b3480156106b757600080fd5b5061032360095481565b3480156106cd57600080fd5b5061032361142f565b3480156106e257600080fd5b506000546001600160a01b03166105af565b34801561070057600080fd5b5061032361070f366004611ff6565b611442565b34801561072057600080fd5b506103da611493565b34801561073557600080fd5b50610323610744366004611faf565b600e6020526000908152604090205481565b34801561076257600080fd5b50610376610771366004611faf565b6114a2565b34801561078257600080fd5b5061032361079136600461209b565b6114cc565b3480156107a257600080fd5b506104346107b1366004612071565b6115a9565b3480156107c257600080fd5b506103766107d136600461209b565b611624565b3480156107e257600080fd5b506104346107f1366004612071565b611631565b610376610804366004611ff6565b61163f565b34801561081557600080fd5b506104af61082436600461209b565b611856565b34801561083557600080fd5b50610323610844366004611ff6565b61190b565b34801561085557600080fd5b5061032361194a565b34801561086a57600080fd5b50610323611962565b34801561087f57600080fd5b5061032361088e366004611ff6565b6119c5565b34801561089f57600080fd5b506105af7f000000000000000000000000000000000000000000000000000000000000000081565b3480156108d357600080fd5b50610323600d5481565b3480156108e957600080fd5b5061032360125481565b3480156108ff57600080fd5b5061032360075481565b34801561091557600080fd5b50610323610924366004612232565b611a25565b34801561093557600080fd5b5061032360085481565b34801561094b57600080fd5b5061037661095a366004611faf565b611a50565b34801561096b57600080fd5b5061032360105481565b6001600160a01b0381166000908152600f6020908152604080832054600e909252822054670de0b6b3a7640000906109ab611962565b6109b59190612272565b6001600160a01b0385166000908152601160205260409020546109d89190612285565b6109e2919061229c565b6109ec91906122be565b92915050565b60006008548310610a1e5760405162461bcd60e51b8152600401610a15906122d1565b60405180910390fd5b5060008281526014602090815260408083206001600160a01b038516845260010190915290205492915050565b6008548210610a6c5760405162461bcd60e51b8152600401610a15906122d1565b6000828152601460209081526040808320600281015433855260018201909352922054831115610ade5760405162461bcd60e51b815260206004820152601a60248201527f496e73756666696369656e742073686172652062616c616e63650000000000006044820152606401610a15565b6000838360020154610af09190612272565b11610b555760405162461bcd60e51b815260206004820152602f60248201527f43616e6e6f742073656c6c20616c6c207368617265732c206d757374206c656160448201526e7665206174206c65617374206f6e6560881b6064820152608401610a15565b6000610b6a610b648584612272565b856112fa565b336000908152601160205260409020549091508110610b985733600090815260116020526040812055610bc4565b33600090815260116020526040902054610bb3908290612272565b336000908152601160205260409020555b80601054610bd29190612272565b601055600754600090670de0b6b3a764000090610bef9084612285565b610bf9919061229c565b336000908152600186016020526040902054909150610c19908690612272565b336000908152600186016020526040902055610c358584612272565b600285015583546040517f09a786993c2becc8264c2a90ccc09ca6a571883f97635cc26ed418876b3bdb0a91610c8191899160019133916001600160a01b0316908b9089908b906122fb565b60405180910390a1600033610c968385612272565b6040515b60006040518083038185875af1925050503d8060008114610cd7576040519150601f19603f3d011682016040523d82523d6000602084013e610cdc565b606091505b5050905080610d245760405162461bcd60e51b8152602060048201526014602482015273556e61626c6520746f2073656e642066756e647360601b6044820152606401610a15565b50505050505050565b60006008548310610d505760405162461bcd60e51b8152600401610a15906122d1565b6000610d5c848461190b565b90506000670de0b6b3a764000060075483610d779190612285565b610d81919061229c565b9050610d8d81836122be565b95945050505050565b606060048054610da590612337565b80601f0160208091040260200160405190810160405280929190818152602001828054610dd190612337565b8015610e1e5780601f10610df357610100808354040283529160200191610e1e565b820191906000526020600020905b815481529060010190602001808311610e0157829003601f168201915b5050505050905090565b600033610e36818585611ac9565b5060019392505050565b60606008548210610e635760405162461bcd60e51b8152600401610a15906122d1565b60008281526014602052604090206003018054610e7f90612337565b80601f0160208091040260200160405190810160405280929190818152602001828054610eab90612337565b8015610ef85780601f10610ecd57610100808354040283529160200191610ef8565b820191906000526020600020905b815481529060010190602001808311610edb57829003601f168201915b50505050509050919050565b60008060606008548410610f2a5760405162461bcd60e51b8152600401610a15906122d1565b6000848152601460205260409020805460028201546003830180546001600160a01b03909316928190610f5c90612337565b80601f0160208091040260200160405190810160405280929190818152602001828054610f8890612337565b8015610fd55780601f10610faa57610100808354040283529160200191610fd5565b820191906000526020600020905b815481529060010190602001808311610fb857829003601f168201915b50505050509050935093509350509193909250565b600033610ff8858285611bed565b611003858585611c61565b506001949350505050565b60088054600090815260146020818152604080842080546001600160a01b03191633908117909155855485528185209085526001908101835281852081905585548552929091528083206002019190915591548152206003016110728284836123d5565b503360009081526013602090815260408220600880548254600181018455928552928420909101919091558054916110a983612496565b919050555060016008546110bd9190612272565b60405133907f335b5487495f05d92d4db67accd7283d32ffa24a7eb1d604889b384e4888376290600090a35050565b600033610e368185856110ff8383611a25565b61110991906122be565b611ac9565b33611117611962565b600d5561112261142f565b600c556001600160a01b038116156111695761113d81610975565b6001600160a01b0382166000908152600f6020908152604080832093909355600d54600e909152919020555b336000908152600f6020526040902054801561119957336000818152600f60205260408120556111999082611e0c565b5050565b601360205281600052604060002081815481106111b957600080fd5b90600052602060002001600091509150505481565b60085483106111ef5760405162461bcd60e51b8152600401610a15906122d1565b6000838152601460205260409020546001600160a01b031633146112555760405162461bcd60e51b815260206004820152601760248201527f4f6e6c7920746865206f776e65722063616e20656469740000000000000000006044820152606401610a15565b60008381526014602052604090206003016112718284836123d5565b50505050565b6001600160a01b038116600090815260136020908152604091829020805483518184028101840190945280845260609392830182828015610ef857602002820191906000526020600020905b8154815260200190600101908083116112c35750505050509050919050565b6000600a546112f0836114cc565b6109ec919061229c565b6000808315611355576006611310600186612272565b61131b906002612285565b6113269060016122be565b85611332600182612272565b61133c9190612285565b6113469190612285565b611350919061229c565b611358565b60005b905060008415801561136a5750836001145b6113df5760068461137c600188612272565b61138691906122be565b611391906002612285565b61139c9060016122be565b6113a686886122be565b866113b260018a612272565b6113bc91906122be565b6113c69190612285565b6113d09190612285565b6113da919061229c565b6113e2565b60005b905060006113f08383612272565b9050610fa061140782670de0b6b3a7640000612285565b611411919061229c565b9695505050505050565b611423611ecd565b61142d6000611f27565b565b600061143d600b5442611f77565b905090565b600060085483106114655760405162461bcd60e51b8152600401610a15906122d1565b60008381526014602052604090206002015461148c90611486908490612272565b836112fa565b9392505050565b606060058054610da590612337565b6114aa611ecd565b600680546001600160a01b0319166001600160a01b0392909216919091179055565b600080600954836114dd9190612272565b905060006114ef6301dfe2008361229c565b90508060000361150e57506b0cecb8f27f4200f3a00000009392505050565b8060010361152b57506b052b7d2dcc80cd2e400000009392505050565b8060020361154857506b033b2e3c9fd0803ce80000009392505050565b8060030361156557506b01f04ef12cb04cf1580000009392505050565b8060040361158257506b015b6a759f4835dc240000009392505050565b8060050361159f57506b013a542146f830bafc0000009392505050565b5060009392505050565b600033816115b78286611a25565b9050838110156116175760405162461bcd60e51b815260206004820152602560248201527f45524332303a2064656372656173656420616c6c6f77616e63652062656c6f77604482015264207a65726f60d81b6064820152608401610a15565b6110038286868403611ac9565b61162c611ecd565b600755565b600033610e36818585611c61565b60085482106116605760405162461bcd60e51b8152600401610a15906122d1565b600082815260146020526040902060028101548015158061168a575081546001600160a01b031633145b6116ee5760405162461bcd60e51b815260206004820152602f60248201527f4f6e6c792074686520736861726573207375626a6563742063616e206275792060448201526e74686520666972737420736861726560881b6064820152608401610a15565b60006116fa82856112fa565b336000908152601160205260409020549091506117189082906122be565b336000908152601160205260409020556010546117369082906122be565b601055600754600090670de0b6b3a7640000906117539084612285565b61175d919061229c565b905061176981836122be565b3410156117af5760405162461bcd60e51b8152602060048201526014602482015273125b9cdd59999a58da595b9d081c185e5b595b9d60621b6044820152606401610a15565b3360009081526001850160205260409020546117cc9086906122be565b3360009081526001860160205260409020556117e885846122be565b600285015583546040517f09a786993c2becc8264c2a90ccc09ca6a571883f97635cc26ed418876b3bdb0a9161183491899160009133916001600160a01b0316908b9089908b906122fb565b60405180910390a16006546040516000916001600160a01b0316908390610c9a565b6014602052600090815260409020805460028201546003830180546001600160a01b0390931693919261188890612337565b80601f01602080910402602001604051908101604052809291908181526020018280546118b490612337565b80156119015780601f106118d657610100808354040283529160200191611901565b820191906000526020600020905b8154815290600101906020018083116118e457829003601f168201915b5050505050905083565b6000600854831061192e5760405162461bcd60e51b8152600401610a15906122d1565b60008381526014602052604090206002015461148c90836112fa565b600061195560035490565b60125461143d9190612272565b6000476000036119735750600d5490565b47600c5461197f61142f565b6119899190612272565b611992426112e2565b61199c9190612285565b6119ae90670de0b6b3a7640000612285565b6119b8919061229c565b600d5461143d91906122be565b600060085483106119e85760405162461bcd60e51b8152600401610a15906122d1565b60006119f48484611442565b90506000670de0b6b3a764000060075483611a0f9190612285565b611a19919061229c565b9050610d8d8183612272565b6001600160a01b03918216600090815260026020908152604080832093909416825291909152205490565b611a58611ecd565b6001600160a01b038116611abd5760405162461bcd60e51b815260206004820152602660248201527f4f776e61626c653a206e6577206f776e657220697320746865207a65726f206160448201526564647265737360d01b6064820152608401610a15565b611ac681611f27565b50565b6001600160a01b038316611b2b5760405162461bcd60e51b8152602060048201526024808201527f45524332303a20617070726f76652066726f6d20746865207a65726f206164646044820152637265737360e01b6064820152608401610a15565b6001600160a01b038216611b8c5760405162461bcd60e51b815260206004820152602260248201527f45524332303a20617070726f766520746f20746865207a65726f206164647265604482015261737360f01b6064820152608401610a15565b6001600160a01b0383811660008181526002602090815260408083209487168084529482529182902085905590518481527f8c5be1e5ebec7d5bd14f71427d1e84f3dd0314c0f7b2291e5b200ac8c7c3b925910160405180910390a3505050565b6000611bf98484611a25565b905060001981146112715781811015611c545760405162461bcd60e51b815260206004820152601d60248201527f45524332303a20696e73756666696369656e7420616c6c6f77616e63650000006044820152606401610a15565b6112718484848403611ac9565b6001600160a01b038316611cc55760405162461bcd60e51b815260206004820152602560248201527f45524332303a207472616e736665722066726f6d20746865207a65726f206164604482015264647265737360d81b6064820152608401610a15565b6001600160a01b038216611d275760405162461bcd60e51b815260206004820152602360248201527f45524332303a207472616e7366657220746f20746865207a65726f206164647260448201526265737360e81b6064820152608401610a15565b6001600160a01b03831660009081526001602052604090205481811015611d9f5760405162461bcd60e51b815260206004820152602660248201527f45524332303a207472616e7366657220616d6f756e7420657863656564732062604482015265616c616e636560d01b6064820152608401610a15565b6001600160a01b0380851660008181526001602052604080822086860390559286168082529083902080548601905591517fddf252ad1be2c89b69c2b068fc378daa952ba7f163c4a11628f55a4df523b3ef90611dff9086815260200190565b60405180910390a3611271565b6001600160a01b038216611e625760405162461bcd60e51b815260206004820152601f60248201527f45524332303a206d696e7420746f20746865207a65726f2061646472657373006044820152606401610a15565b8060036000828254611e7491906122be565b90915550506001600160a01b0382166000818152600160209081526040808320805486019055518481527fddf252ad1be2c89b69c2b068fc378daa952ba7f163c4a11628f55a4df523b3ef910160405180910390a35050565b6000546001600160a01b0316331461142d5760405162461bcd60e51b815260206004820181905260248201527f4f776e61626c653a2063616c6c6572206973206e6f7420746865206f776e65726044820152606401610a15565b600080546001600160a01b038381166001600160a01b0319831681178455604051919092169283917f8be0079c531659141344cd1fd0a4f28419497f9722a3daafe3b4186f6b6457e09190a35050565b600081831115611f87578161148c565b5090919050565b505050565b80356001600160a01b0381168114611faa57600080fd5b919050565b600060208284031215611fc157600080fd5b61148c82611f93565b60008060408385031215611fdd57600080fd5b82359150611fed60208401611f93565b90509250929050565b6000806040838503121561200957600080fd5b50508035926020909101359150565b6000815180845260005b8181101561203e57602081850181015186830182015201612022565b506000602082860101526020601f19601f83011685010191505092915050565b60208152600061148c6020830184612018565b6000806040838503121561208457600080fd5b61208d83611f93565b946020939093013593505050565b6000602082840312156120ad57600080fd5b5035919050565b60018060a01b0384168152826020820152606060408201526000610d8d6060830184612018565b6000806000606084860312156120f057600080fd5b6120f984611f93565b925061210760208501611f93565b9150604084013590509250925092565b60008083601f84011261212957600080fd5b50813567ffffffffffffffff81111561214157600080fd5b60208301915083602082850101111561215957600080fd5b9250929050565b6000806020838503121561217357600080fd5b823567ffffffffffffffff81111561218a57600080fd5b61219685828601612117565b90969095509350505050565b6000806000604084860312156121b757600080fd5b83359250602084013567ffffffffffffffff8111156121d557600080fd5b6121e186828701612117565b9497909650939450505050565b6020808252825182820181905260009190848201906040850190845b818110156122265783518352928401929184019160010161220a565b50909695505050505050565b6000806040838503121561224557600080fd5b61224e83611f93565b9150611fed60208401611f93565b634e487b7160e01b600052601160045260246000fd5b818103818111156109ec576109ec61225c565b80820281158282048414176109ec576109ec61225c565b6000826122b957634e487b7160e01b600052601260045260246000fd5b500490565b808201808211156109ec576109ec61225c565b60208082526010908201526f125b9d985b1a59081cda185c99481a5960821b604082015260600190565b96875260208701959095526001600160a01b039384166040870152919092166060850152608084019190915260a083015260c082015260e00190565b600181811c9082168061234b57607f821691505b60208210810361236b57634e487b7160e01b600052602260045260246000fd5b50919050565b634e487b7160e01b600052604160045260246000fd5b601f821115611f8e57600081815260208120601f850160051c810160208610156123ae5750805b601f850160051c820191505b818110156123cd578281556001016123ba565b505050505050565b67ffffffffffffffff8311156123ed576123ed612371565b612401836123fb8354612337565b83612387565b6000601f841160018114612435576000851561241d5750838201355b600019600387901b1c1916600186901b17835561248f565b600083815260209020601f19861690835b828110156124665786850135825560209485019460019092019101612446565b50868210156124835760001960f88860031b161c19848701351681555b505060018560011b0183555b5050505050565b6000600182016124a8576124a861225c565b506001019056fea2646970667358221220784d1cddaf0c677a5323bdabb041fb7b868e21f3b32981a301781fb1525d8f9564736f6c63430008150033",
    "linkReferences": {}
  },
  "methodIdentifiers": {
    "allowance(address,address)": "dd62ed3e",
    "approve(address,uint256)": "095ea7b3",
    "balanceOf(address)": "70a08231",
    "buyShare(uint256,uint256)": "aca75a52",
    "createShare(string)": "2e3de7a5",
    "currentId()": "e00dd161",
    "currentRewardPool(uint256)": "a2561ca1",
    "decimals()": "313ce567",
    "decreaseAllowance(address,uint256)": "a457c2d7",
    "duration()": "0fb5a6b4",
    "earned(address)": "008cc262",
    "editUri(uint256,string)": "4bcc7d7d",
    "finishAt()": "67d3b488",
    "getBuyPrice(uint256,uint256)": "c157253d",
    "getBuyPriceAfterFee(uint256,uint256)": "063a741f",
    "getPrice(uint256,uint256)": "5cf4ee91",
    "getRate(uint256)": "57764094",
    "getReward()": "3d18b912",
    "getSellPrice(uint256,uint256)": "9477d85d",
    "getSellPriceAfterFee(uint256,uint256)": "cd9c7121",
    "getShareBalance(uint256,address)": "0391f64c",
    "getShareInfo(uint256)": "1d92d3b9",
    "getUserOwnedShares(address)": "547d6a9b",
    "increaseAllowance(address,uint256)": "39509351",
    "lastTimeRewardApplicable()": "80faa57d",
    "maxSupply()": "d5abeb01",
    "name()": "06fdde03",
    "openInterest()": "fa5a2e62",
    "owner()": "8da5cb5b",
    "protocolFeeDestination()": "4ce7957c",
    "protocolFeePercent()": "d6e6eb9f",
    "renounceOwnership()": "715018a6",
    "rewardPerEthStored()": "d4d83ec4",
    "rewardPerToken()": "cd3daf9d",
    "rewards(address)": "0700037d",
    "rewardsToken()": "d1af0c7d",
    "sellShare(uint256,uint256)": "0519e975",
    "setProtocolFeeDestination(address)": "a10786b0",
    "setProtocolFeePercent(uint256)": "a4983421",
    "shareInfo(uint256)": "adacd487",
    "startTime()": "78e97925",
    "symbol()": "95d89b41",
    "tokensRemaining()": "c8b08125",
    "totalSupply()": "18160ddd",
    "transfer(address,uint256)": "a9059cbb",
    "transferFrom(address,address,uint256)": "23b872dd",
    "transferOwnership(address)": "f2fde38b",
    "updatedAt()": "7519ab50",
    "uri(uint256)": "0e89341c",
    "userEthContributed(address)": "061cd069",
    "userOwnedShares(address,uint256)": "486afd45",
    "userRewardPerEthPaid(address)": "96411538"
  },
  "id": 23
}