{
  "abi": [
    {
      "inputs": [
        {
          "internalType": "address",
          "name": "_protocolFeeDestination",
          "type": "address"
        },
        {
          "internalType": "uint256",
          "name": "_protocolFeePercent",
          "type": "uint256"
        }
      ],
      "stateMutability": "nonpayable",
      "type": "constructor"
    },
    {
      "anonymous": false,
      "inputs": [
        {
          "indexed": true,
          "internalType": "address",
          "name": "owner",
          "type": "address"
        },
        {
          "indexed": true,
          "internalType": "address",
          "name": "spender",
          "type": "address"
        },
        {
          "indexed": false,
          "internalType": "uint256",
          "name": "value",
          "type": "uint256"
        }
      ],
      "name": "Approval",
      "type": "event"
    },
    {
      "anonymous": false,
      "inputs": [
        {
          "indexed": true,
          "internalType": "address",
          "name": "previousOwner",
          "type": "address"
        },
        {
          "indexed": true,
          "internalType": "address",
          "name": "newOwner",
          "type": "address"
        }
      ],
      "name": "OwnershipTransferred",
      "type": "event"
    },
    {
      "anonymous": false,
      "inputs": [
        {
          "indexed": true,
          "internalType": "address",
          "name": "owner",
          "type": "address"
        },
        {
          "indexed": true,
          "internalType": "uint256",
          "name": "id",
          "type": "uint256"
        }
      ],
      "name": "ShareCreated",
      "type": "event"
    },
    {
      "anonymous": false,
      "inputs": [
        {
          "indexed": false,
          "internalType": "uint256",
          "name": "id",
          "type": "uint256"
        },
        {
          "indexed": false,
          "internalType": "uint256",
          "name": "side",
          "type": "uint256"
        },
        {
          "indexed": false,
          "internalType": "address",
          "name": "trader",
          "type": "address"
        },
        {
          "indexed": false,
          "internalType": "address",
          "name": "owner",
          "type": "address"
        },
        {
          "indexed": false,
          "internalType": "uint256",
          "name": "amount",
          "type": "uint256"
        },
        {
          "indexed": false,
          "internalType": "uint256",
          "name": "price",
          "type": "uint256"
        },
        {
          "indexed": false,
          "internalType": "uint256",
          "name": "supply",
          "type": "uint256"
        }
      ],
      "name": "Trade",
      "type": "event"
    },
    {
      "anonymous": false,
      "inputs": [
        {
          "indexed": true,
          "internalType": "address",
          "name": "from",
          "type": "address"
        },
        {
          "indexed": true,
          "internalType": "address",
          "name": "to",
          "type": "address"
        },
        {
          "indexed": false,
          "internalType": "uint256",
          "name": "value",
          "type": "uint256"
        }
      ],
      "name": "Transfer",
      "type": "event"
    },
    {
      "inputs": [
        {
          "internalType": "address",
          "name": "owner",
          "type": "address"
        },
        {
          "internalType": "address",
          "name": "spender",
          "type": "address"
        }
      ],
      "name": "allowance",
      "outputs": [
        {
          "internalType": "uint256",
          "name": "",
          "type": "uint256"
        }
      ],
      "stateMutability": "view",
      "type": "function"
    },
    {
      "inputs": [
        {
          "internalType": "address",
          "name": "spender",
          "type": "address"
        },
        {
          "internalType": "uint256",
          "name": "amount",
          "type": "uint256"
        }
      ],
      "name": "approve",
      "outputs": [
        {
          "internalType": "bool",
          "name": "",
          "type": "bool"
        }
      ],
      "stateMutability": "nonpayable",
      "type": "function"
    },
    {
      "inputs": [
        {
          "internalType": "address",
          "name": "account",
          "type": "address"
        }
      ],
      "name": "balanceOf",
      "outputs": [
        {
          "internalType": "uint256",
          "name": "",
          "type": "uint256"
        }
      ],
      "stateMutability": "view",
      "type": "function"
    },
    {
      "inputs": [
        {
          "internalType": "uint256",
          "name": "id",
          "type": "uint256"
        },
        {
          "internalType": "uint256",
          "name": "amount",
          "type": "uint256"
        }
      ],
      "name": "buyShare",
      "outputs": [],
      "stateMutability": "payable",
      "type": "function"
    },
    {
      "inputs": [
        {
          "internalType": "string",
          "name": "_uri",
          "type": "string"
        }
      ],
      "name": "createShare",
      "outputs": [],
      "stateMutability": "nonpayable",
      "type": "function"
    },
    {
      "inputs": [],
      "name": "currentId",
      "outputs": [
        {
          "internalType": "uint256",
          "name": "",
          "type": "uint256"
        }
      ],
      "stateMutability": "view",
      "type": "function"
    },
    {
      "inputs": [],
      "name": "decimals",
      "outputs": [
        {
          "internalType": "uint8",
          "name": "",
          "type": "uint8"
        }
      ],
      "stateMutability": "view",
      "type": "function"
    },
    {
      "inputs": [
        {
          "internalType": "address",
          "name": "spender",
          "type": "address"
        },
        {
          "internalType": "uint256",
          "name": "subtractedValue",
          "type": "uint256"
        }
      ],
      "name": "decreaseAllowance",
      "outputs": [
        {
          "internalType": "bool",
          "name": "",
          "type": "bool"
        }
      ],
      "stateMutability": "nonpayable",
      "type": "function"
    },
    {
      "inputs": [],
      "name": "duration",
      "outputs": [
        {
          "internalType": "uint256",
          "name": "",
          "type": "uint256"
        }
      ],
      "stateMutability": "view",
      "type": "function"
    },
    {
      "inputs": [
        {
          "internalType": "address",
          "name": "_account",
          "type": "address"
        }
      ],
      "name": "earned",
      "outputs": [
        {
          "internalType": "uint256",
          "name": "",
          "type": "uint256"
        }
      ],
      "stateMutability": "view",
      "type": "function"
    },
    {
      "inputs": [
        {
          "internalType": "uint256",
          "name": "id",
          "type": "uint256"
        },
        {
          "internalType": "string",
          "name": "_uri",
          "type": "string"
        }
      ],
      "name": "editUri",
      "outputs": [],
      "stateMutability": "nonpayable",
      "type": "function"
    },
    {
      "inputs": [],
      "name": "finishAt",
      "outputs": [
        {
          "internalType": "uint256",
          "name": "",
          "type": "uint256"
        }
      ],
      "stateMutability": "view",
      "type": "function"
    },
    {
      "inputs": [
        {
          "internalType": "uint256",
          "name": "id",
          "type": "uint256"
        },
        {
          "internalType": "uint256",
          "name": "amount",
          "type": "uint256"
        }
      ],
      "name": "getBuyPrice",
      "outputs": [
        {
          "internalType": "uint256",
          "name": "",
          "type": "uint256"
        }
      ],
      "stateMutability": "view",
      "type": "function"
    },
    {
      "inputs": [
        {
          "internalType": "uint256",
          "name": "id",
          "type": "uint256"
        },
        {
          "internalType": "uint256",
          "name": "amount",
          "type": "uint256"
        }
      ],
      "name": "getBuyPriceAfterFee",
      "outputs": [
        {
          "internalType": "uint256",
          "name": "",
          "type": "uint256"
        }
      ],
      "stateMutability": "view",
      "type": "function"
    },
    {
      "inputs": [
        {
          "internalType": "uint256",
          "name": "supply",
          "type": "uint256"
        },
        {
          "internalType": "uint256",
          "name": "amount",
          "type": "uint256"
        }
      ],
      "name": "getPrice",
      "outputs": [
        {
          "internalType": "uint256",
          "name": "",
          "type": "uint256"
        }
      ],
      "stateMutability": "pure",
      "type": "function"
    },
    {
      "inputs": [
        {
          "internalType": "uint256",
          "name": "currentTime",
          "type": "uint256"
        }
      ],
      "name": "getRate",
      "outputs": [
        {
          "internalType": "uint256",
          "name": "",
          "type": "uint256"
        }
      ],
      "stateMutability": "view",
      "type": "function"
    },
    {
      "inputs": [],
      "name": "getReward",
      "outputs": [],
      "stateMutability": "nonpayable",
      "type": "function"
    },
    {
      "inputs": [
        {
          "internalType": "uint256",
          "name": "id",
          "type": "uint256"
        },
        {
          "internalType": "uint256",
          "name": "amount",
          "type": "uint256"
        }
      ],
      "name": "getSellPrice",
      "outputs": [
        {
          "internalType": "uint256",
          "name": "",
          "type": "uint256"
        }
      ],
      "stateMutability": "view",
      "type": "function"
    },
    {
      "inputs": [
        {
          "internalType": "uint256",
          "name": "id",
          "type": "uint256"
        },
        {
          "internalType": "uint256",
          "name": "amount",
          "type": "uint256"
        }
      ],
      "name": "getSellPriceAfterFee",
      "outputs": [
        {
          "internalType": "uint256",
          "name": "",
          "type": "uint256"
        }
      ],
      "stateMutability": "view",
      "type": "function"
    },
    {
      "inputs": [
        {
          "internalType": "uint256",
          "name": "id",
          "type": "uint256"
        },
        {
          "internalType": "address",
          "name": "user",
          "type": "address"
        }
      ],
      "name": "getShareBalance",
      "outputs": [
        {
          "internalType": "uint256",
          "name": "",
          "type": "uint256"
        }
      ],
      "stateMutability": "view",
      "type": "function"
    },
    {
      "inputs": [
        {
          "internalType": "uint256",
          "name": "id",
          "type": "uint256"
        }
      ],
      "name": "getShareInfo",
      "outputs": [
        {
          "internalType": "address",
          "name": "_owner",
          "type": "address"
        },
        {
          "internalType": "uint256",
          "name": "_totalSupply",
          "type": "uint256"
        },
        {
          "internalType": "string",
          "name": "_uri",
          "type": "string"
        }
      ],
      "stateMutability": "view",
      "type": "function"
    },
    {
      "inputs": [
        {
          "internalType": "address",
          "name": "user",
          "type": "address"
        }
      ],
      "name": "getUserOwnedShares",
      "outputs": [
        {
          "internalType": "uint256[]",
          "name": "",
          "type": "uint256[]"
        }
      ],
      "stateMutability": "view",
      "type": "function"
    },
    {
      "inputs": [
        {
          "internalType": "address",
          "name": "spender",
          "type": "address"
        },
        {
          "internalType": "uint256",
          "name": "addedValue",
          "type": "uint256"
        }
      ],
      "name": "increaseAllowance",
      "outputs": [
        {
          "internalType": "bool",
          "name": "",
          "type": "bool"
        }
      ],
      "stateMutability": "nonpayable",
      "type": "function"
    },
    {
      "inputs": [],
      "name": "lastTimeRewardApplicable",
      "outputs": [
        {
          "internalType": "uint256",
          "name": "",
          "type": "uint256"
        }
      ],
      "stateMutability": "view",
      "type": "function"
    },
    {
      "inputs": [],
      "name": "maxSupply",
      "outputs": [
        {
          "internalType": "uint256",
          "name": "",
          "type": "uint256"
        }
      ],
      "stateMutability": "view",
      "type": "function"
    },
    {
      "inputs": [],
      "name": "name",
      "outputs": [
        {
          "internalType": "string",
          "name": "",
          "type": "string"
        }
      ],
      "stateMutability": "view",
      "type": "function"
    },
    {
      "inputs": [],
      "name": "openInterest",
      "outputs": [
        {
          "internalType": "uint256",
          "name": "",
          "type": "uint256"
        }
      ],
      "stateMutability": "view",
      "type": "function"
    },
    {
      "inputs": [],
      "name": "owner",
      "outputs": [
        {
          "internalType": "address",
          "name": "",
          "type": "address"
        }
      ],
      "stateMutability": "view",
      "type": "function"
    },
    {
      "inputs": [],
      "name": "protocolFeeDestination",
      "outputs": [
        {
          "internalType": "address",
          "name": "",
          "type": "address"
        }
      ],
      "stateMutability": "view",
      "type": "function"
    },
    {
      "inputs": [],
      "name": "protocolFeePercent",
      "outputs": [
        {
          "internalType": "uint256",
          "name": "",
          "type": "uint256"
        }
      ],
      "stateMutability": "view",
      "type": "function"
    },
    {
      "inputs": [],
      "name": "renounceOwnership",
      "outputs": [],
      "stateMutability": "nonpayable",
      "type": "function"
    },
    {
      "inputs": [],
      "name": "rewardPerEthStored",
      "outputs": [
        {
          "internalType": "uint256",
          "name": "",
          "type": "uint256"
        }
      ],
      "stateMutability": "view",
      "type": "function"
    },
    {
      "inputs": [],
      "name": "rewardPerToken",
      "outputs": [
        {
          "internalType": "uint256",
          "name": "",
          "type": "uint256"
        }
      ],
      "stateMutability": "view",
      "type": "function"
    },
    {
      "inputs": [
        {
          "internalType": "address",
          "name": "",
          "type": "address"
        }
      ],
      "name": "rewards",
      "outputs": [
        {
          "internalType": "uint256",
          "name": "",
          "type": "uint256"
        }
      ],
      "stateMutability": "view",
      "type": "function"
    },
    {
      "inputs": [],
      "name": "rewardsToken",
      "outputs": [
        {
          "internalType": "contract IERC20",
          "name": "",
          "type": "address"
        }
      ],
      "stateMutability": "view",
      "type": "function"
    },
    {
      "inputs": [
        {
          "internalType": "uint256",
          "name": "id",
          "type": "uint256"
        },
        {
          "internalType": "uint256",
          "name": "amount",
          "type": "uint256"
        }
      ],
      "name": "sellShare",
      "outputs": [],
      "stateMutability": "nonpayable",
      "type": "function"
    },
    {
      "inputs": [
        {
          "internalType": "address",
          "name": "_protocolFeeDestination",
          "type": "address"
        }
      ],
      "name": "setProtocolFeeDestination",
      "outputs": [],
      "stateMutability": "nonpayable",
      "type": "function"
    },
    {
      "inputs": [
        {
          "internalType": "uint256",
          "name": "_protocolFeePercent",
          "type": "uint256"
        }
      ],
      "name": "setProtocolFeePercent",
      "outputs": [],
      "stateMutability": "nonpayable",
      "type": "function"
    },
    {
      "inputs": [
        {
          "internalType": "uint256",
          "name": "",
          "type": "uint256"
        }
      ],
      "name": "shareInfo",
      "outputs": [
        {
          "internalType": "address",
          "name": "owner",
          "type": "address"
        },
        {
          "internalType": "uint256",
          "name": "totalSupply",
          "type": "uint256"
        },
        {
          "internalType": "string",
          "name": "uri",
          "type": "string"
        }
      ],
      "stateMutability": "view",
      "type": "function"
    },
    {
      "inputs": [],
      "name": "startTime",
      "outputs": [
        {
          "internalType": "uint256",
          "name": "",
          "type": "uint256"
        }
      ],
      "stateMutability": "view",
      "type": "function"
    },
    {
      "inputs": [],
      "name": "symbol",
      "outputs": [
        {
          "internalType": "string",
          "name": "",
          "type": "string"
        }
      ],
      "stateMutability": "view",
      "type": "function"
    },
    {
      "inputs": [],
      "name": "tokensRemaining",
      "outputs": [
        {
          "internalType": "uint256",
          "name": "",
          "type": "uint256"
        }
      ],
      "stateMutability": "view",
      "type": "function"
    },
    {
      "inputs": [],
      "name": "totalSupply",
      "outputs": [
        {
          "internalType": "uint256",
          "name": "",
          "type": "uint256"
        }
      ],
      "stateMutability": "view",
      "type": "function"
    },
    {
      "inputs": [
        {
          "internalType": "address",
          "name": "to",
          "type": "address"
        },
        {
          "internalType": "uint256",
          "name": "amount",
          "type": "uint256"
        }
      ],
      "name": "transfer",
      "outputs": [
        {
          "internalType": "bool",
          "name": "",
          "type": "bool"
        }
      ],
      "stateMutability": "nonpayable",
      "type": "function"
    },
    {
      "inputs": [
        {
          "internalType": "address",
          "name": "from",
          "type": "address"
        },
        {
          "internalType": "address",
          "name": "to",
          "type": "address"
        },
        {
          "internalType": "uint256",
          "name": "amount",
          "type": "uint256"
        }
      ],
      "name": "transferFrom",
      "outputs": [
        {
          "internalType": "bool",
          "name": "",
          "type": "bool"
        }
      ],
      "stateMutability": "nonpayable",
      "type": "function"
    },
    {
      "inputs": [
        {
          "internalType": "address",
          "name": "newOwner",
          "type": "address"
        }
      ],
      "name": "transferOwnership",
      "outputs": [],
      "stateMutability": "nonpayable",
      "type": "function"
    },
    {
      "inputs": [],
      "name": "updatedAt",
      "outputs": [
        {
          "internalType": "uint256",
          "name": "",
          "type": "uint256"
        }
      ],
      "stateMutability": "view",
      "type": "function"
    },
    {
      "inputs": [
        {
          "internalType": "uint256",
          "name": "id",
          "type": "uint256"
        }
      ],
      "name": "uri",
      "outputs": [
        {
          "internalType": "string",
          "name": "",
          "type": "string"
        }
      ],
      "stateMutability": "view",
      "type": "function"
    },
    {
      "inputs": [
        {
          "internalType": "address",
          "name": "",
          "type": "address"
        }
      ],
      "name": "userEthContributed",
      "outputs": [
        {
          "internalType": "uint256",
          "name": "",
          "type": "uint256"
        }
      ],
      "stateMutability": "view",
      "type": "function"
    },
    {
      "inputs": [
        {
          "internalType": "address",
          "name": "",
          "type": "address"
        },
        {
          "internalType": "uint256",
          "name": "",
          "type": "uint256"
        }
      ],
      "name": "userOwnedShares",
      "outputs": [
        {
          "internalType": "uint256",
          "name": "",
          "type": "uint256"
        }
      ],
      "stateMutability": "view",
      "type": "function"
    },
    {
      "inputs": [
        {
          "internalType": "address",
          "name": "",
          "type": "address"
        }
      ],
      "name": "userRewardPerEthPaid",
      "outputs": [
        {
          "internalType": "uint256",
          "name": "",
          "type": "uint256"
        }
      ],
      "stateMutability": "view",
      "type": "function"
    }
  ],
  "bytecode": {
    "object": "0x60a06040526000600855630b488680600a556b204fce5e3e250261100000006012553480156200002e57600080fd5b50604051620028c5380380620028c5833981016040819052620000519162000245565b6040518060400160405280600681526020016510dd5c9d995960d21b8152506040518060400160405280600681526020016510d55495915160d21b815250620000a9620000a36200012460201b60201c565b62000128565b6004620000b7838262000325565b506005620000c6828262000325565b5050600680546001600160a01b0319166001600160a01b038516179055506007819055426009819055600a54620000fd91620003f1565b600b55306080526200011c336b06765c793fa10079d000000062000178565b505062000419565b3390565b600080546001600160a01b038381166001600160a01b0319831681178455604051919092169283917f8be0079c531659141344cd1fd0a4f28419497f9722a3daafe3b4186f6b6457e09190a35050565b6001600160a01b038216620001d35760405162461bcd60e51b815260206004820152601f60248201527f45524332303a206d696e7420746f20746865207a65726f206164647265737300604482015260640160405180910390fd5b8060036000828254620001e79190620003f1565b90915550506001600160a01b0382166000818152600160209081526040808320805486019055518481527fddf252ad1be2c89b69c2b068fc378daa952ba7f163c4a11628f55a4df523b3ef910160405180910390a35050565b505050565b600080604083850312156200025957600080fd5b82516001600160a01b03811681146200027157600080fd5b6020939093015192949293505050565b634e487b7160e01b600052604160045260246000fd5b600181811c90821680620002ac57607f821691505b602082108103620002cd57634e487b7160e01b600052602260045260246000fd5b50919050565b601f8211156200024057600081815260208120601f850160051c81016020861015620002fc5750805b601f850160051c820191505b818110156200031d5782815560010162000308565b505050505050565b81516001600160401b0381111562000341576200034162000281565b620003598162000352845462000297565b84620002d3565b602080601f831160018114620003915760008415620003785750858301515b600019600386901b1c1916600185901b1785556200031d565b600085815260208120601f198616915b82811015620003c257888601518255948401946001909101908401620003a1565b5085821015620003e15787850151600019600388901b60f8161c191681555b5050505050600190811b01905550565b808201808211156200041357634e487b7160e01b600052601160045260246000fd5b92915050565b60805161249062000435600039600061086a01526124906000f3fe6080604052600436106102e35760003560e01c8063715018a611610190578063adacd487116100dc578063d4d83ec411610095578063dd62ed3e1161006f578063dd62ed3e146108ce578063e00dd161146108ee578063f2fde38b14610904578063fa5a2e621461092457600080fd5b8063d4d83ec41461088c578063d5abeb01146108a2578063d6e6eb9f146108b857600080fd5b8063adacd487146107ce578063c157253d146107ee578063c8b081251461080e578063cd3daf9d14610823578063cd9c712114610838578063d1af0c7d1461085857600080fd5b806395d89b4111610149578063a457c2d711610123578063a457c2d71461075b578063a49834211461077b578063a9059cbb1461079b578063aca75a52146107bb57600080fd5b806395d89b41146106f9578063964115381461070e578063a10786b01461073b57600080fd5b8063715018a6146106655780637519ab501461067a57806378e979251461069057806380faa57d146106a65780638da5cb5b146106bb5780639477d85d146106d957600080fd5b806323b872dd1161024f5780634bcc7d7d1161020857806357764094116101e257806357764094146105d95780635cf4ee91146105f957806367d3b4881461061957806370a082311461062f57600080fd5b80634bcc7d7d146105545780634ce7957c14610574578063547d6a9b146105ac57600080fd5b806323b872dd146104a35780632e3de7a5146104c3578063313ce567146104e357806339509351146104ff5780633d18b9121461051f578063486afd451461053457600080fd5b80630700037d116102a15780630700037d146103cc578063095ea7b3146103f95780630e89341c146104295780630fb5a6b41461044957806318160ddd1461045f5780631d92d3b91461047457600080fd5b80628cc262146102e85780630391f64c1461031b5780630519e9751461033b578063061cd0691461035d578063063a741f1461038a57806306fdde03146103aa575b600080fd5b3480156102f457600080fd5b50610308610303366004611f5a565b61093a565b6040519081526020015b60405180910390f35b34801561032757600080fd5b50610308610336366004611f75565b6109b7565b34801561034757600080fd5b5061035b610356366004611fa1565b610a10565b005b34801561036957600080fd5b50610308610378366004611f5a565b60116020526000908152604090205481565b34801561039657600080fd5b506103086103a5366004611fa1565b610cf2565b3480156103b657600080fd5b506103bf610d5b565b6040516103129190612009565b3480156103d857600080fd5b506103086103e7366004611f5a565b600f6020526000908152604090205481565b34801561040557600080fd5b5061041961041436600461201c565b610ded565b6040519015158152602001610312565b34801561043557600080fd5b506103bf610444366004612046565b610e05565b34801561045557600080fd5b50610308600a5481565b34801561046b57600080fd5b50600354610308565b34801561048057600080fd5b5061049461048f366004612046565b610ec9565b6040516103129392919061205f565b3480156104af57600080fd5b506104196104be366004612086565b610faf565b3480156104cf57600080fd5b5061035b6104de36600461210b565b610fd3565b3480156104ef57600080fd5b5060405160128152602001610312565b34801561050b57600080fd5b5061041961051a36600461201c565b6110b1565b34801561052b57600080fd5b5061035b6110d3565b34801561054057600080fd5b5061030861054f36600461201c565b611162565b34801561056057600080fd5b5061035b61056f36600461214d565b611193565b34801561058057600080fd5b50600654610594906001600160a01b031681565b6040516001600160a01b039091168152602001610312565b3480156105b857600080fd5b506105cc6105c7366004611f5a565b61123c565b6040516103129190612199565b3480156105e557600080fd5b506103086105f4366004612046565b6112a7565b34801561060557600080fd5b50610308610614366004611fa1565b611382565b34801561062557600080fd5b50610308600b5481565b34801561063b57600080fd5b5061030861064a366004611f5a565b6001600160a01b031660009081526001602052604090205490565b34801561067157600080fd5b5061035b6114a3565b34801561068657600080fd5b50610308600c5481565b34801561069c57600080fd5b5061030860095481565b3480156106b257600080fd5b506103086114b7565b3480156106c757600080fd5b506000546001600160a01b0316610594565b3480156106e557600080fd5b506103086106f4366004611fa1565b6114ca565b34801561070557600080fd5b506103bf61151b565b34801561071a57600080fd5b50610308610729366004611f5a565b600e6020526000908152604090205481565b34801561074757600080fd5b5061035b610756366004611f5a565b61152a565b34801561076757600080fd5b5061041961077636600461201c565b611554565b34801561078757600080fd5b5061035b610796366004612046565b6115cf565b3480156107a757600080fd5b506104196107b636600461201c565b6115dc565b61035b6107c9366004611fa1565b6115ea565b3480156107da57600080fd5b506104946107e9366004612046565b611801565b3480156107fa57600080fd5b50610308610809366004611fa1565b6118b6565b34801561081a57600080fd5b506103086118f5565b34801561082f57600080fd5b5061030861190d565b34801561084457600080fd5b50610308610853366004611fa1565b611970565b34801561086457600080fd5b506105947f000000000000000000000000000000000000000000000000000000000000000081565b34801561089857600080fd5b50610308600d5481565b3480156108ae57600080fd5b5061030860125481565b3480156108c457600080fd5b5061030860075481565b3480156108da57600080fd5b506103086108e93660046121dd565b6119d0565b3480156108fa57600080fd5b5061030860085481565b34801561091057600080fd5b5061035b61091f366004611f5a565b6119fb565b34801561093057600080fd5b5061030860105481565b6001600160a01b0381166000908152600f6020908152604080832054600e909252822054670de0b6b3a76400009061097061190d565b61097a919061221d565b6001600160a01b03851660009081526011602052604090205461099d9190612230565b6109a79190612247565b6109b19190612269565b92915050565b600060085483106109e35760405162461bcd60e51b81526004016109da9061227c565b60405180910390fd5b5060008281526014602090815260408083206001600160a01b038516845260010190915290205492915050565b6008548210610a315760405162461bcd60e51b81526004016109da9061227c565b6000828152601460209081526040808320600281015433855260018201909352922054831115610aa35760405162461bcd60e51b815260206004820152601a60248201527f496e73756666696369656e742073686172652062616c616e636500000000000060448201526064016109da565b6000838360020154610ab5919061221d565b11610b1a5760405162461bcd60e51b815260206004820152602f60248201527f43616e6e6f742073656c6c20616c6c207368617265732c206d757374206c656160448201526e7665206174206c65617374206f6e6560881b60648201526084016109da565b6000610b2f610b29858461221d565b85611382565b336000908152601160205260409020549091508110610b5d5733600090815260116020526040812055610b89565b33600090815260116020526040902054610b7890829061221d565b336000908152601160205260409020555b80601054610b97919061221d565b601055600754600090670de0b6b3a764000090610bb49084612230565b610bbe9190612247565b336000908152600186016020526040902054909150610bde90869061221d565b336000908152600186016020526040902055610bfa858461221d565b600285015583546040517f09a786993c2becc8264c2a90ccc09ca6a571883f97635cc26ed418876b3bdb0a91610c4691899160019133916001600160a01b0316908b9089908b906122a6565b60405180910390a1600033610c5b838561221d565b6040515b60006040518083038185875af1925050503d8060008114610c9c576040519150601f19603f3d011682016040523d82523d6000602084013e610ca1565b606091505b5050905080610ce95760405162461bcd60e51b8152602060048201526014602482015273556e61626c6520746f2073656e642066756e647360601b60448201526064016109da565b50505050505050565b60006008548310610d155760405162461bcd60e51b81526004016109da9061227c565b6000610d2184846118b6565b90506000670de0b6b3a764000060075483610d3c9190612230565b610d469190612247565b9050610d528183612269565b95945050505050565b606060048054610d6a906122e2565b80601f0160208091040260200160405190810160405280929190818152602001828054610d96906122e2565b8015610de35780601f10610db857610100808354040283529160200191610de3565b820191906000526020600020905b815481529060010190602001808311610dc657829003601f168201915b5050505050905090565b600033610dfb818585611a74565b5060019392505050565b60606008548210610e285760405162461bcd60e51b81526004016109da9061227c565b60008281526014602052604090206003018054610e44906122e2565b80601f0160208091040260200160405190810160405280929190818152602001828054610e70906122e2565b8015610ebd5780601f10610e9257610100808354040283529160200191610ebd565b820191906000526020600020905b815481529060010190602001808311610ea057829003601f168201915b50505050509050919050565b60008060606008548410610eef5760405162461bcd60e51b81526004016109da9061227c565b6000848152601460205260409020805460028201546003830180546001600160a01b03909316928190610f21906122e2565b80601f0160208091040260200160405190810160405280929190818152602001828054610f4d906122e2565b8015610f9a5780601f10610f6f57610100808354040283529160200191610f9a565b820191906000526020600020905b815481529060010190602001808311610f7d57829003601f168201915b50505050509050935093509350509193909250565b600033610fbd858285611b98565b610fc8858585611c0c565b506001949350505050565b60088054600090815260146020818152604080842080546001600160a01b0319163390811790915585548552818520908552600190810183528185208190558554855292909152808320600201919091559154815220600301611037828483612380565b5033600090815260136020908152604082206008805482546001810184559285529284209091019190915580549161106e83612441565b91905055506001600854611082919061221d565b60405133907f335b5487495f05d92d4db67accd7283d32ffa24a7eb1d604889b384e4888376290600090a35050565b600033610dfb8185856110c483836119d0565b6110ce9190612269565b611a74565b336110dc61190d565b600d556110e76114b7565b600c556001600160a01b0381161561112e576111028161093a565b6001600160a01b0382166000908152600f6020908152604080832093909355600d54600e909152919020555b336000908152600f6020526040902054801561115e57336000818152600f602052604081205561115e9082611db7565b5050565b6013602052816000526040600020818154811061117e57600080fd5b90600052602060002001600091509150505481565b60085483106111b45760405162461bcd60e51b81526004016109da9061227c565b6000838152601460205260409020546001600160a01b0316331461121a5760405162461bcd60e51b815260206004820152601760248201527f4f6e6c7920746865206f776e65722063616e206564697400000000000000000060448201526064016109da565b6000838152601460205260409020600301611236828483612380565b50505050565b6001600160a01b038116600090815260136020908152604091829020805483518184028101840190945280845260609392830182828015610ebd57602002820191906000526020600020905b8154815260200190600101908083116112885750505050509050919050565b600080600954836112b8919061221d565b905060006112ca6301dfe20083612247565b90506000816000036112e957506b0cecb8f27f4200f3a0000000611374565b8160010361130457506b052b7d2dcc80cd2e40000000611374565b8160020361131f57506b033b2e3c9fd0803ce8000000611374565b8160030361133a57506b01f04ef12cb04cf158000000611374565b8160040361135557506b015b6a759f4835dc24000000611374565b8160050361137057506b013a542146f830bafc000000611374565b5060005b610d526301dfe20082612247565b60008083156113dd57600661139860018661221d565b6113a3906002612230565b6113ae906001612269565b856113ba60018261221d565b6113c49190612230565b6113ce9190612230565b6113d89190612247565b6113e0565b60005b90506000841580156113f25750836001145b6114675760068461140460018861221d565b61140e9190612269565b611419906002612230565b611424906001612269565b61142e8688612269565b8661143a60018a61221d565b6114449190612269565b61144e9190612230565b6114589190612230565b6114629190612247565b61146a565b60005b90506000611478838361221d565b9050610fa061148f82670de0b6b3a7640000612230565b6114999190612247565b9695505050505050565b6114ab611e78565b6114b56000611ed2565b565b60006114c5600b5442611f22565b905090565b600060085483106114ed5760405162461bcd60e51b81526004016109da9061227c565b6000838152601460205260409020600201546115149061150e90849061221d565b83611382565b9392505050565b606060058054610d6a906122e2565b611532611e78565b600680546001600160a01b0319166001600160a01b0392909216919091179055565b6000338161156282866119d0565b9050838110156115c25760405162461bcd60e51b815260206004820152602560248201527f45524332303a2064656372656173656420616c6c6f77616e63652062656c6f77604482015264207a65726f60d81b60648201526084016109da565b610fc88286868403611a74565b6115d7611e78565b600755565b600033610dfb818585611c0c565b600854821061160b5760405162461bcd60e51b81526004016109da9061227c565b6000828152601460205260409020600281015480151580611635575081546001600160a01b031633145b6116995760405162461bcd60e51b815260206004820152602f60248201527f4f6e6c792074686520736861726573207375626a6563742063616e206275792060448201526e74686520666972737420736861726560881b60648201526084016109da565b60006116a58285611382565b336000908152601160205260409020549091506116c3908290612269565b336000908152601160205260409020556010546116e1908290612269565b601055600754600090670de0b6b3a7640000906116fe9084612230565b6117089190612247565b90506117148183612269565b34101561175a5760405162461bcd60e51b8152602060048201526014602482015273125b9cdd59999a58da595b9d081c185e5b595b9d60621b60448201526064016109da565b336000908152600185016020526040902054611777908690612269565b3360009081526001860160205260409020556117938584612269565b600285015583546040517f09a786993c2becc8264c2a90ccc09ca6a571883f97635cc26ed418876b3bdb0a916117df91899160009133916001600160a01b0316908b9089908b906122a6565b60405180910390a16006546040516000916001600160a01b0316908390610c5f565b6014602052600090815260409020805460028201546003830180546001600160a01b03909316939192611833906122e2565b80601f016020809104026020016040519081016040528092919081815260200182805461185f906122e2565b80156118ac5780601f10611881576101008083540402835291602001916118ac565b820191906000526020600020905b81548152906001019060200180831161188f57829003601f168201915b5050505050905083565b600060085483106118d95760405162461bcd60e51b81526004016109da9061227c565b6000838152601460205260409020600201546115149083611382565b600061190060035490565b6012546114c5919061221d565b60004760000361191e5750600d5490565b47600c5461192a6114b7565b611934919061221d565b61193d426112a7565b6119479190612230565b61195990670de0b6b3a7640000612230565b6119639190612247565b600d546114c59190612269565b600060085483106119935760405162461bcd60e51b81526004016109da9061227c565b600061199f84846114ca565b90506000670de0b6b3a7640000600754836119ba9190612230565b6119c49190612247565b9050610d52818361221d565b6001600160a01b03918216600090815260026020908152604080832093909416825291909152205490565b611a03611e78565b6001600160a01b038116611a685760405162461bcd60e51b815260206004820152602660248201527f4f776e61626c653a206e6577206f776e657220697320746865207a65726f206160448201526564647265737360d01b60648201526084016109da565b611a7181611ed2565b50565b6001600160a01b038316611ad65760405162461bcd60e51b8152602060048201526024808201527f45524332303a20617070726f76652066726f6d20746865207a65726f206164646044820152637265737360e01b60648201526084016109da565b6001600160a01b038216611b375760405162461bcd60e51b815260206004820152602260248201527f45524332303a20617070726f766520746f20746865207a65726f206164647265604482015261737360f01b60648201526084016109da565b6001600160a01b0383811660008181526002602090815260408083209487168084529482529182902085905590518481527f8c5be1e5ebec7d5bd14f71427d1e84f3dd0314c0f7b2291e5b200ac8c7c3b925910160405180910390a3505050565b6000611ba484846119d0565b905060001981146112365781811015611bff5760405162461bcd60e51b815260206004820152601d60248201527f45524332303a20696e73756666696369656e7420616c6c6f77616e636500000060448201526064016109da565b6112368484848403611a74565b6001600160a01b038316611c705760405162461bcd60e51b815260206004820152602560248201527f45524332303a207472616e736665722066726f6d20746865207a65726f206164604482015264647265737360d81b60648201526084016109da565b6001600160a01b038216611cd25760405162461bcd60e51b815260206004820152602360248201527f45524332303a207472616e7366657220746f20746865207a65726f206164647260448201526265737360e81b60648201526084016109da565b6001600160a01b03831660009081526001602052604090205481811015611d4a5760405162461bcd60e51b815260206004820152602660248201527f45524332303a207472616e7366657220616d6f756e7420657863656564732062604482015265616c616e636560d01b60648201526084016109da565b6001600160a01b0380851660008181526001602052604080822086860390559286168082529083902080548601905591517fddf252ad1be2c89b69c2b068fc378daa952ba7f163c4a11628f55a4df523b3ef90611daa9086815260200190565b60405180910390a3611236565b6001600160a01b038216611e0d5760405162461bcd60e51b815260206004820152601f60248201527f45524332303a206d696e7420746f20746865207a65726f20616464726573730060448201526064016109da565b8060036000828254611e1f9190612269565b90915550506001600160a01b0382166000818152600160209081526040808320805486019055518481527fddf252ad1be2c89b69c2b068fc378daa952ba7f163c4a11628f55a4df523b3ef910160405180910390a35050565b6000546001600160a01b031633146114b55760405162461bcd60e51b815260206004820181905260248201527f4f776e61626c653a2063616c6c6572206973206e6f7420746865206f776e657260448201526064016109da565b600080546001600160a01b038381166001600160a01b0319831681178455604051919092169283917f8be0079c531659141344cd1fd0a4f28419497f9722a3daafe3b4186f6b6457e09190a35050565b600081831115611f325781611514565b5090919050565b505050565b80356001600160a01b0381168114611f5557600080fd5b919050565b600060208284031215611f6c57600080fd5b61151482611f3e565b60008060408385031215611f8857600080fd5b82359150611f9860208401611f3e565b90509250929050565b60008060408385031215611fb457600080fd5b50508035926020909101359150565b6000815180845260005b81811015611fe957602081850181015186830182015201611fcd565b506000602082860101526020601f19601f83011685010191505092915050565b6020815260006115146020830184611fc3565b6000806040838503121561202f57600080fd5b61203883611f3e565b946020939093013593505050565b60006020828403121561205857600080fd5b5035919050565b60018060a01b0384168152826020820152606060408201526000610d526060830184611fc3565b60008060006060848603121561209b57600080fd5b6120a484611f3e565b92506120b260208501611f3e565b9150604084013590509250925092565b60008083601f8401126120d457600080fd5b50813567ffffffffffffffff8111156120ec57600080fd5b60208301915083602082850101111561210457600080fd5b9250929050565b6000806020838503121561211e57600080fd5b823567ffffffffffffffff81111561213557600080fd5b612141858286016120c2565b90969095509350505050565b60008060006040848603121561216257600080fd5b83359250602084013567ffffffffffffffff81111561218057600080fd5b61218c868287016120c2565b9497909650939450505050565b6020808252825182820181905260009190848201906040850190845b818110156121d1578351835292840192918401916001016121b5565b50909695505050505050565b600080604083850312156121f057600080fd5b6121f983611f3e565b9150611f9860208401611f3e565b634e487b7160e01b600052601160045260246000fd5b818103818111156109b1576109b1612207565b80820281158282048414176109b1576109b1612207565b60008261226457634e487b7160e01b600052601260045260246000fd5b500490565b808201808211156109b1576109b1612207565b60208082526010908201526f125b9d985b1a59081cda185c99481a5960821b604082015260600190565b96875260208701959095526001600160a01b039384166040870152919092166060850152608084019190915260a083015260c082015260e00190565b600181811c908216806122f657607f821691505b60208210810361231657634e487b7160e01b600052602260045260246000fd5b50919050565b634e487b7160e01b600052604160045260246000fd5b601f821115611f3957600081815260208120601f850160051c810160208610156123595750805b601f850160051c820191505b8181101561237857828155600101612365565b505050505050565b67ffffffffffffffff8311156123985761239861231c565b6123ac836123a683546122e2565b83612332565b6000601f8411600181146123e057600085156123c85750838201355b600019600387901b1c1916600186901b17835561243a565b600083815260209020601f19861690835b8281101561241157868501358255602094850194600190920191016123f1565b508682101561242e5760001960f88860031b161c19848701351681555b505060018560011b0183555b5050505050565b60006001820161245357612453612207565b506001019056fea2646970667358221220c1fac5039998e9274da5dbee763cbd9689c1e28badccc78eca5d4ebbb939a67364736f6c63430008150033",
    "linkReferences": {}
  },
  "methodIdentifiers": {
    "allowance(address,address)": "dd62ed3e",
    "approve(address,uint256)": "095ea7b3",
    "balanceOf(address)": "70a08231",
    "buyShare(uint256,uint256)": "aca75a52",
    "createShare(string)": "2e3de7a5",
    "currentId()": "e00dd161",
    "decimals()": "313ce567",
    "decreaseAllowance(address,uint256)": "a457c2d7",
    "duration()": "0fb5a6b4",
    "earned(address)": "008cc262",
    "editUri(uint256,string)": "4bcc7d7d",
    "finishAt()": "67d3b488",
    "getBuyPrice(uint256,uint256)": "c157253d",
    "getBuyPriceAfterFee(uint256,uint256)": "063a741f",
    "getPrice(uint256,uint256)": "5cf4ee91",
    "getRate(uint256)": "57764094",
    "getReward()": "3d18b912",
    "getSellPrice(uint256,uint256)": "9477d85d",
    "getSellPriceAfterFee(uint256,uint256)": "cd9c7121",
    "getShareBalance(uint256,address)": "0391f64c",
    "getShareInfo(uint256)": "1d92d3b9",
    "getUserOwnedShares(address)": "547d6a9b",
    "increaseAllowance(address,uint256)": "39509351",
    "lastTimeRewardApplicable()": "80faa57d",
    "maxSupply()": "d5abeb01",
    "name()": "06fdde03",
    "openInterest()": "fa5a2e62",
    "owner()": "8da5cb5b",
    "protocolFeeDestination()": "4ce7957c",
    "protocolFeePercent()": "d6e6eb9f",
    "renounceOwnership()": "715018a6",
    "rewardPerEthStored()": "d4d83ec4",
    "rewardPerToken()": "cd3daf9d",
    "rewards(address)": "0700037d",
    "rewardsToken()": "d1af0c7d",
    "sellShare(uint256,uint256)": "0519e975",
    "setProtocolFeeDestination(address)": "a10786b0",
    "setProtocolFeePercent(uint256)": "a4983421",
    "shareInfo(uint256)": "adacd487",
    "startTime()": "78e97925",
    "symbol()": "95d89b41",
    "tokensRemaining()": "c8b08125",
    "totalSupply()": "18160ddd",
    "transfer(address,uint256)": "a9059cbb",
    "transferFrom(address,address,uint256)": "23b872dd",
    "transferOwnership(address)": "f2fde38b",
    "updatedAt()": "7519ab50",
    "uri(uint256)": "0e89341c",
    "userEthContributed(address)": "061cd069",
    "userOwnedShares(address,uint256)": "486afd45",
    "userRewardPerEthPaid(address)": "96411538"
  },
  "id": 23
}