{
  "abi": [
    {
      "inputs": [
        {
          "internalType": "address",
          "name": "_protocolFeeDestination",
          "type": "address"
        },
        {
          "internalType": "uint256",
          "name": "_protocolFeePercent",
          "type": "uint256"
        }
      ],
      "stateMutability": "nonpayable",
      "type": "constructor"
    },
    {
      "anonymous": false,
      "inputs": [
        {
          "indexed": true,
          "internalType": "address",
          "name": "owner",
          "type": "address"
        },
        {
          "indexed": true,
          "internalType": "address",
          "name": "spender",
          "type": "address"
        },
        {
          "indexed": false,
          "internalType": "uint256",
          "name": "value",
          "type": "uint256"
        }
      ],
      "name": "Approval",
      "type": "event"
    },
    {
      "anonymous": false,
      "inputs": [
        {
          "indexed": true,
          "internalType": "address",
          "name": "previousOwner",
          "type": "address"
        },
        {
          "indexed": true,
          "internalType": "address",
          "name": "newOwner",
          "type": "address"
        }
      ],
      "name": "OwnershipTransferred",
      "type": "event"
    },
    {
      "anonymous": false,
      "inputs": [
        {
          "indexed": true,
          "internalType": "address",
          "name": "owner",
          "type": "address"
        },
        {
          "indexed": true,
          "internalType": "uint256",
          "name": "id",
          "type": "uint256"
        }
      ],
      "name": "ShareCreated",
      "type": "event"
    },
    {
      "anonymous": false,
      "inputs": [
        {
          "indexed": false,
          "internalType": "uint256",
          "name": "id",
          "type": "uint256"
        },
        {
          "indexed": false,
          "internalType": "uint256",
          "name": "side",
          "type": "uint256"
        },
        {
          "indexed": false,
          "internalType": "address",
          "name": "trader",
          "type": "address"
        },
        {
          "indexed": false,
          "internalType": "address",
          "name": "owner",
          "type": "address"
        },
        {
          "indexed": false,
          "internalType": "uint256",
          "name": "amount",
          "type": "uint256"
        },
        {
          "indexed": false,
          "internalType": "uint256",
          "name": "price",
          "type": "uint256"
        },
        {
          "indexed": false,
          "internalType": "uint256",
          "name": "supply",
          "type": "uint256"
        }
      ],
      "name": "Trade",
      "type": "event"
    },
    {
      "anonymous": false,
      "inputs": [
        {
          "indexed": true,
          "internalType": "address",
          "name": "from",
          "type": "address"
        },
        {
          "indexed": true,
          "internalType": "address",
          "name": "to",
          "type": "address"
        },
        {
          "indexed": false,
          "internalType": "uint256",
          "name": "value",
          "type": "uint256"
        }
      ],
      "name": "Transfer",
      "type": "event"
    },
    {
      "inputs": [
        {
          "internalType": "address",
          "name": "owner",
          "type": "address"
        },
        {
          "internalType": "address",
          "name": "spender",
          "type": "address"
        }
      ],
      "name": "allowance",
      "outputs": [
        {
          "internalType": "uint256",
          "name": "",
          "type": "uint256"
        }
      ],
      "stateMutability": "view",
      "type": "function"
    },
    {
      "inputs": [
        {
          "internalType": "address",
          "name": "spender",
          "type": "address"
        },
        {
          "internalType": "uint256",
          "name": "amount",
          "type": "uint256"
        }
      ],
      "name": "approve",
      "outputs": [
        {
          "internalType": "bool",
          "name": "",
          "type": "bool"
        }
      ],
      "stateMutability": "nonpayable",
      "type": "function"
    },
    {
      "inputs": [
        {
          "internalType": "address",
          "name": "account",
          "type": "address"
        }
      ],
      "name": "balanceOf",
      "outputs": [
        {
          "internalType": "uint256",
          "name": "",
          "type": "uint256"
        }
      ],
      "stateMutability": "view",
      "type": "function"
    },
    {
      "inputs": [
        {
          "internalType": "uint256",
          "name": "id",
          "type": "uint256"
        },
        {
          "internalType": "uint256",
          "name": "amount",
          "type": "uint256"
        }
      ],
      "name": "buyShare",
      "outputs": [],
      "stateMutability": "payable",
      "type": "function"
    },
    {
      "inputs": [
        {
          "internalType": "string",
          "name": "_uri",
          "type": "string"
        }
      ],
      "name": "createShare",
      "outputs": [],
      "stateMutability": "nonpayable",
      "type": "function"
    },
    {
      "inputs": [],
      "name": "currentId",
      "outputs": [
        {
          "internalType": "uint256",
          "name": "",
          "type": "uint256"
        }
      ],
      "stateMutability": "view",
      "type": "function"
    },
    {
      "inputs": [],
      "name": "decimals",
      "outputs": [
        {
          "internalType": "uint8",
          "name": "",
          "type": "uint8"
        }
      ],
      "stateMutability": "view",
      "type": "function"
    },
    {
      "inputs": [
        {
          "internalType": "address",
          "name": "spender",
          "type": "address"
        },
        {
          "internalType": "uint256",
          "name": "subtractedValue",
          "type": "uint256"
        }
      ],
      "name": "decreaseAllowance",
      "outputs": [
        {
          "internalType": "bool",
          "name": "",
          "type": "bool"
        }
      ],
      "stateMutability": "nonpayable",
      "type": "function"
    },
    {
      "inputs": [
        {
          "internalType": "address",
          "name": "_account",
          "type": "address"
        }
      ],
      "name": "earned",
      "outputs": [
        {
          "internalType": "uint256",
          "name": "",
          "type": "uint256"
        }
      ],
      "stateMutability": "view",
      "type": "function"
    },
    {
      "inputs": [
        {
          "internalType": "uint256",
          "name": "id",
          "type": "uint256"
        },
        {
          "internalType": "string",
          "name": "_uri",
          "type": "string"
        }
      ],
      "name": "editUri",
      "outputs": [],
      "stateMutability": "nonpayable",
      "type": "function"
    },
    {
      "inputs": [
        {
          "internalType": "uint256",
          "name": "",
          "type": "uint256"
        }
      ],
      "name": "epoch",
      "outputs": [
        {
          "internalType": "uint256",
          "name": "",
          "type": "uint256"
        }
      ],
      "stateMutability": "view",
      "type": "function"
    },
    {
      "inputs": [],
      "name": "finishAt",
      "outputs": [
        {
          "internalType": "uint256",
          "name": "",
          "type": "uint256"
        }
      ],
      "stateMutability": "view",
      "type": "function"
    },
    {
      "inputs": [
        {
          "internalType": "uint256",
          "name": "id",
          "type": "uint256"
        },
        {
          "internalType": "uint256",
          "name": "amount",
          "type": "uint256"
        }
      ],
      "name": "getBuyPrice",
      "outputs": [
        {
          "internalType": "uint256",
          "name": "",
          "type": "uint256"
        }
      ],
      "stateMutability": "view",
      "type": "function"
    },
    {
      "inputs": [
        {
          "internalType": "uint256",
          "name": "id",
          "type": "uint256"
        },
        {
          "internalType": "uint256",
          "name": "amount",
          "type": "uint256"
        }
      ],
      "name": "getBuyPriceAfterFee",
      "outputs": [
        {
          "internalType": "uint256",
          "name": "",
          "type": "uint256"
        }
      ],
      "stateMutability": "view",
      "type": "function"
    },
    {
      "inputs": [
        {
          "internalType": "uint256",
          "name": "supply",
          "type": "uint256"
        },
        {
          "internalType": "uint256",
          "name": "amount",
          "type": "uint256"
        }
      ],
      "name": "getPrice",
      "outputs": [
        {
          "internalType": "uint256",
          "name": "",
          "type": "uint256"
        }
      ],
      "stateMutability": "pure",
      "type": "function"
    },
    {
      "inputs": [
        {
          "internalType": "uint256",
          "name": "currentTime",
          "type": "uint256"
        }
      ],
      "name": "getRate",
      "outputs": [
        {
          "internalType": "uint256",
          "name": "",
          "type": "uint256"
        }
      ],
      "stateMutability": "view",
      "type": "function"
    },
    {
      "inputs": [],
      "name": "getReward",
      "outputs": [],
      "stateMutability": "nonpayable",
      "type": "function"
    },
    {
      "inputs": [
        {
          "internalType": "uint256",
          "name": "id",
          "type": "uint256"
        },
        {
          "internalType": "uint256",
          "name": "amount",
          "type": "uint256"
        }
      ],
      "name": "getSellPrice",
      "outputs": [
        {
          "internalType": "uint256",
          "name": "",
          "type": "uint256"
        }
      ],
      "stateMutability": "view",
      "type": "function"
    },
    {
      "inputs": [
        {
          "internalType": "uint256",
          "name": "id",
          "type": "uint256"
        },
        {
          "internalType": "uint256",
          "name": "amount",
          "type": "uint256"
        }
      ],
      "name": "getSellPriceAfterFee",
      "outputs": [
        {
          "internalType": "uint256",
          "name": "",
          "type": "uint256"
        }
      ],
      "stateMutability": "view",
      "type": "function"
    },
    {
      "inputs": [
        {
          "internalType": "uint256",
          "name": "id",
          "type": "uint256"
        },
        {
          "internalType": "address",
          "name": "user",
          "type": "address"
        }
      ],
      "name": "getShareBalance",
      "outputs": [
        {
          "internalType": "uint256",
          "name": "",
          "type": "uint256"
        }
      ],
      "stateMutability": "view",
      "type": "function"
    },
    {
      "inputs": [
        {
          "internalType": "uint256",
          "name": "id",
          "type": "uint256"
        }
      ],
      "name": "getShareInfo",
      "outputs": [
        {
          "internalType": "address",
          "name": "_owner",
          "type": "address"
        },
        {
          "internalType": "uint256",
          "name": "_totalSupply",
          "type": "uint256"
        },
        {
          "internalType": "string",
          "name": "_uri",
          "type": "string"
        }
      ],
      "stateMutability": "view",
      "type": "function"
    },
    {
      "inputs": [
        {
          "internalType": "address",
          "name": "spender",
          "type": "address"
        },
        {
          "internalType": "uint256",
          "name": "addedValue",
          "type": "uint256"
        }
      ],
      "name": "increaseAllowance",
      "outputs": [
        {
          "internalType": "bool",
          "name": "",
          "type": "bool"
        }
      ],
      "stateMutability": "nonpayable",
      "type": "function"
    },
    {
      "inputs": [],
      "name": "lastTimeRewardApplicable",
      "outputs": [
        {
          "internalType": "uint256",
          "name": "",
          "type": "uint256"
        }
      ],
      "stateMutability": "view",
      "type": "function"
    },
    {
      "inputs": [],
      "name": "maxSupply",
      "outputs": [
        {
          "internalType": "uint256",
          "name": "",
          "type": "uint256"
        }
      ],
      "stateMutability": "view",
      "type": "function"
    },
    {
      "inputs": [],
      "name": "name",
      "outputs": [
        {
          "internalType": "string",
          "name": "",
          "type": "string"
        }
      ],
      "stateMutability": "view",
      "type": "function"
    },
    {
      "inputs": [],
      "name": "openInterest",
      "outputs": [
        {
          "internalType": "uint256",
          "name": "",
          "type": "uint256"
        }
      ],
      "stateMutability": "view",
      "type": "function"
    },
    {
      "inputs": [],
      "name": "owner",
      "outputs": [
        {
          "internalType": "address",
          "name": "",
          "type": "address"
        }
      ],
      "stateMutability": "view",
      "type": "function"
    },
    {
      "inputs": [],
      "name": "protocolFeeDestination",
      "outputs": [
        {
          "internalType": "address",
          "name": "",
          "type": "address"
        }
      ],
      "stateMutability": "view",
      "type": "function"
    },
    {
      "inputs": [],
      "name": "protocolFeePercent",
      "outputs": [
        {
          "internalType": "uint256",
          "name": "",
          "type": "uint256"
        }
      ],
      "stateMutability": "view",
      "type": "function"
    },
    {
      "inputs": [],
      "name": "renounceOwnership",
      "outputs": [],
      "stateMutability": "nonpayable",
      "type": "function"
    },
    {
      "inputs": [],
      "name": "rewardPerEthStored",
      "outputs": [
        {
          "internalType": "uint256",
          "name": "",
          "type": "uint256"
        }
      ],
      "stateMutability": "view",
      "type": "function"
    },
    {
      "inputs": [],
      "name": "rewardPerToken",
      "outputs": [
        {
          "internalType": "uint256",
          "name": "",
          "type": "uint256"
        }
      ],
      "stateMutability": "view",
      "type": "function"
    },
    {
      "inputs": [
        {
          "internalType": "address",
          "name": "",
          "type": "address"
        }
      ],
      "name": "rewards",
      "outputs": [
        {
          "internalType": "uint256",
          "name": "",
          "type": "uint256"
        }
      ],
      "stateMutability": "view",
      "type": "function"
    },
    {
      "inputs": [],
      "name": "rewardsToken",
      "outputs": [
        {
          "internalType": "contract IERC20",
          "name": "",
          "type": "address"
        }
      ],
      "stateMutability": "view",
      "type": "function"
    },
    {
      "inputs": [
        {
          "internalType": "uint256",
          "name": "id",
          "type": "uint256"
        },
        {
          "internalType": "uint256",
          "name": "amount",
          "type": "uint256"
        }
      ],
      "name": "sellShare",
      "outputs": [],
      "stateMutability": "nonpayable",
      "type": "function"
    },
    {
      "inputs": [
        {
          "internalType": "address",
          "name": "_protocolFeeDestination",
          "type": "address"
        }
      ],
      "name": "setProtocolFeeDestination",
      "outputs": [],
      "stateMutability": "nonpayable",
      "type": "function"
    },
    {
      "inputs": [
        {
          "internalType": "uint256",
          "name": "_protocolFeePercent",
          "type": "uint256"
        }
      ],
      "name": "setProtocolFeePercent",
      "outputs": [],
      "stateMutability": "nonpayable",
      "type": "function"
    },
    {
      "inputs": [
        {
          "internalType": "uint256",
          "name": "",
          "type": "uint256"
        }
      ],
      "name": "shareInfo",
      "outputs": [
        {
          "internalType": "address",
          "name": "owner",
          "type": "address"
        },
        {
          "internalType": "uint256",
          "name": "totalSupply",
          "type": "uint256"
        },
        {
          "internalType": "string",
          "name": "uri",
          "type": "string"
        }
      ],
      "stateMutability": "view",
      "type": "function"
    },
    {
      "inputs": [],
      "name": "startTime",
      "outputs": [
        {
          "internalType": "uint256",
          "name": "",
          "type": "uint256"
        }
      ],
      "stateMutability": "view",
      "type": "function"
    },
    {
      "inputs": [],
      "name": "symbol",
      "outputs": [
        {
          "internalType": "string",
          "name": "",
          "type": "string"
        }
      ],
      "stateMutability": "view",
      "type": "function"
    },
    {
      "inputs": [],
      "name": "totalSupply",
      "outputs": [
        {
          "internalType": "uint256",
          "name": "",
          "type": "uint256"
        }
      ],
      "stateMutability": "view",
      "type": "function"
    },
    {
      "inputs": [
        {
          "internalType": "address",
          "name": "to",
          "type": "address"
        },
        {
          "internalType": "uint256",
          "name": "amount",
          "type": "uint256"
        }
      ],
      "name": "transfer",
      "outputs": [
        {
          "internalType": "bool",
          "name": "",
          "type": "bool"
        }
      ],
      "stateMutability": "nonpayable",
      "type": "function"
    },
    {
      "inputs": [
        {
          "internalType": "address",
          "name": "from",
          "type": "address"
        },
        {
          "internalType": "address",
          "name": "to",
          "type": "address"
        },
        {
          "internalType": "uint256",
          "name": "amount",
          "type": "uint256"
        }
      ],
      "name": "transferFrom",
      "outputs": [
        {
          "internalType": "bool",
          "name": "",
          "type": "bool"
        }
      ],
      "stateMutability": "nonpayable",
      "type": "function"
    },
    {
      "inputs": [
        {
          "internalType": "address",
          "name": "newOwner",
          "type": "address"
        }
      ],
      "name": "transferOwnership",
      "outputs": [],
      "stateMutability": "nonpayable",
      "type": "function"
    },
    {
      "inputs": [],
      "name": "updatedAt",
      "outputs": [
        {
          "internalType": "uint256",
          "name": "",
          "type": "uint256"
        }
      ],
      "stateMutability": "view",
      "type": "function"
    },
    {
      "inputs": [
        {
          "internalType": "uint256",
          "name": "id",
          "type": "uint256"
        }
      ],
      "name": "uri",
      "outputs": [
        {
          "internalType": "string",
          "name": "",
          "type": "string"
        }
      ],
      "stateMutability": "view",
      "type": "function"
    },
    {
      "inputs": [
        {
          "internalType": "address",
          "name": "",
          "type": "address"
        }
      ],
      "name": "userNetEthContributed",
      "outputs": [
        {
          "internalType": "int256",
          "name": "",
          "type": "int256"
        }
      ],
      "stateMutability": "view",
      "type": "function"
    },
    {
      "inputs": [
        {
          "internalType": "address",
          "name": "",
          "type": "address"
        }
      ],
      "name": "userRewardPerEthPaid",
      "outputs": [
        {
          "internalType": "uint256",
          "name": "",
          "type": "uint256"
        }
      ],
      "stateMutability": "view",
      "type": "function"
    }
  ],
  "bytecode": {
    "object": "0x60006008556b204fce5e3e250261100000006011556101606040526b0cecb8f27f4200f3a000000060a09081526b052b7d2dcc80cd2e4000000060c0526b033b2e3c9fd0803ce800000060e0526b01f04ef12cb04cf158000000610100526b015b6a759f4835dc24000000610120526b013a542146f830bafc000000610140526200008f906013906006620002bb565b503480156200009d57600080fd5b50604051620029af380380620029af833981016040819052620000c0916200032d565b6040518060400160405280600681526020016510dd5c9d995960d21b8152506040518060400160405280600681526020016510d55495915160d21b81525062000118620001126200019a60201b60201c565b6200019e565b60046200012683826200040d565b5060056200013582826200040d565b5050600680546001600160a01b0319166001600160a01b038516179055506007819055426009819055600b8190556200017390630b488680620004d9565b600a553060805262000192336b06765c793fa10079d0000000620001ee565b505062000501565b3390565b600080546001600160a01b038381166001600160a01b0319831681178455604051919092169283917f8be0079c531659141344cd1fd0a4f28419497f9722a3daafe3b4186f6b6457e09190a35050565b6001600160a01b038216620002495760405162461bcd60e51b815260206004820152601f60248201527f45524332303a206d696e7420746f20746865207a65726f206164647265737300604482015260640160405180910390fd5b80600360008282546200025d9190620004d9565b90915550506001600160a01b0382166000818152600160209081526040808320805486019055518481527fddf252ad1be2c89b69c2b068fc378daa952ba7f163c4a11628f55a4df523b3ef910160405180910390a35050565b505050565b82805482825590600052602060002090810192821562000304579160200282015b828111156200030457825182906001600160601b0316905591602001919060010190620002dc565b506200031292915062000316565b5090565b5b8082111562000312576000815560010162000317565b600080604083850312156200034157600080fd5b82516001600160a01b03811681146200035957600080fd5b6020939093015192949293505050565b634e487b7160e01b600052604160045260246000fd5b600181811c908216806200039457607f821691505b602082108103620003b557634e487b7160e01b600052602260045260246000fd5b50919050565b601f821115620002b657600081815260208120601f850160051c81016020861015620003e45750805b601f850160051c820191505b818110156200040557828155600101620003f0565b505050505050565b81516001600160401b0381111562000429576200042962000369565b62000441816200043a84546200037f565b84620003bb565b602080601f831160018114620004795760008415620004605750858301515b600019600386901b1c1916600185901b17855562000405565b600085815260208120601f198616915b82811015620004aa5788860151825594840194600190910190840162000489565b5085821015620004c95787850151600019600388901b60f8161c191681555b5050505050600190811b01905550565b80820180821115620004fb57634e487b7160e01b600052601160045260246000fd5b92915050565b6080516124926200051d60003960006107c101526124926000f3fe6080604052600436106102925760003560e01c806378e979251161015a578063bbcb3fb2116100c1578063d5abeb011161007a578063d5abeb01146107f9578063d6e6eb9f1461080f578063dd62ed3e14610825578063e00dd16114610845578063f2fde38b1461085b578063fa5a2e621461087b57600080fd5b8063bbcb3fb21461072d578063c157253d1461075a578063cd3daf9d1461077a578063cd9c71211461078f578063d1af0c7d146107af578063d4d83ec4146107e357600080fd5b8063a10786b011610113578063a10786b01461067a578063a457c2d71461069a578063a4983421146106ba578063a9059cbb146106da578063aca75a52146106fa578063adacd4871461070d57600080fd5b806378e97925146105cf57806380faa57d146105e55780638da5cb5b146105fa5780639477d85d1461061857806395d89b4114610638578063964115381461064d57600080fd5b8063313ce567116101fe57806357764094116101b757806357764094146105185780635cf4ee911461053857806367d3b4881461055857806370a082311461056e578063715018a6146105a45780637519ab50146105b957600080fd5b8063313ce5671461044f578063395093511461046b5780633d18b9121461048b5780634bcc7d7d146104a05780634ce7957c146104c05780635487c577146104f857600080fd5b8063095ea7b311610250578063095ea7b31461037b5780630e89341c146103ab57806318160ddd146103cb5780631d92d3b9146103e057806323b872dd1461040f5780632e3de7a51461042f57600080fd5b80628cc262146102975780630391f64c146102ca5780630519e975146102ea578063063a741f1461030c57806306fdde031461032c5780630700037d1461034e575b600080fd5b3480156102a357600080fd5b506102b76102b2366004611f3b565b610891565b6040519081526020015b60405180910390f35b3480156102d657600080fd5b506102b76102e5366004611f56565b610937565b3480156102f657600080fd5b5061030a610305366004611f82565b610990565b005b34801561031857600080fd5b506102b7610327366004611f82565b610ca2565b34801561033857600080fd5b50610341610d0b565b6040516102c19190611fea565b34801561035a57600080fd5b506102b7610369366004611f3b565b600e6020526000908152604090205481565b34801561038757600080fd5b5061039b610396366004611ffd565b610d9d565b60405190151581526020016102c1565b3480156103b757600080fd5b506103416103c6366004612027565b610db5565b3480156103d757600080fd5b506003546102b7565b3480156103ec57600080fd5b506104006103fb366004612027565b610e79565b6040516102c193929190612040565b34801561041b57600080fd5b5061039b61042a366004612067565b610f5f565b34801561043b57600080fd5b5061030a61044a3660046120ec565b610f83565b34801561045b57600080fd5b50604051601281526020016102c1565b34801561047757600080fd5b5061039b610486366004611ffd565b61103b565b34801561049757600080fd5b5061030a61105d565b3480156104ac57600080fd5b5061030a6104bb36600461212e565b61113f565b3480156104cc57600080fd5b506006546104e0906001600160a01b031681565b6040516001600160a01b0390911681526020016102c1565b34801561050457600080fd5b506102b7610513366004612027565b6111e8565b34801561052457600080fd5b506102b7610533366004612027565b611209565b34801561054457600080fd5b506102b7610553366004611f82565b611323565b34801561056457600080fd5b506102b7600a5481565b34801561057a57600080fd5b506102b7610589366004611f3b565b6001600160a01b031660009081526001602052604090205490565b3480156105b057600080fd5b5061030a611444565b3480156105c557600080fd5b506102b7600b5481565b3480156105db57600080fd5b506102b760095481565b3480156105f157600080fd5b506102b7611458565b34801561060657600080fd5b506000546001600160a01b03166104e0565b34801561062457600080fd5b506102b7610633366004611f82565b61146b565b34801561064457600080fd5b506103416114b5565b34801561065957600080fd5b506102b7610668366004611f3b565b600d6020526000908152604090205481565b34801561068657600080fd5b5061030a610695366004611f3b565b6114c4565b3480156106a657600080fd5b5061039b6106b5366004611ffd565b6114ee565b3480156106c657600080fd5b5061030a6106d5366004612027565b611569565b3480156106e657600080fd5b5061039b6106f5366004611ffd565b611576565b61030a610708366004611f82565b611584565b34801561071957600080fd5b50610400610728366004612027565b6117f6565b34801561073957600080fd5b506102b7610748366004611f3b565b60106020526000908152604090205481565b34801561076657600080fd5b506102b7610775366004611f82565b6118ab565b34801561078657600080fd5b506102b76118ea565b34801561079b57600080fd5b506102b76107aa366004611f82565b611951565b3480156107bb57600080fd5b506104e07f000000000000000000000000000000000000000000000000000000000000000081565b3480156107ef57600080fd5b506102b7600c5481565b34801561080557600080fd5b506102b760115481565b34801561081b57600080fd5b506102b760075481565b34801561083157600080fd5b506102b761084036600461217a565b6119b1565b34801561085157600080fd5b506102b760085481565b34801561086757600080fd5b5061030a610876366004611f3b565b6119dc565b34801561088757600080fd5b506102b7600f5481565b6001600160a01b0381166000908152601060205260408120548113156108b957506000919050565b6001600160a01b0382166000908152600e6020908152604080832054600d90925290912054670de0b6b3a7640000906108f06118ea565b6108fa91906121ba565b6001600160a01b03851660009081526010602052604090205461091d91906121cd565b61092791906121e4565b6109319190612206565b92915050565b600060085483106109635760405162461bcd60e51b815260040161095a90612219565b60405180910390fd5b5060008281526012602090815260408083206001600160a01b038516845260010190915290205492915050565b336109996118ea565b600c556109a4611458565b600b556001600160a01b038116156109eb576109bf81610891565b6001600160a01b0382166000908152600e6020908152604080832093909355600c54600d909152919020555b6008548310610a0c5760405162461bcd60e51b815260040161095a90612219565b6000838152601260209081526040808320600281015433855260018201909352922054841115610a7e5760405162461bcd60e51b815260206004820152601a60248201527f496e73756666696369656e742073686172652062616c616e6365000000000000604482015260640161095a565b6000848360020154610a9091906121ba565b11610af55760405162461bcd60e51b815260206004820152602f60248201527f43616e6e6f742073656c6c20616c6c207368617265732c206d757374206c656160448201526e7665206174206c65617374206f6e6560881b606482015260840161095a565b6000610b0a610b0486846121ba565b86611323565b33600090815260106020526040902054909150610b28908290612243565b33600090815260106020526040902055600f54610b469082906121ba565b600f55600754600090670de0b6b3a764000090610b6390846121cd565b610b6d91906121e4565b336000908152600186016020526040902054909150610b8d9087906121ba565b336000908152600186016020526040902055610ba986846121ba565b600285015583546040517f09a786993c2becc8264c2a90ccc09ca6a571883f97635cc26ed418876b3bdb0a91610bf5918a9160019133916001600160a01b0316908c9089908b9061226a565b60405180910390a1600033610c0a83856121ba565b6040515b60006040518083038185875af1925050503d8060008114610c4b576040519150601f19603f3d011682016040523d82523d6000602084013e610c50565b606091505b5050905080610c985760405162461bcd60e51b8152602060048201526014602482015273556e61626c6520746f2073656e642066756e647360601b604482015260640161095a565b5050505050505050565b60006008548310610cc55760405162461bcd60e51b815260040161095a90612219565b6000610cd184846118ab565b90506000670de0b6b3a764000060075483610cec91906121cd565b610cf691906121e4565b9050610d028183612206565b95945050505050565b606060048054610d1a906122a6565b80601f0160208091040260200160405190810160405280929190818152602001828054610d46906122a6565b8015610d935780601f10610d6857610100808354040283529160200191610d93565b820191906000526020600020905b815481529060010190602001808311610d7657829003601f168201915b5050505050905090565b600033610dab818585611a55565b5060019392505050565b60606008548210610dd85760405162461bcd60e51b815260040161095a90612219565b60008281526012602052604090206003018054610df4906122a6565b80601f0160208091040260200160405190810160405280929190818152602001828054610e20906122a6565b8015610e6d5780601f10610e4257610100808354040283529160200191610e6d565b820191906000526020600020905b815481529060010190602001808311610e5057829003601f168201915b50505050509050919050565b60008060606008548410610e9f5760405162461bcd60e51b815260040161095a90612219565b6000848152601260205260409020805460028201546003830180546001600160a01b03909316928190610ed1906122a6565b80601f0160208091040260200160405190810160405280929190818152602001828054610efd906122a6565b8015610f4a5780601f10610f1f57610100808354040283529160200191610f4a565b820191906000526020600020905b815481529060010190602001808311610f2d57829003601f168201915b50505050509050935093509350509193909250565b600033610f6d858285611b79565b610f78858585611bed565b506001949350505050565b60088054600090815260126020818152604080842080546001600160a01b0319163390811790915585548552818520908552600190810183528185208190558554855292909152808320600201919091559154815220600301610fe7828483612344565b5060088054906000610ff883612405565b9190505550600160085461100c91906121ba565b60405133907f335b5487495f05d92d4db67accd7283d32ffa24a7eb1d604889b384e4888376290600090a35050565b600033610dab81858561104e83836119b1565b6110589190612206565b611a55565b336110666118ea565b600c55611071611458565b600b556001600160a01b038116156110b85761108c81610891565b6001600160a01b0382166000908152600e6020908152604080832093909355600c54600d909152919020555b336000908152600e60205260409020546011546003546110d89083612206565b111561111b5760405162461bcd60e51b815260206004820152601260248201527113585e081cdd5c1c1b1e481c995858da195960721b604482015260640161095a565b801561113b57336000818152600e602052604081205561113b9082611d98565b5050565b60085483106111605760405162461bcd60e51b815260040161095a90612219565b6000838152601260205260409020546001600160a01b031633146111c65760405162461bcd60e51b815260206004820152601760248201527f4f6e6c7920746865206f776e65722063616e2065646974000000000000000000604482015260640161095a565b60008381526012602052604090206003016111e2828483612344565b50505050565b601381815481106111f857600080fd5b600091825260209091200154905081565b6000806009548361121a91906121ba565b905060006301dfe20082101561125f576301dfe20060136000815481106112435761124361241e565b906000526020600020015461125891906121e4565b905061131c565b6303bfc400821015611284576301dfe20060136001815481106112435761124361241e565b63059fa6008210156112a9576301dfe20060136002815481106112435761124361241e565b63077f88008210156112ce576301dfe20060136003815481106112435761124361241e565b63095f6a008210156112f3576301dfe20060136004815481106112435761124361241e565b630b3f4c00821015611318576301dfe20060136005815481106112435761124361241e565b5060005b9392505050565b600080831561137e5760066113396001866121ba565b6113449060026121cd565b61134f906001612206565b8561135b6001826121ba565b61136591906121cd565b61136f91906121cd565b61137991906121e4565b611381565b60005b90506000841580156113935750836001145b611408576006846113a56001886121ba565b6113af9190612206565b6113ba9060026121cd565b6113c5906001612206565b6113cf8688612206565b866113db60018a6121ba565b6113e59190612206565b6113ef91906121cd565b6113f991906121cd565b61140391906121e4565b61140b565b60005b9050600061141983836121ba565b9050610fa061143082670de0b6b3a76400006121cd565b61143a91906121e4565b9695505050505050565b61144c611e59565b6114566000611eb3565b565b6000611466600a5442611f03565b905090565b6000600854831061148e5760405162461bcd60e51b815260040161095a90612219565b60008381526012602052604090206002015461131c906114af9084906121ba565b83611323565b606060058054610d1a906122a6565b6114cc611e59565b600680546001600160a01b0319166001600160a01b0392909216919091179055565b600033816114fc82866119b1565b90508381101561155c5760405162461bcd60e51b815260206004820152602560248201527f45524332303a2064656372656173656420616c6c6f77616e63652062656c6f77604482015264207a65726f60d81b606482015260840161095a565b610f788286868403611a55565b611571611e59565b600755565b600033610dab818585611bed565b3361158d6118ea565b600c55611598611458565b600b556001600160a01b038116156115df576115b381610891565b6001600160a01b0382166000908152600e6020908152604080832093909355600c54600d909152919020555b60085483106116005760405162461bcd60e51b815260040161095a90612219565b600083815260126020526040902060028101548015158061162a575081546001600160a01b031633145b61168e5760405162461bcd60e51b815260206004820152602f60248201527f4f6e6c792074686520736861726573207375626a6563742063616e206275792060448201526e74686520666972737420736861726560881b606482015260840161095a565b600061169a8286611323565b336000908152601060205260409020549091506116b8908290612434565b33600090815260106020526040902055600f546116d6908290612206565b600f55600754600090670de0b6b3a7640000906116f390846121cd565b6116fd91906121e4565b90506117098183612206565b34101561174f5760405162461bcd60e51b8152602060048201526014602482015273125b9cdd59999a58da595b9d081c185e5b595b9d60621b604482015260640161095a565b33600090815260018501602052604090205461176c908790612206565b3360009081526001860160205260409020556117888684612206565b600285015583546040517f09a786993c2becc8264c2a90ccc09ca6a571883f97635cc26ed418876b3bdb0a916117d4918a9160009133916001600160a01b0316908c9089908b9061226a565b60405180910390a16006546040516000916001600160a01b0316908390610c0e565b6012602052600090815260409020805460028201546003830180546001600160a01b03909316939192611828906122a6565b80601f0160208091040260200160405190810160405280929190818152602001828054611854906122a6565b80156118a15780601f10611876576101008083540402835291602001916118a1565b820191906000526020600020905b81548152906001019060200180831161188457829003601f168201915b5050505050905083565b600060085483106118ce5760405162461bcd60e51b815260040161095a90612219565b60008381526012602052604090206002015461131c9083611323565b6000600f546000036118fd5750600c5490565b600f54600b5461190b611458565b61191591906121ba565b61191e42611209565b61192891906121cd565b61193a90670de0b6b3a76400006121cd565b61194491906121e4565b600c546114669190612206565b600060085483106119745760405162461bcd60e51b815260040161095a90612219565b6000611980848461146b565b90506000670de0b6b3a76400006007548361199b91906121cd565b6119a591906121e4565b9050610d0281836121ba565b6001600160a01b03918216600090815260026020908152604080832093909416825291909152205490565b6119e4611e59565b6001600160a01b038116611a495760405162461bcd60e51b815260206004820152602660248201527f4f776e61626c653a206e6577206f776e657220697320746865207a65726f206160448201526564647265737360d01b606482015260840161095a565b611a5281611eb3565b50565b6001600160a01b038316611ab75760405162461bcd60e51b8152602060048201526024808201527f45524332303a20617070726f76652066726f6d20746865207a65726f206164646044820152637265737360e01b606482015260840161095a565b6001600160a01b038216611b185760405162461bcd60e51b815260206004820152602260248201527f45524332303a20617070726f766520746f20746865207a65726f206164647265604482015261737360f01b606482015260840161095a565b6001600160a01b0383811660008181526002602090815260408083209487168084529482529182902085905590518481527f8c5be1e5ebec7d5bd14f71427d1e84f3dd0314c0f7b2291e5b200ac8c7c3b925910160405180910390a3505050565b6000611b8584846119b1565b905060001981146111e25781811015611be05760405162461bcd60e51b815260206004820152601d60248201527f45524332303a20696e73756666696369656e7420616c6c6f77616e6365000000604482015260640161095a565b6111e28484848403611a55565b6001600160a01b038316611c515760405162461bcd60e51b815260206004820152602560248201527f45524332303a207472616e736665722066726f6d20746865207a65726f206164604482015264647265737360d81b606482015260840161095a565b6001600160a01b038216611cb35760405162461bcd60e51b815260206004820152602360248201527f45524332303a207472616e7366657220746f20746865207a65726f206164647260448201526265737360e81b606482015260840161095a565b6001600160a01b03831660009081526001602052604090205481811015611d2b5760405162461bcd60e51b815260206004820152602660248201527f45524332303a207472616e7366657220616d6f756e7420657863656564732062604482015265616c616e636560d01b606482015260840161095a565b6001600160a01b0380851660008181526001602052604080822086860390559286168082529083902080548601905591517fddf252ad1be2c89b69c2b068fc378daa952ba7f163c4a11628f55a4df523b3ef90611d8b9086815260200190565b60405180910390a36111e2565b6001600160a01b038216611dee5760405162461bcd60e51b815260206004820152601f60248201527f45524332303a206d696e7420746f20746865207a65726f206164647265737300604482015260640161095a565b8060036000828254611e009190612206565b90915550506001600160a01b0382166000818152600160209081526040808320805486019055518481527fddf252ad1be2c89b69c2b068fc378daa952ba7f163c4a11628f55a4df523b3ef910160405180910390a35050565b6000546001600160a01b031633146114565760405162461bcd60e51b815260206004820181905260248201527f4f776e61626c653a2063616c6c6572206973206e6f7420746865206f776e6572604482015260640161095a565b600080546001600160a01b038381166001600160a01b0319831681178455604051919092169283917f8be0079c531659141344cd1fd0a4f28419497f9722a3daafe3b4186f6b6457e09190a35050565b600081831115611f13578161131c565b5090919050565b505050565b80356001600160a01b0381168114611f3657600080fd5b919050565b600060208284031215611f4d57600080fd5b61131c82611f1f565b60008060408385031215611f6957600080fd5b82359150611f7960208401611f1f565b90509250929050565b60008060408385031215611f9557600080fd5b50508035926020909101359150565b6000815180845260005b81811015611fca57602081850181015186830182015201611fae565b506000602082860101526020601f19601f83011685010191505092915050565b60208152600061131c6020830184611fa4565b6000806040838503121561201057600080fd5b61201983611f1f565b946020939093013593505050565b60006020828403121561203957600080fd5b5035919050565b60018060a01b0384168152826020820152606060408201526000610d026060830184611fa4565b60008060006060848603121561207c57600080fd5b61208584611f1f565b925061209360208501611f1f565b9150604084013590509250925092565b60008083601f8401126120b557600080fd5b50813567ffffffffffffffff8111156120cd57600080fd5b6020830191508360208285010111156120e557600080fd5b9250929050565b600080602083850312156120ff57600080fd5b823567ffffffffffffffff81111561211657600080fd5b612122858286016120a3565b90969095509350505050565b60008060006040848603121561214357600080fd5b83359250602084013567ffffffffffffffff81111561216157600080fd5b61216d868287016120a3565b9497909650939450505050565b6000806040838503121561218d57600080fd5b61219683611f1f565b9150611f7960208401611f1f565b634e487b7160e01b600052601160045260246000fd5b81810381811115610931576109316121a4565b8082028115828204841417610931576109316121a4565b60008261220157634e487b7160e01b600052601260045260246000fd5b500490565b80820180821115610931576109316121a4565b60208082526010908201526f125b9d985b1a59081cda185c99481a5960821b604082015260600190565b8181036000831280158383131683831282161715612263576122636121a4565b5092915050565b96875260208701959095526001600160a01b039384166040870152919092166060850152608084019190915260a083015260c082015260e00190565b600181811c908216806122ba57607f821691505b6020821081036122da57634e487b7160e01b600052602260045260246000fd5b50919050565b634e487b7160e01b600052604160045260246000fd5b601f821115611f1a57600081815260208120601f850160051c8101602086101561231d5750805b601f850160051c820191505b8181101561233c57828155600101612329565b505050505050565b67ffffffffffffffff83111561235c5761235c6122e0565b6123708361236a83546122a6565b836122f6565b6000601f8411600181146123a4576000851561238c5750838201355b600019600387901b1c1916600186901b1783556123fe565b600083815260209020601f19861690835b828110156123d557868501358255602094850194600190920191016123b5565b50868210156123f25760001960f88860031b161c19848701351681555b505060018560011b0183555b5050505050565b600060018201612417576124176121a4565b5060010190565b634e487b7160e01b600052603260045260246000fd5b8082018281126000831280158216821582161715612454576124546121a4565b50509291505056fea26469706673582212200b8b05704b34fa99081cf0f93ca19cc169a3a3abddcdaed9acdec26daa8fd83464736f6c63430008150033",
    "linkReferences": {}
  },
  "methodIdentifiers": {
    "allowance(address,address)": "dd62ed3e",
    "approve(address,uint256)": "095ea7b3",
    "balanceOf(address)": "70a08231",
    "buyShare(uint256,uint256)": "aca75a52",
    "createShare(string)": "2e3de7a5",
    "currentId()": "e00dd161",
    "decimals()": "313ce567",
    "decreaseAllowance(address,uint256)": "a457c2d7",
    "earned(address)": "008cc262",
    "editUri(uint256,string)": "4bcc7d7d",
    "epoch(uint256)": "5487c577",
    "finishAt()": "67d3b488",
    "getBuyPrice(uint256,uint256)": "c157253d",
    "getBuyPriceAfterFee(uint256,uint256)": "063a741f",
    "getPrice(uint256,uint256)": "5cf4ee91",
    "getRate(uint256)": "57764094",
    "getReward()": "3d18b912",
    "getSellPrice(uint256,uint256)": "9477d85d",
    "getSellPriceAfterFee(uint256,uint256)": "cd9c7121",
    "getShareBalance(uint256,address)": "0391f64c",
    "getShareInfo(uint256)": "1d92d3b9",
    "increaseAllowance(address,uint256)": "39509351",
    "lastTimeRewardApplicable()": "80faa57d",
    "maxSupply()": "d5abeb01",
    "name()": "06fdde03",
    "openInterest()": "fa5a2e62",
    "owner()": "8da5cb5b",
    "protocolFeeDestination()": "4ce7957c",
    "protocolFeePercent()": "d6e6eb9f",
    "renounceOwnership()": "715018a6",
    "rewardPerEthStored()": "d4d83ec4",
    "rewardPerToken()": "cd3daf9d",
    "rewards(address)": "0700037d",
    "rewardsToken()": "d1af0c7d",
    "sellShare(uint256,uint256)": "0519e975",
    "setProtocolFeeDestination(address)": "a10786b0",
    "setProtocolFeePercent(uint256)": "a4983421",
    "shareInfo(uint256)": "adacd487",
    "startTime()": "78e97925",
    "symbol()": "95d89b41",
    "totalSupply()": "18160ddd",
    "transfer(address,uint256)": "a9059cbb",
    "transferFrom(address,address,uint256)": "23b872dd",
    "transferOwnership(address)": "f2fde38b",
    "updatedAt()": "7519ab50",
    "uri(uint256)": "0e89341c",
    "userNetEthContributed(address)": "bbcb3fb2",
    "userRewardPerEthPaid(address)": "96411538"
  },
  "id": 23
}