{
  "abi": [
    {
      "inputs": [],
      "stateMutability": "nonpayable",
      "type": "constructor"
    },
    {
      "inputs": [],
      "name": "InvalidShortString",
      "type": "error"
    },
    {
      "inputs": [
        {
          "internalType": "string",
          "name": "str",
          "type": "string"
        }
      ],
      "name": "StringTooLong",
      "type": "error"
    },
    {
      "anonymous": false,
      "inputs": [
        {
          "indexed": true,
          "internalType": "address",
          "name": "owner",
          "type": "address"
        },
        {
          "indexed": true,
          "internalType": "address",
          "name": "spender",
          "type": "address"
        },
        {
          "indexed": false,
          "internalType": "uint256",
          "name": "value",
          "type": "uint256"
        }
      ],
      "name": "Approval",
      "type": "event"
    },
    {
      "anonymous": false,
      "inputs": [
        {
          "indexed": true,
          "internalType": "address",
          "name": "delegator",
          "type": "address"
        },
        {
          "indexed": true,
          "internalType": "address",
          "name": "fromDelegate",
          "type": "address"
        },
        {
          "indexed": true,
          "internalType": "address",
          "name": "toDelegate",
          "type": "address"
        }
      ],
      "name": "DelegateChanged",
      "type": "event"
    },
    {
      "anonymous": false,
      "inputs": [
        {
          "indexed": true,
          "internalType": "address",
          "name": "delegate",
          "type": "address"
        },
        {
          "indexed": false,
          "internalType": "uint256",
          "name": "previousBalance",
          "type": "uint256"
        },
        {
          "indexed": false,
          "internalType": "uint256",
          "name": "newBalance",
          "type": "uint256"
        }
      ],
      "name": "DelegateVotesChanged",
      "type": "event"
    },
    {
      "anonymous": false,
      "inputs": [],
      "name": "EIP712DomainChanged",
      "type": "event"
    },
    {
      "anonymous": false,
      "inputs": [
        {
          "indexed": true,
          "internalType": "address",
          "name": "previousOwner",
          "type": "address"
        },
        {
          "indexed": true,
          "internalType": "address",
          "name": "newOwner",
          "type": "address"
        }
      ],
      "name": "OwnershipTransferred",
      "type": "event"
    },
    {
      "anonymous": false,
      "inputs": [
        {
          "indexed": true,
          "internalType": "address",
          "name": "from",
          "type": "address"
        },
        {
          "indexed": true,
          "internalType": "address",
          "name": "to",
          "type": "address"
        },
        {
          "indexed": false,
          "internalType": "uint256",
          "name": "value",
          "type": "uint256"
        }
      ],
      "name": "Transfer",
      "type": "event"
    },
    {
      "inputs": [],
      "name": "CLOCK_MODE",
      "outputs": [
        {
          "internalType": "string",
          "name": "",
          "type": "string"
        }
      ],
      "stateMutability": "pure",
      "type": "function"
    },
    {
      "inputs": [],
      "name": "DOMAIN_SEPARATOR",
      "outputs": [
        {
          "internalType": "bytes32",
          "name": "",
          "type": "bytes32"
        }
      ],
      "stateMutability": "view",
      "type": "function"
    },
    {
      "inputs": [
        {
          "internalType": "address",
          "name": "tgt",
          "type": "address"
        }
      ],
      "name": "addMinter",
      "outputs": [],
      "stateMutability": "nonpayable",
      "type": "function"
    },
    {
      "inputs": [
        {
          "internalType": "address",
          "name": "owner",
          "type": "address"
        },
        {
          "internalType": "address",
          "name": "spender",
          "type": "address"
        }
      ],
      "name": "allowance",
      "outputs": [
        {
          "internalType": "uint256",
          "name": "",
          "type": "uint256"
        }
      ],
      "stateMutability": "view",
      "type": "function"
    },
    {
      "inputs": [
        {
          "internalType": "address",
          "name": "spender",
          "type": "address"
        },
        {
          "internalType": "uint256",
          "name": "amount",
          "type": "uint256"
        }
      ],
      "name": "approve",
      "outputs": [
        {
          "internalType": "bool",
          "name": "",
          "type": "bool"
        }
      ],
      "stateMutability": "nonpayable",
      "type": "function"
    },
    {
      "inputs": [
        {
          "internalType": "address",
          "name": "account",
          "type": "address"
        }
      ],
      "name": "balanceOf",
      "outputs": [
        {
          "internalType": "uint256",
          "name": "",
          "type": "uint256"
        }
      ],
      "stateMutability": "view",
      "type": "function"
    },
    {
      "inputs": [
        {
          "internalType": "address",
          "name": "account",
          "type": "address"
        },
        {
          "internalType": "uint32",
          "name": "pos",
          "type": "uint32"
        }
      ],
      "name": "checkpoints",
      "outputs": [
        {
          "components": [
            {
              "internalType": "uint32",
              "name": "fromBlock",
              "type": "uint32"
            },
            {
              "internalType": "uint224",
              "name": "votes",
              "type": "uint224"
            }
          ],
          "internalType": "struct ERC20Votes.Checkpoint",
          "name": "",
          "type": "tuple"
        }
      ],
      "stateMutability": "view",
      "type": "function"
    },
    {
      "inputs": [],
      "name": "clock",
      "outputs": [
        {
          "internalType": "uint48",
          "name": "",
          "type": "uint48"
        }
      ],
      "stateMutability": "view",
      "type": "function"
    },
    {
      "inputs": [],
      "name": "decimals",
      "outputs": [
        {
          "internalType": "uint8",
          "name": "",
          "type": "uint8"
        }
      ],
      "stateMutability": "view",
      "type": "function"
    },
    {
      "inputs": [
        {
          "internalType": "address",
          "name": "spender",
          "type": "address"
        },
        {
          "internalType": "uint256",
          "name": "subtractedValue",
          "type": "uint256"
        }
      ],
      "name": "decreaseAllowance",
      "outputs": [
        {
          "internalType": "bool",
          "name": "",
          "type": "bool"
        }
      ],
      "stateMutability": "nonpayable",
      "type": "function"
    },
    {
      "inputs": [
        {
          "internalType": "address",
          "name": "delegatee",
          "type": "address"
        }
      ],
      "name": "delegate",
      "outputs": [],
      "stateMutability": "nonpayable",
      "type": "function"
    },
    {
      "inputs": [
        {
          "internalType": "address",
          "name": "delegatee",
          "type": "address"
        },
        {
          "internalType": "uint256",
          "name": "nonce",
          "type": "uint256"
        },
        {
          "internalType": "uint256",
          "name": "expiry",
          "type": "uint256"
        },
        {
          "internalType": "uint8",
          "name": "v",
          "type": "uint8"
        },
        {
          "internalType": "bytes32",
          "name": "r",
          "type": "bytes32"
        },
        {
          "internalType": "bytes32",
          "name": "s",
          "type": "bytes32"
        }
      ],
      "name": "delegateBySig",
      "outputs": [],
      "stateMutability": "nonpayable",
      "type": "function"
    },
    {
      "inputs": [
        {
          "internalType": "address",
          "name": "account",
          "type": "address"
        }
      ],
      "name": "delegates",
      "outputs": [
        {
          "internalType": "address",
          "name": "",
          "type": "address"
        }
      ],
      "stateMutability": "view",
      "type": "function"
    },
    {
      "inputs": [],
      "name": "eip712Domain",
      "outputs": [
        {
          "internalType": "bytes1",
          "name": "fields",
          "type": "bytes1"
        },
        {
          "internalType": "string",
          "name": "name",
          "type": "string"
        },
        {
          "internalType": "string",
          "name": "version",
          "type": "string"
        },
        {
          "internalType": "uint256",
          "name": "chainId",
          "type": "uint256"
        },
        {
          "internalType": "address",
          "name": "verifyingContract",
          "type": "address"
        },
        {
          "internalType": "bytes32",
          "name": "salt",
          "type": "bytes32"
        },
        {
          "internalType": "uint256[]",
          "name": "extensions",
          "type": "uint256[]"
        }
      ],
      "stateMutability": "view",
      "type": "function"
    },
    {
      "inputs": [
        {
          "internalType": "uint256",
          "name": "timepoint",
          "type": "uint256"
        }
      ],
      "name": "getPastTotalSupply",
      "outputs": [
        {
          "internalType": "uint256",
          "name": "",
          "type": "uint256"
        }
      ],
      "stateMutability": "view",
      "type": "function"
    },
    {
      "inputs": [
        {
          "internalType": "address",
          "name": "account",
          "type": "address"
        },
        {
          "internalType": "uint256",
          "name": "timepoint",
          "type": "uint256"
        }
      ],
      "name": "getPastVotes",
      "outputs": [
        {
          "internalType": "uint256",
          "name": "",
          "type": "uint256"
        }
      ],
      "stateMutability": "view",
      "type": "function"
    },
    {
      "inputs": [
        {
          "internalType": "address",
          "name": "account",
          "type": "address"
        }
      ],
      "name": "getVotes",
      "outputs": [
        {
          "internalType": "uint256",
          "name": "",
          "type": "uint256"
        }
      ],
      "stateMutability": "view",
      "type": "function"
    },
    {
      "inputs": [
        {
          "internalType": "address",
          "name": "spender",
          "type": "address"
        },
        {
          "internalType": "uint256",
          "name": "addedValue",
          "type": "uint256"
        }
      ],
      "name": "increaseAllowance",
      "outputs": [
        {
          "internalType": "bool",
          "name": "",
          "type": "bool"
        }
      ],
      "stateMutability": "nonpayable",
      "type": "function"
    },
    {
      "inputs": [],
      "name": "maxSupply",
      "outputs": [
        {
          "internalType": "uint256",
          "name": "",
          "type": "uint256"
        }
      ],
      "stateMutability": "view",
      "type": "function"
    },
    {
      "inputs": [
        {
          "internalType": "address",
          "name": "to",
          "type": "address"
        },
        {
          "internalType": "uint256",
          "name": "amt",
          "type": "uint256"
        }
      ],
      "name": "mint",
      "outputs": [],
      "stateMutability": "nonpayable",
      "type": "function"
    },
    {
      "inputs": [],
      "name": "name",
      "outputs": [
        {
          "internalType": "string",
          "name": "",
          "type": "string"
        }
      ],
      "stateMutability": "view",
      "type": "function"
    },
    {
      "inputs": [
        {
          "internalType": "address",
          "name": "owner",
          "type": "address"
        }
      ],
      "name": "nonces",
      "outputs": [
        {
          "internalType": "uint256",
          "name": "",
          "type": "uint256"
        }
      ],
      "stateMutability": "view",
      "type": "function"
    },
    {
      "inputs": [
        {
          "internalType": "address",
          "name": "account",
          "type": "address"
        }
      ],
      "name": "numCheckpoints",
      "outputs": [
        {
          "internalType": "uint32",
          "name": "",
          "type": "uint32"
        }
      ],
      "stateMutability": "view",
      "type": "function"
    },
    {
      "inputs": [],
      "name": "owner",
      "outputs": [
        {
          "internalType": "address",
          "name": "",
          "type": "address"
        }
      ],
      "stateMutability": "view",
      "type": "function"
    },
    {
      "inputs": [
        {
          "internalType": "address",
          "name": "owner",
          "type": "address"
        },
        {
          "internalType": "address",
          "name": "spender",
          "type": "address"
        },
        {
          "internalType": "uint256",
          "name": "value",
          "type": "uint256"
        },
        {
          "internalType": "uint256",
          "name": "deadline",
          "type": "uint256"
        },
        {
          "internalType": "uint8",
          "name": "v",
          "type": "uint8"
        },
        {
          "internalType": "bytes32",
          "name": "r",
          "type": "bytes32"
        },
        {
          "internalType": "bytes32",
          "name": "s",
          "type": "bytes32"
        }
      ],
      "name": "permit",
      "outputs": [],
      "stateMutability": "nonpayable",
      "type": "function"
    },
    {
      "inputs": [
        {
          "internalType": "address",
          "name": "tgt",
          "type": "address"
        }
      ],
      "name": "removeMinter",
      "outputs": [],
      "stateMutability": "nonpayable",
      "type": "function"
    },
    {
      "inputs": [],
      "name": "renounceOwnership",
      "outputs": [],
      "stateMutability": "nonpayable",
      "type": "function"
    },
    {
      "inputs": [],
      "name": "symbol",
      "outputs": [
        {
          "internalType": "string",
          "name": "",
          "type": "string"
        }
      ],
      "stateMutability": "view",
      "type": "function"
    },
    {
      "inputs": [],
      "name": "totalSupply",
      "outputs": [
        {
          "internalType": "uint256",
          "name": "",
          "type": "uint256"
        }
      ],
      "stateMutability": "view",
      "type": "function"
    },
    {
      "inputs": [
        {
          "internalType": "address",
          "name": "to",
          "type": "address"
        },
        {
          "internalType": "uint256",
          "name": "amount",
          "type": "uint256"
        }
      ],
      "name": "transfer",
      "outputs": [
        {
          "internalType": "bool",
          "name": "",
          "type": "bool"
        }
      ],
      "stateMutability": "nonpayable",
      "type": "function"
    },
    {
      "inputs": [
        {
          "internalType": "address",
          "name": "from",
          "type": "address"
        },
        {
          "internalType": "address",
          "name": "to",
          "type": "address"
        },
        {
          "internalType": "uint256",
          "name": "amount",
          "type": "uint256"
        }
      ],
      "name": "transferFrom",
      "outputs": [
        {
          "internalType": "bool",
          "name": "",
          "type": "bool"
        }
      ],
      "stateMutability": "nonpayable",
      "type": "function"
    },
    {
      "inputs": [
        {
          "internalType": "address",
          "name": "newOwner",
          "type": "address"
        }
      ],
      "name": "transferOwnership",
      "outputs": [],
      "stateMutability": "nonpayable",
      "type": "function"
    }
  ],
  "bytecode": {
    "object": "0x6101606040526b204fce5e3e25026110000000600d553480156200002257600080fd5b50604051806040016040528060048152602001637975797560e01b81525080604051806040016040528060018152602001603160f81b815250604051806040016040528060048152602001637975797560e01b815250604051806040016040528060048152602001635955595560e01b815250620000af620000a9620001a560201b60201c565b620001a9565b6004620000bd83826200094d565b506005620000cc82826200094d565b50620000de91508390506006620001f9565b61012052620000ef816007620001f9565b61014052815160208084019190912060e052815190820120610100524660a0526200017d60e05161010051604080517f8b73c3c69bb8fe3d512ecc4cf759cc79239f7b179b0ffacaa9a75d522b39400f60208201529081019290925260608201524660808201523060a082015260009060c00160405160208183030381529060405280519060200120905090565b60805250503060c052506200019f336b06765c793fa10079d000000062000232565b62000ad0565b3390565b600080546001600160a01b038381166001600160a01b0319831681178455604051919092169283917f8be0079c531659141344cd1fd0a4f28419497f9722a3daafe3b4186f6b6457e09190a35050565b6000602083511015620002195762000211836200026e565b90506200022c565b816200022684826200094d565b5060ff90505b92915050565b6001600160a01b038281166000908152600a6020526040902054166200025e576200025e8280620002ba565b6200026a82826200033c565b5050565b600080829050601f81511115620002a5578260405163305a27a960e01b81526004016200029c919062000a19565b60405180910390fd5b8051620002b28262000a69565b179392505050565b6001600160a01b038281166000818152600a6020818152604080842080546001845282862054949093528787166001600160a01b03198416811790915590519190951694919391928592917f3134e8a2e6d97e929a7e54011ea5485d7d196dd5f0ba4d4ef95803e8e3fc257f9190a462000336828483620003de565b50505050565b6200034882826200051a565b6001600160e01b036200035c620005e98216565b1115620003c55760405162461bcd60e51b815260206004820152603060248201527f4552433230566f7465733a20746f74616c20737570706c79207269736b73206f60448201526f766572666c6f77696e6720766f74657360801b60648201526084016200029c565b62000336600c62000d69620005ef60201b178362000604565b816001600160a01b0316836001600160a01b031614158015620004015750600081115b1562000515576001600160a01b038316156200048e576001600160a01b0383166000908152600b60209081526040822082916200044b919062000780901b62000d75178562000604565b91509150846001600160a01b031660008051602062002f56833981519152838360405162000483929190918252602082015260400190565b60405180910390a250505b6001600160a01b0382161562000515576001600160a01b0382166000908152600b6020908152604082208291620004d29190620005ef901b62000d69178562000604565b91509150836001600160a01b031660008051602062002f5683398151915283836040516200050a929190918252602082015260400190565b60405180910390a250505b505050565b6001600160a01b038216620005725760405162461bcd60e51b815260206004820152601f60248201527f45524332303a206d696e7420746f20746865207a65726f20616464726573730060448201526064016200029c565b806003600082825462000586919062000aa4565b90915550506001600160a01b0382166000818152600160209081526040808320805486019055518481527fddf252ad1be2c89b69c2b068fc378daa952ba7f163c4a11628f55a4df523b3ef910160405180910390a36200026a600083836200078e565b60035490565b6000620005fd828462000aa4565b9392505050565b82546000908190818115620006535760008781526020902082016000190160408051808201909152905463ffffffff8116825264010000000090046001600160e01b0316602082015262000668565b60408051808201909152600080825260208201525b905080602001516001600160e01b031693506200068684868860201c565b9250600082118015620006a75750805163ffffffff1665ffffffffffff4216145b15620006f057620006b8836200079f565b60008881526020902083016000190180546001600160e01b03929092166401000000000263ffffffff90921691909117905562000776565b8660405180604001604052806200071e620007106200079b60201b60201c565b65ffffffffffff166200080e565b63ffffffff16815260200162000734866200079f565b6001600160e01b0390811690915282546001810184556000938452602093849020835194909301519091166401000000000263ffffffff909316929092179101555b5050935093915050565b6000620005fd828462000aba565b6200051583838362000875565b4290565b60006001600160e01b038211156200080a5760405162461bcd60e51b815260206004820152602760248201527f53616665436173743a2076616c756520646f65736e27742066697420696e20326044820152663234206269747360c81b60648201526084016200029c565b5090565b600063ffffffff8211156200080a5760405162461bcd60e51b815260206004820152602660248201527f53616665436173743a2076616c756520646f65736e27742066697420696e203360448201526532206269747360d01b60648201526084016200029c565b6001600160a01b038381166000908152600a60205260408082205485841683529120546200051592918216911683620003de565b634e487b7160e01b600052604160045260246000fd5b600181811c90821680620008d457607f821691505b602082108103620008f557634e487b7160e01b600052602260045260246000fd5b50919050565b601f8211156200051557600081815260208120601f850160051c81016020861015620009245750805b601f850160051c820191505b81811015620009455782815560010162000930565b505050505050565b81516001600160401b03811115620009695762000969620008a9565b62000981816200097a8454620008bf565b84620008fb565b602080601f831160018114620009b95760008415620009a05750858301515b600019600386901b1c1916600185901b17855562000945565b600085815260208120601f198616915b82811015620009ea57888601518255948401946001909101908401620009c9565b508582101562000a095787850151600019600388901b60f8161c191681555b5050505050600190811b01905550565b600060208083528351808285015260005b8181101562000a485785810183015185820160400152820162000a2a565b506000604082860101526040601f19601f8301168501019250505092915050565b80516020808301519190811015620008f55760001960209190910360031b1b16919050565b634e487b7160e01b600052601160045260246000fd5b808201808211156200022c576200022c62000a8e565b818103818111156200022c576200022c62000a8e565b60805160a05160c05160e05161010051610120516101405161242b62000b2b60003960006107cd015260006107a201526000611219015260006111f10152600061114c01526000611176015260006111a0015261242b6000f3fe608060405234801561001057600080fd5b50600436106101f05760003560e01c80637ecebe001161010f578063a457c2d7116100a2578063d5abeb0111610071578063d5abeb0114610463578063dd62ed3e1461046c578063f1127ed81461047f578063f2fde38b146104bc57600080fd5b8063a457c2d714610417578063a9059cbb1461042a578063c3cda5201461043d578063d505accf1461045057600080fd5b806391ddadf4116100de57806391ddadf4146103d357806395d89b41146103e9578063983b2d56146103f15780639ab24eb01461040457600080fd5b80637ecebe001461038157806384b0196e146103945780638da5cb5b146103af5780638e539e8c146103c057600080fd5b80633a46b1a8116101875780635c19a95c116101565780635c19a95c146103155780636fcfff451461032857806370a0823114610350578063715018a61461037957600080fd5b80633a46b1a81461029a57806340c10f19146102ad5780634bf5d7e9146102c0578063587cde1e146102ea57600080fd5b80633092afd5116101c35780633092afd51461025b578063313ce567146102705780633644e5151461027f578063395093511461028757600080fd5b806306fdde03146101f5578063095ea7b31461021357806318160ddd1461023657806323b872dd14610248575b600080fd5b6101fd6104cf565b60405161020a9190612066565b60405180910390f35b610226610221366004612095565b610561565b604051901515815260200161020a565b6003545b60405190815260200161020a565b6102266102563660046120bf565b61057b565b61026e6102693660046120fb565b61059f565b005b6040516012815260200161020a565b61023a6105b6565b610226610295366004612095565b6105c5565b61023a6102a8366004612095565b6105e7565b61026e6102bb366004612095565b61066a565b60408051808201909152600e81526d06d6f64653d74696d657374616d760941b60208201526101fd565b6102fd6102f83660046120fb565b610715565b6040516001600160a01b03909116815260200161020a565b61026e6103233660046120fb565b610733565b61033b6103363660046120fb565b610740565b60405163ffffffff909116815260200161020a565b61023a61035e3660046120fb565b6001600160a01b031660009081526001602052604090205490565b61026e610762565b61023a61038f3660046120fb565b610776565b61039c610794565b60405161020a9796959493929190612116565b6000546001600160a01b03166102fd565b61023a6103ce3660046121ac565b61081d565b60405165ffffffffffff4216815260200161020a565b6101fd61087d565b61026e6103ff3660046120fb565b61088c565b61023a6104123660046120fb565b61089f565b610226610425366004612095565b610921565b610226610438366004612095565b61099c565b61026e61044b3660046121d6565b6109aa565b61026e61045e36600461222e565b610ae0565b61023a600d5481565b61023a61047a366004612298565b610c44565b61049261048d3660046122cb565b610c6f565b60408051825163ffffffff1681526020928301516001600160e01b0316928101929092520161020a565b61026e6104ca3660046120fb565b610cf3565b6060600480546104de9061230b565b80601f016020809104026020016040519081016040528092919081815260200182805461050a9061230b565b80156105575780601f1061052c57610100808354040283529160200191610557565b820191906000526020600020905b81548152906001019060200180831161053a57829003601f168201915b5050505050905090565b60003361056f818585610d81565b60019150505b92915050565b600033610589858285610ea5565b610594858585610f1f565b506001949350505050565b6105a76110d0565b6105b2600e8261112a565b5050565b60006105c061113f565b905090565b60003361056f8185856105d88383610c44565b6105e29190612355565b610d81565b60004265ffffffffffff1682106106415760405162461bcd60e51b815260206004820152601960248201527804552433230566f7465733a20667574757265206c6f6f6b757603c1b60448201526064015b60405180910390fd5b6001600160a01b0383166000908152600b60205260409020610663908361126a565b9392505050565b610675600e33611353565b6106b85760405162461bcd60e51b815260206004820152601460248201527339b2b73232b91034b9903737ba1036b4b73a32b960611b6044820152606401610638565b600d546003546106c89083612355565b111561070b5760405162461bcd60e51b815260206004820152601260248201527113585e081cdd5c1c1b1e481c995858da195960721b6044820152606401610638565b6105b28282611375565b6001600160a01b039081166000908152600a60205260409020541690565b61073d33826113a2565b50565b6001600160a01b0381166000908152600b602052604081205461057590611438565b61076a6110d0565b61077460006114a1565b565b6001600160a01b038116600090815260086020526040812054610575565b6000606080828080836107c87f000000000000000000000000000000000000000000000000000000000000000060066114f1565b6107f37f000000000000000000000000000000000000000000000000000000000000000060076114f1565b60408051600080825260208201909252600f60f81b9b939a50919850469750309650945092509050565b60004265ffffffffffff1682106108725760405162461bcd60e51b815260206004820152601960248201527804552433230566f7465733a20667574757265206c6f6f6b757603c1b6044820152606401610638565b610575600c8361126a565b6060600580546104de9061230b565b6108946110d0565b6105b2600e8261159c565b6001600160a01b0381166000908152600b6020526040812054801561090e576001600160a01b0383166000908152600b60205260409020805460001983019081106108ec576108ec612368565b60009182526020909120015464010000000090046001600160e01b0316610911565b60005b6001600160e01b03169392505050565b6000338161092f8286610c44565b90508381101561098f5760405162461bcd60e51b815260206004820152602560248201527f45524332303a2064656372656173656420616c6c6f77616e63652062656c6f77604482015264207a65726f60d81b6064820152608401610638565b6105948286868403610d81565b60003361056f818585610f1f565b834211156109fa5760405162461bcd60e51b815260206004820152601d60248201527f4552433230566f7465733a207369676e617475726520657870697265640000006044820152606401610638565b604080517fe48329057bfd03d55e49b547132e39cffd9c1820ad7b9d4c5307691425d15adf60208201526001600160a01b038816918101919091526060810186905260808101859052600090610a7490610a6c9060a001604051602081830303815290604052805190602001206115b1565b8585856115de565b9050610a7f81611606565b8614610acd5760405162461bcd60e51b815260206004820152601960248201527f4552433230566f7465733a20696e76616c6964206e6f6e6365000000000000006044820152606401610638565b610ad781886113a2565b50505050505050565b83421115610b305760405162461bcd60e51b815260206004820152601d60248201527f45524332305065726d69743a206578706972656420646561646c696e650000006044820152606401610638565b60007f6e71edae12b1b97f4d1f60370fef10105fa2faae0126114a169c64845d6126c9888888610b5f8c611606565b6040805160208101969096526001600160a01b0394851690860152929091166060840152608083015260a082015260c0810186905260e0016040516020818303038152906040528051906020012090506000610bba826115b1565b90506000610bca828787876115de565b9050896001600160a01b0316816001600160a01b031614610c2d5760405162461bcd60e51b815260206004820152601e60248201527f45524332305065726d69743a20696e76616c6964207369676e617475726500006044820152606401610638565b610c388a8a8a610d81565b50505050505050505050565b6001600160a01b03918216600090815260026020908152604080832093909416825291909152205490565b60408051808201909152600080825260208201526001600160a01b0383166000908152600b60205260409020805463ffffffff8416908110610cb357610cb3612368565b60009182526020918290206040805180820190915291015463ffffffff8116825264010000000090046001600160e01b0316918101919091529392505050565b610cfb6110d0565b6001600160a01b038116610d605760405162461bcd60e51b815260206004820152602660248201527f4f776e61626c653a206e6577206f776e657220697320746865207a65726f206160448201526564647265737360d01b6064820152608401610638565b61073d816114a1565b60006106638284612355565b6000610663828461237e565b6001600160a01b038316610de35760405162461bcd60e51b8152602060048201526024808201527f45524332303a20617070726f76652066726f6d20746865207a65726f206164646044820152637265737360e01b6064820152608401610638565b6001600160a01b038216610e445760405162461bcd60e51b815260206004820152602260248201527f45524332303a20617070726f766520746f20746865207a65726f206164647265604482015261737360f01b6064820152608401610638565b6001600160a01b0383811660008181526002602090815260408083209487168084529482529182902085905590518481527f8c5be1e5ebec7d5bd14f71427d1e84f3dd0314c0f7b2291e5b200ac8c7c3b925910160405180910390a3505050565b6000610eb18484610c44565b90506000198114610f195781811015610f0c5760405162461bcd60e51b815260206004820152601d60248201527f45524332303a20696e73756666696369656e7420616c6c6f77616e63650000006044820152606401610638565b610f198484848403610d81565b50505050565b6001600160a01b038316610f835760405162461bcd60e51b815260206004820152602560248201527f45524332303a207472616e736665722066726f6d20746865207a65726f206164604482015264647265737360d81b6064820152608401610638565b6001600160a01b038216610fe55760405162461bcd60e51b815260206004820152602360248201527f45524332303a207472616e7366657220746f20746865207a65726f206164647260448201526265737360e81b6064820152608401610638565b6001600160a01b0383166000908152600160205260409020548181101561105d5760405162461bcd60e51b815260206004820152602660248201527f45524332303a207472616e7366657220616d6f756e7420657863656564732062604482015265616c616e636560d01b6064820152608401610638565b6001600160a01b0380851660008181526001602052604080822086860390559286168082529083902080548601905591517fddf252ad1be2c89b69c2b068fc378daa952ba7f163c4a11628f55a4df523b3ef906110bd9086815260200190565b60405180910390a3610f19848484611633565b6000546001600160a01b031633146107745760405162461bcd60e51b815260206004820181905260248201527f4f776e61626c653a2063616c6c6572206973206e6f7420746865206f776e65726044820152606401610638565b6000610663836001600160a01b03841661163e565b6000306001600160a01b037f00000000000000000000000000000000000000000000000000000000000000001614801561119857507f000000000000000000000000000000000000000000000000000000000000000046145b156111c257507f000000000000000000000000000000000000000000000000000000000000000090565b6105c0604080517f8b73c3c69bb8fe3d512ecc4cf759cc79239f7b179b0ffacaa9a75d522b39400f60208201527f0000000000000000000000000000000000000000000000000000000000000000918101919091527f000000000000000000000000000000000000000000000000000000000000000060608201524660808201523060a082015260009060c00160405160208183030381529060405280519060200120905090565b8154600090818160058111156112c457600061128584611731565b61128f908561237e565b600088815260209020909150869082015463ffffffff1611156112b4578091506112c2565b6112bf816001612355565b92505b505b808210156113115760006112d88383611819565b600088815260209020909150869082015463ffffffff1611156112fd5780915061130b565b611308816001612355565b92505b506112c4565b801561133d576000868152602090208101600019015464010000000090046001600160e01b0316611340565b60005b6001600160e01b03169695505050505050565b6001600160a01b03811660009081526001830160205260408120541515610663565b600061138083610715565b6001600160a01b0316036113985761139882836113a2565b6105b28282611834565b60006113ad83610715565b905060006113d0846001600160a01b031660009081526001602052604090205490565b6001600160a01b038581166000818152600a602052604080822080546001600160a01b031916898616908117909155905194955093928616927f3134e8a2e6d97e929a7e54011ea5485d7d196dd5f0ba4d4ef95803e8e3fc257f9190a4610f198284836118be565b600063ffffffff82111561149d5760405162461bcd60e51b815260206004820152602660248201527f53616665436173743a2076616c756520646f65736e27742066697420696e203360448201526532206269747360d01b6064820152608401610638565b5090565b600080546001600160a01b038381166001600160a01b0319831681178455604051919092169283917f8be0079c531659141344cd1fd0a4f28419497f9722a3daafe3b4186f6b6457e09190a35050565b606060ff831461150b57611504836119fb565b9050610575565b8180546115179061230b565b80601f01602080910402602001604051908101604052809291908181526020018280546115439061230b565b80156115905780601f1061156557610100808354040283529160200191611590565b820191906000526020600020905b81548152906001019060200180831161157357829003601f168201915b50505050509050610575565b6000610663836001600160a01b038416611a3a565b60006105756115be61113f565b8360405161190160f01b8152600281019290925260228201526042902090565b60008060006115ef87878787611a89565b915091506115fc81611b4d565b5095945050505050565b6001600160a01b03811660009081526008602052604090208054600181018255905b50919050565b505050565b61162e838383611c97565b6000818152600183016020526040812054801561172757600061166260018361237e565b85549091506000906116769060019061237e565b90508181146116db57600086600001828154811061169657611696612368565b90600052602060002001549050808760000184815481106116b9576116b9612368565b6000918252602080832090910192909255918252600188019052604090208390555b85548690806116ec576116ec612391565b600190038181906000526020600020016000905590558560010160008681526020019081526020016000206000905560019350505050610575565b6000915050610575565b60008160000361174357506000919050565b6000600161175084611cb2565b901c6001901b90506001818481611769576117696123a7565b048201901c90506001818481611781576117816123a7565b048201901c90506001818481611799576117996123a7565b048201901c905060018184816117b1576117b16123a7565b048201901c905060018184816117c9576117c96123a7565b048201901c905060018184816117e1576117e16123a7565b048201901c905060018184816117f9576117f96123a7565b048201901c905061066381828581611813576118136123a7565b04611d46565b600061182860028484186123bd565b61066390848416612355565b61183e8282611d5c565b6003546001600160e01b0310156118b05760405162461bcd60e51b815260206004820152603060248201527f4552433230566f7465733a20746f74616c20737570706c79207269736b73206f60448201526f766572666c6f77696e6720766f74657360801b6064820152608401610638565b610f19600c610d6983611e25565b816001600160a01b0316836001600160a01b0316141580156118e05750600081115b1561162e576001600160a01b0383161561196e576001600160a01b0383166000908152600b60205260408120819061191b90610d7585611e25565b91509150846001600160a01b03167fdec2bacdd2f05b59de34da9b523dff8be42e5e38e818c82fdb0bae774387a7248383604051611963929190918252602082015260400190565b60405180910390a250505b6001600160a01b0382161561162e576001600160a01b0382166000908152600b6020526040812081906119a490610d6985611e25565b91509150836001600160a01b03167fdec2bacdd2f05b59de34da9b523dff8be42e5e38e818c82fdb0bae774387a72483836040516119ec929190918252602082015260400190565b60405180910390a25050505050565b60606000611a0883611f8f565b604080516020808252818301909252919250600091906020820181803683375050509182525060208101929092525090565b6000818152600183016020526040812054611a8157508154600181810184556000848152602080822090930184905584548482528286019093526040902091909155610575565b506000610575565b6000807f7fffffffffffffffffffffffffffffff5d576e7357a4501ddfe92f46681b20a0831115611ac05750600090506003611b44565b6040805160008082526020820180845289905260ff881692820192909252606081018690526080810185905260019060a0016020604051602081039080840390855afa158015611b14573d6000803e3d6000fd5b5050604051601f1901519150506001600160a01b038116611b3d57600060019250925050611b44565b9150600090505b94509492505050565b6000816004811115611b6157611b616123df565b03611b695750565b6001816004811115611b7d57611b7d6123df565b03611bca5760405162461bcd60e51b815260206004820152601860248201527f45434453413a20696e76616c6964207369676e617475726500000000000000006044820152606401610638565b6002816004811115611bde57611bde6123df565b03611c2b5760405162461bcd60e51b815260206004820152601f60248201527f45434453413a20696e76616c6964207369676e6174757265206c656e677468006044820152606401610638565b6003816004811115611c3f57611c3f6123df565b0361073d5760405162461bcd60e51b815260206004820152602260248201527f45434453413a20696e76616c6964207369676e6174757265202773272076616c604482015261756560f01b6064820152608401610638565b61162e611ca384610715565b611cac84610715565b836118be565b600080608083901c15611cc757608092831c92015b604083901c15611cd957604092831c92015b602083901c15611ceb57602092831c92015b601083901c15611cfd57601092831c92015b600883901c15611d0f57600892831c92015b600483901c15611d2157600492831c92015b600283901c15611d3357600292831c92015b600183901c156105755760010192915050565b6000818310611d555781610663565b5090919050565b6001600160a01b038216611db25760405162461bcd60e51b815260206004820152601f60248201527f45524332303a206d696e7420746f20746865207a65726f2061646472657373006044820152606401610638565b8060036000828254611dc49190612355565b90915550506001600160a01b0382166000818152600160209081526040808320805486019055518481527fddf252ad1be2c89b69c2b068fc378daa952ba7f163c4a11628f55a4df523b3ef910160405180910390a36105b260008383611633565b82546000908190818115611e725760008781526020902082016000190160408051808201909152905463ffffffff8116825264010000000090046001600160e01b03166020820152611e87565b60408051808201909152600080825260208201525b905080602001516001600160e01b03169350611ea784868863ffffffff16565b9250600082118015611ec75750805163ffffffff1665ffffffffffff4216145b15611f0c57611ed583611fb7565b60008881526020902083016000190180546001600160e01b03929092166401000000000263ffffffff909216919091179055611f85565b866040518060400160405280611f2f611f224290565b65ffffffffffff16611438565b63ffffffff168152602001611f4386611fb7565b6001600160e01b0390811690915282546001810184556000938452602093849020835194909301519091166401000000000263ffffffff909316929092179101555b5050935093915050565b600060ff8216601f81111561057557604051632cd44ac360e21b815260040160405180910390fd5b60006001600160e01b0382111561149d5760405162461bcd60e51b815260206004820152602760248201527f53616665436173743a2076616c756520646f65736e27742066697420696e20326044820152663234206269747360c81b6064820152608401610638565b6000815180845260005b818110156120465760208185018101518683018201520161202a565b506000602082860101526020601f19601f83011685010191505092915050565b6020815260006106636020830184612020565b80356001600160a01b038116811461209057600080fd5b919050565b600080604083850312156120a857600080fd5b6120b183612079565b946020939093013593505050565b6000806000606084860312156120d457600080fd5b6120dd84612079565b92506120eb60208501612079565b9150604084013590509250925092565b60006020828403121561210d57600080fd5b61066382612079565b60ff60f81b881681526000602060e08184015261213660e084018a612020565b8381036040850152612148818a612020565b606085018990526001600160a01b038816608086015260a0850187905284810360c0860152855180825283870192509083019060005b8181101561219a5783518352928401929184019160010161217e565b50909c9b505050505050505050505050565b6000602082840312156121be57600080fd5b5035919050565b803560ff8116811461209057600080fd5b60008060008060008060c087890312156121ef57600080fd5b6121f887612079565b95506020870135945060408701359350612214606088016121c5565b92506080870135915060a087013590509295509295509295565b600080600080600080600060e0888a03121561224957600080fd5b61225288612079565b965061226060208901612079565b9550604088013594506060880135935061227c608089016121c5565b925060a0880135915060c0880135905092959891949750929550565b600080604083850312156122ab57600080fd5b6122b483612079565b91506122c260208401612079565b90509250929050565b600080604083850312156122de57600080fd5b6122e783612079565b9150602083013563ffffffff8116811461230057600080fd5b809150509250929050565b600181811c9082168061231f57607f821691505b60208210810361162857634e487b7160e01b600052602260045260246000fd5b634e487b7160e01b600052601160045260246000fd5b808201808211156105755761057561233f565b634e487b7160e01b600052603260045260246000fd5b818103818111156105755761057561233f565b634e487b7160e01b600052603160045260246000fd5b634e487b7160e01b600052601260045260246000fd5b6000826123da57634e487b7160e01b600052601260045260246000fd5b500490565b634e487b7160e01b600052602160045260246000fdfea2646970667358221220914314a2a39c512b8cf257cddfde84889a99e26e147cd43518ae7a4020ac9d6764736f6c63430008150033dec2bacdd2f05b59de34da9b523dff8be42e5e38e818c82fdb0bae774387a724",
    "linkReferences": {}
  },
  "methodIdentifiers": {
    "CLOCK_MODE()": "4bf5d7e9",
    "DOMAIN_SEPARATOR()": "3644e515",
    "addMinter(address)": "983b2d56",
    "allowance(address,address)": "dd62ed3e",
    "approve(address,uint256)": "095ea7b3",
    "balanceOf(address)": "70a08231",
    "checkpoints(address,uint32)": "f1127ed8",
    "clock()": "91ddadf4",
    "decimals()": "313ce567",
    "decreaseAllowance(address,uint256)": "a457c2d7",
    "delegate(address)": "5c19a95c",
    "delegateBySig(address,uint256,uint256,uint8,bytes32,bytes32)": "c3cda520",
    "delegates(address)": "587cde1e",
    "eip712Domain()": "84b0196e",
    "getPastTotalSupply(uint256)": "8e539e8c",
    "getPastVotes(address,uint256)": "3a46b1a8",
    "getVotes(address)": "9ab24eb0",
    "increaseAllowance(address,uint256)": "39509351",
    "maxSupply()": "d5abeb01",
    "mint(address,uint256)": "40c10f19",
    "name()": "06fdde03",
    "nonces(address)": "7ecebe00",
    "numCheckpoints(address)": "6fcfff45",
    "owner()": "8da5cb5b",
    "permit(address,address,uint256,uint256,uint8,bytes32,bytes32)": "d505accf",
    "removeMinter(address)": "3092afd5",
    "renounceOwnership()": "715018a6",
    "symbol()": "95d89b41",
    "totalSupply()": "18160ddd",
    "transfer(address,uint256)": "a9059cbb",
    "transferFrom(address,address,uint256)": "23b872dd",
    "transferOwnership(address)": "f2fde38b"
  },
  "id": 65
}